{
  "_format": "hh-sol-artifact-1",
  "contractName": "Messenger",
  "sourceName": "contracts/Messenger.sol",
  "abi": [
    {
      "anonymous": false,
      "inputs": [
        {
          "indexed": true,
          "internalType": "address",
          "name": "from",
          "type": "address"
        },
        {
          "indexed": false,
          "internalType": "uint256",
          "name": "tokenId",
          "type": "uint256"
        },
        {
          "indexed": false,
          "internalType": "uint256",
          "name": "timestamp",
          "type": "uint256"
        },
        {
          "indexed": false,
          "internalType": "string",
          "name": "message",
          "type": "string"
        }
      ],
      "name": "NewMessage",
      "type": "event"
    },
    {
      "anonymous": false,
      "inputs": [
        {
          "indexed": true,
          "internalType": "address",
          "name": "from",
          "type": "address"
        },
        {
          "indexed": false,
          "internalType": "uint256",
          "name": "srcChainId",
          "type": "uint256"
        },
        {
          "indexed": false,
          "internalType": "uint256",
          "name": "tokenId",
          "type": "uint256"
        },
        {
          "indexed": false,
          "internalType": "uint256",
          "name": "timestamp",
          "type": "uint256"
        },
        {
          "indexed": false,
          "internalType": "string",
          "name": "message",
          "type": "string"
        }
      ],
      "name": "NewRelayedMessage",
      "type": "event"
    },
    {
      "anonymous": false,
      "inputs": [
        {
          "indexed": true,
          "internalType": "address",
          "name": "from",
          "type": "address"
        },
        {
          "indexed": false,
          "internalType": "uint256",
          "name": "srcChainId",
          "type": "uint256"
        },
        {
          "indexed": false,
          "internalType": "string",
          "name": "messageId",
          "type": "string"
        },
        {
          "indexed": false,
          "internalType": "uint256",
          "name": "timestamp",
          "type": "uint256"
        },
        {
          "indexed": false,
          "internalType": "string",
          "name": "message",
          "type": "string"
        }
      ],
      "name": "NewRelayedReply",
      "type": "event"
    },
    {
      "anonymous": false,
      "inputs": [
        {
          "indexed": true,
          "internalType": "address",
          "name": "from",
          "type": "address"
        },
        {
          "indexed": false,
          "internalType": "string",
          "name": "messageId",
          "type": "string"
        },
        {
          "indexed": false,
          "internalType": "uint256",
          "name": "timestamp",
          "type": "uint256"
        },
        {
          "indexed": false,
          "internalType": "string",
          "name": "message",
          "type": "string"
        }
      ],
      "name": "NewReply",
      "type": "event"
    },
    {
      "anonymous": false,
      "inputs": [
        {
          "indexed": true,
          "internalType": "address",
          "name": "previousOwner",
          "type": "address"
        },
        {
          "indexed": true,
          "internalType": "address",
          "name": "newOwner",
          "type": "address"
        }
      ],
      "name": "OwnershipTransferred",
      "type": "event"
    },
    {
      "inputs": [],
      "name": "owner",
      "outputs": [
        {
          "internalType": "address",
          "name": "",
          "type": "address"
        }
      ],
      "stateMutability": "view",
      "type": "function"
    },
    {
      "inputs": [],
      "name": "renounceOwnership",
      "outputs": [],
      "stateMutability": "nonpayable",
      "type": "function"
    },
    {
      "inputs": [
        {
          "internalType": "string",
          "name": "_messageId",
          "type": "string"
        },
        {
          "internalType": "string",
          "name": "_content",
          "type": "string"
        }
      ],
      "name": "replyMessage",
      "outputs": [],
      "stateMutability": "payable",
      "type": "function"
    },
    {
      "inputs": [
        {
          "internalType": "uint256",
          "name": "_tokenId",
          "type": "uint256"
        },
        {
          "internalType": "string",
          "name": "_content",
          "type": "string"
        }
      ],
      "name": "sendMessage",
      "outputs": [],
      "stateMutability": "nonpayable",
      "type": "function"
    },
    {
      "inputs": [
        {
          "internalType": "address",
          "name": "_from",
          "type": "address"
        },
        {
          "internalType": "uint256",
          "name": "_srcChainId",
          "type": "uint256"
        },
        {
          "internalType": "uint256",
          "name": "_tokenId",
          "type": "uint256"
        },
        {
          "internalType": "string",
          "name": "_content",
          "type": "string"
        }
      ],
      "name": "sendRelayedMessage",
      "outputs": [],
      "stateMutability": "nonpayable",
      "type": "function"
    },
    {
      "inputs": [
        {
          "internalType": "address",
          "name": "_from",
          "type": "address"
        },
        {
          "internalType": "uint256",
          "name": "_srcChainId",
          "type": "uint256"
        },
        {
          "internalType": "string",
          "name": "_messageId",
          "type": "string"
        },
        {
          "internalType": "string",
          "name": "_content",
          "type": "string"
        }
      ],
      "name": "sendRelayedReply",
      "outputs": [],
      "stateMutability": "payable",
      "type": "function"
    },
    {
      "inputs": [
        {
          "internalType": "address",
          "name": "_address",
          "type": "address"
        }
      ],
      "name": "setReceiverContractAddress",
      "outputs": [],
      "stateMutability": "nonpayable",
      "type": "function"
    },
    {
      "inputs": [
        {
          "internalType": "address",
          "name": "_address",
          "type": "address"
        }
      ],
      "name": "setRelayerContractAddress",
      "outputs": [],
      "stateMutability": "nonpayable",
      "type": "function"
    },
    {
      "inputs": [
        {
          "internalType": "uint256",
          "name": "_price",
          "type": "uint256"
        }
      ],
      "name": "setReplyMessagePrice",
      "outputs": [],
      "stateMutability": "nonpayable",
      "type": "function"
    },
    {
      "inputs": [
        {
          "internalType": "address",
          "name": "newOwner",
          "type": "address"
        }
      ],
      "name": "transferOwnership",
      "outputs": [],
      "stateMutability": "nonpayable",
      "type": "function"
    },
    {
      "inputs": [],
      "name": "withdraw",
      "outputs": [],
      "stateMutability": "payable",
      "type": "function"
    }
  ],
  "bytecode": "0x6080604052600060015534801561001557600080fd5b5061003261002761003760201b60201c565b61003f60201b60201c565b610103565b600033905090565b60008060009054906101000a900473ffffffffffffffffffffffffffffffffffffffff169050816000806101000a81548173ffffffffffffffffffffffffffffffffffffffff021916908373ffffffffffffffffffffffffffffffffffffffff1602179055508173ffffffffffffffffffffffffffffffffffffffff168173ffffffffffffffffffffffffffffffffffffffff167f8be0079c531659141344cd1fd0a4f28419497f9722a3daafe3b4186f6b6457e060405160405180910390a35050565b61153f806101126000396000f3fe60806040526004361061009c5760003560e01c80638da5cb5b116100645780638da5cb5b146101235780639ec5cd9e1461014e578063aae8b59214610177578063ae177ff8146101a0578063f23c51cd146101c9578063f2fde38b146101f25761009c565b8063100a1abe146100a15780633ccfd60b146100bd57806348ff2e76146100c7578063715018a6146100e357806375c69c3e146100fa575b600080fd5b6100bb60048036038101906100b69190610d9a565b61021b565b005b6100c56102b9565b005b6100e160048036038101906100dc9190610c82565b6103b5565b005b3480156100ef57600080fd5b506100f8610457565b005b34801561010657600080fd5b50610121600480360381019061011c9190610c59565b6104df565b005b34801561012f57600080fd5b5061013861059f565b604051610145919061101f565b60405180910390f35b34801561015a57600080fd5b5061017560048036038101906101709190610e0a565b6105c8565b005b34801561018357600080fd5b5061019e60048036038101906101999190610e5c565b61064e565b005b3480156101ac57600080fd5b506101c760048036038101906101c29190610d1a565b610797565b005b3480156101d557600080fd5b506101f060048036038101906101eb9190610c59565b6108e4565b005b3480156101fe57600080fd5b5061021960048036038101906102149190610c59565b6109a4565b005b600154341015610260576040517f08c379a0000000000000000000000000000000000000000000000000000000008152600401610257906110ca565b60405180910390fd5b3373ffffffffffffffffffffffffffffffffffffffff167f1642fac34569e5b58df1449f2b7bcc3f9d399eb8d4dc3cb26575553584cfb038844285856040516102ac9493929190611063565b60405180910390a2505050565b6102c1610a9c565b73ffffffffffffffffffffffffffffffffffffffff166102df61059f565b73ffffffffffffffffffffffffffffffffffffffff1614610335576040517f08c379a000000000000000000000000000000000000000000000000000000000815260040161032c9061112a565b60405180910390fd5b600061033f61059f565b73ffffffffffffffffffffffffffffffffffffffff16476040516103629061100a565b60006040518083038185875af1925050503d806000811461039f576040519150601f19603f3d011682016040523d82523d6000602084013e6103a4565b606091505b50509050806103b257600080fd5b50565b6001543410156103fa576040517f08c379a00000000000000000000000000000000000000000000000000000000081526004016103f1906110ca565b60405180910390fd5b8473ffffffffffffffffffffffffffffffffffffffff167fcb8d104467ea688ad448f1f6beb06f33fe740c9a6bf0fe1efb4efdf52e2bd295858542868660405161044895949392919061114a565b60405180910390a25050505050565b61045f610a9c565b73ffffffffffffffffffffffffffffffffffffffff1661047d61059f565b73ffffffffffffffffffffffffffffffffffffffff16146104d3576040517f08c379a00000000000000000000000000000000000000000000000000000000081526004016104ca9061112a565b60405180910390fd5b6104dd6000610aa4565b565b6104e7610a9c565b73ffffffffffffffffffffffffffffffffffffffff1661050561059f565b73ffffffffffffffffffffffffffffffffffffffff161461055b576040517f08c379a00000000000000000000000000000000000000000000000000000000081526004016105529061112a565b60405180910390fd5b80600360006101000a81548173ffffffffffffffffffffffffffffffffffffffff021916908373ffffffffffffffffffffffffffffffffffffffff16021790555050565b60008060009054906101000a900473ffffffffffffffffffffffffffffffffffffffff16905090565b6105d0610a9c565b73ffffffffffffffffffffffffffffffffffffffff166105ee61059f565b73ffffffffffffffffffffffffffffffffffffffff1614610644576040517f08c379a000000000000000000000000000000000000000000000000000000000815260040161063b9061112a565b60405180910390fd5b8060018190555050565b6000600360009054906101000a900473ffffffffffffffffffffffffffffffffffffffff1673ffffffffffffffffffffffffffffffffffffffff1662fdd58e33866040518363ffffffff1660e01b81526004016106ac92919061103a565b602060405180830381600087803b1580156106c657600080fd5b505af11580156106da573d6000803e3d6000fd5b505050506040513d601f19601f820116820180604052508101906106fe9190610e33565b1161073e576040517f08c379a00000000000000000000000000000000000000000000000000000000081526004016107359061110a565b60405180910390fd5b3373ffffffffffffffffffffffffffffffffffffffff167fa73fe99d4d18a2a86f87042f3bb86f75aa3b370ef7a32db39e33f69b50f7940c8442858560405161078a949392919061119f565b60405180910390a2505050565b6000600360009054906101000a900473ffffffffffffffffffffffffffffffffffffffff1673ffffffffffffffffffffffffffffffffffffffff1662fdd58e87866040518363ffffffff1660e01b81526004016107f592919061103a565b602060405180830381600087803b15801561080f57600080fd5b505af1158015610823573d6000803e3d6000fd5b505050506040513d601f19601f820116820180604052508101906108479190610e33565b11610887576040517f08c379a000000000000000000000000000000000000000000000000000000000815260040161087e906110ea565b60405180910390fd5b8473ffffffffffffffffffffffffffffffffffffffff167fbe589e74a1c2210b3c9dc9c6abecbfe27e3c237196399d41456315ff91d415fb85854286866040516108d59594939291906111df565b60405180910390a25050505050565b6108ec610a9c565b73ffffffffffffffffffffffffffffffffffffffff1661090a61059f565b73ffffffffffffffffffffffffffffffffffffffff1614610960576040517f08c379a00000000000000000000000000000000000000000000000000000000081526004016109579061112a565b60405180910390fd5b80600260006101000a81548173ffffffffffffffffffffffffffffffffffffffff021916908373ffffffffffffffffffffffffffffffffffffffff16021790555050565b6109ac610a9c565b73ffffffffffffffffffffffffffffffffffffffff166109ca61059f565b73ffffffffffffffffffffffffffffffffffffffff1614610a20576040517f08c379a0000000000000000000000000000000000000000000000000000000008152600401610a179061112a565b60405180910390fd5b600073ffffffffffffffffffffffffffffffffffffffff168173ffffffffffffffffffffffffffffffffffffffff161415610a90576040517f08c379a0000000000000000000000000000000000000000000000000000000008152600401610a87906110aa565b60405180910390fd5b610a9981610aa4565b50565b600033905090565b60008060009054906101000a900473ffffffffffffffffffffffffffffffffffffffff169050816000806101000a81548173ffffffffffffffffffffffffffffffffffffffff021916908373ffffffffffffffffffffffffffffffffffffffff1602179055508173ffffffffffffffffffffffffffffffffffffffff168173ffffffffffffffffffffffffffffffffffffffff167f8be0079c531659141344cd1fd0a4f28419497f9722a3daafe3b4186f6b6457e060405160405180910390a35050565b6000610b7b610b7684611252565b61122d565b905082815260208101848484011115610b9357600080fd5b610b9e8482856112e6565b509392505050565b600081359050610bb5816114db565b92915050565b60008083601f840112610bcd57600080fd5b8235905067ffffffffffffffff811115610be657600080fd5b602083019150836001820283011115610bfe57600080fd5b9250929050565b600082601f830112610c1657600080fd5b8135610c26848260208601610b68565b91505092915050565b600081359050610c3e816114f2565b92915050565b600081519050610c53816114f2565b92915050565b600060208284031215610c6b57600080fd5b6000610c7984828501610ba6565b91505092915050565b600080600080600060808688031215610c9a57600080fd5b6000610ca888828901610ba6565b9550506020610cb988828901610c2f565b945050604086013567ffffffffffffffff811115610cd657600080fd5b610ce288828901610c05565b935050606086013567ffffffffffffffff811115610cff57600080fd5b610d0b88828901610bbb565b92509250509295509295909350565b600080600080600060808688031215610d3257600080fd5b6000610d4088828901610ba6565b9550506020610d5188828901610c2f565b9450506040610d6288828901610c2f565b935050606086013567ffffffffffffffff811115610d7f57600080fd5b610d8b88828901610bbb565b92509250509295509295909350565b600080600060408486031215610daf57600080fd5b600084013567ffffffffffffffff811115610dc957600080fd5b610dd586828701610c05565b935050602084013567ffffffffffffffff811115610df257600080fd5b610dfe86828701610bbb565b92509250509250925092565b600060208284031215610e1c57600080fd5b6000610e2a84828501610c2f565b91505092915050565b600060208284031215610e4557600080fd5b6000610e5384828501610c44565b91505092915050565b600080600060408486031215610e7157600080fd5b6000610e7f86828701610c2f565b935050602084013567ffffffffffffffff811115610e9c57600080fd5b610ea886828701610bbb565b92509250509250925092565b610ebd816112aa565b82525050565b6000610ecf8385611299565b9350610edc8385846112e6565b610ee583611388565b840190509392505050565b6000610efb82611283565b610f058185611299565b9350610f158185602086016112f5565b610f1e81611388565b840191505092915050565b6000610f36602683611299565b9150610f4182611399565b604082019050919050565b6000610f59601483611299565b9150610f64826113e8565b602082019050919050565b6000610f7c602783611299565b9150610f8782611411565b604082019050919050565b6000610f9f602583611299565b9150610faa82611460565b604082019050919050565b6000610fc2602083611299565b9150610fcd826114af565b602082019050919050565b6000610fe560008361128e565b9150610ff0826114d8565b600082019050919050565b611004816112dc565b82525050565b600061101582610fd8565b9150819050919050565b60006020820190506110346000830184610eb4565b92915050565b600060408201905061104f6000830185610eb4565b61105c6020830184610ffb565b9392505050565b6000606082019050818103600083015261107d8187610ef0565b905061108c6020830186610ffb565b818103604083015261109f818486610ec3565b905095945050505050565b600060208201905081810360008301526110c381610f29565b9050919050565b600060208201905081810360008301526110e381610f4c565b9050919050565b6000602082019050818103600083015261110381610f6f565b9050919050565b6000602082019050818103600083015261112381610f92565b9050919050565b6000602082019050818103600083015261114381610fb5565b9050919050565b600060808201905061115f6000830188610ffb565b81810360208301526111718187610ef0565b90506111806040830186610ffb565b8181036060830152611193818486610ec3565b90509695505050505050565b60006060820190506111b46000830187610ffb565b6111c16020830186610ffb565b81810360408301526111d4818486610ec3565b905095945050505050565b60006080820190506111f46000830188610ffb565b6112016020830187610ffb565b61120e6040830186610ffb565b8181036060830152611221818486610ec3565b90509695505050505050565b6000611237611248565b90506112438282611328565b919050565b6000604051905090565b600067ffffffffffffffff82111561126d5761126c611359565b5b61127682611388565b9050602081019050919050565b600081519050919050565b600081905092915050565b600082825260208201905092915050565b60006112b5826112bc565b9050919050565b600073ffffffffffffffffffffffffffffffffffffffff82169050919050565b6000819050919050565b82818337600083830152505050565b60005b838110156113135780820151818401526020810190506112f8565b83811115611322576000848401525b50505050565b61133182611388565b810181811067ffffffffffffffff821117156113505761134f611359565b5b80604052505050565b7f4e487b7100000000000000000000000000000000000000000000000000000000600052604160045260246000fd5b6000601f19601f8301169050919050565b7f4f776e61626c653a206e6577206f776e657220697320746865207a65726f206160008201527f6464726573730000000000000000000000000000000000000000000000000000602082015250565b7f6e6f7420656e6f75676874206574682073656e74000000000000000000000000600082015250565b7f4572726f723a206d75737420686f6c64207265636970726f63616c2053656e6460008201527f6572204e46542100000000000000000000000000000000000000000000000000602082015250565b7f4572726f723a206d75737420686f6c6420636f72726563742072656c6179657260008201527f204e465421000000000000000000000000000000000000000000000000000000602082015250565b7f4f776e61626c653a2063616c6c6572206973206e6f7420746865206f776e6572600082015250565b50565b6114e4816112aa565b81146114ef57600080fd5b50565b6114fb816112dc565b811461150657600080fd5b5056fea264697066735822122039763cbdfa6bd853066753f586a83e9a9203bf21d5eba5bbf0294dcc1412ecb464736f6c63430008010033",
  "linkReferences": {},
  "deployedLinkReferences": {}
}