{
  "_format": "hh-sol-artifact-1",
  "contractName": "Messenger",
  "sourceName": "contracts/Messenger.sol",
  "abi": [
    {
      "anonymous": false,
      "inputs": [
        {
          "indexed": true,
          "internalType": "address",
          "name": "from",
          "type": "address"
        },
        {
          "indexed": false,
          "internalType": "uint256",
          "name": "tokenId",
          "type": "uint256"
        },
        {
          "indexed": false,
          "internalType": "uint256",
          "name": "timestamp",
          "type": "uint256"
        },
        {
          "indexed": false,
          "internalType": "string",
          "name": "message",
          "type": "string"
        }
      ],
      "name": "NewMessage",
      "type": "event"
    },
    {
      "anonymous": false,
      "inputs": [
        {
          "indexed": true,
          "internalType": "address",
          "name": "from",
          "type": "address"
        },
        {
          "indexed": false,
          "internalType": "uint256",
          "name": "messageId",
          "type": "uint256"
        },
        {
          "indexed": false,
          "internalType": "uint256",
          "name": "timestamp",
          "type": "uint256"
        },
        {
          "indexed": false,
          "internalType": "string",
          "name": "message",
          "type": "string"
        }
      ],
      "name": "NewReply",
      "type": "event"
    },
    {
      "anonymous": false,
      "inputs": [
        {
          "indexed": true,
          "internalType": "address",
          "name": "previousOwner",
          "type": "address"
        },
        {
          "indexed": true,
          "internalType": "address",
          "name": "newOwner",
          "type": "address"
        }
      ],
      "name": "OwnershipTransferred",
      "type": "event"
    },
    {
      "inputs": [],
      "name": "owner",
      "outputs": [
        {
          "internalType": "address",
          "name": "",
          "type": "address"
        }
      ],
      "stateMutability": "view",
      "type": "function"
    },
    {
      "inputs": [],
      "name": "renounceOwnership",
      "outputs": [],
      "stateMutability": "nonpayable",
      "type": "function"
    },
    {
      "inputs": [
        {
          "internalType": "uint256",
          "name": "_messageId",
          "type": "uint256"
        },
        {
          "internalType": "string",
          "name": "_content",
          "type": "string"
        }
      ],
      "name": "replyMessage",
      "outputs": [],
      "stateMutability": "payable",
      "type": "function"
    },
    {
      "inputs": [
        {
          "internalType": "string",
          "name": "_content",
          "type": "string"
        },
        {
          "internalType": "uint256",
          "name": "_tokenId",
          "type": "uint256"
        }
      ],
      "name": "sendMessage",
      "outputs": [],
      "stateMutability": "nonpayable",
      "type": "function"
    },
    {
      "inputs": [
        {
          "internalType": "address",
          "name": "_address",
          "type": "address"
        }
      ],
      "name": "setReceiverContractAddress",
      "outputs": [],
      "stateMutability": "nonpayable",
      "type": "function"
    },
    {
      "inputs": [
        {
          "internalType": "uint256",
          "name": "_price",
          "type": "uint256"
        }
      ],
      "name": "setReplyMessagePrice",
      "outputs": [],
      "stateMutability": "nonpayable",
      "type": "function"
    },
    {
      "inputs": [
        {
          "internalType": "address",
          "name": "_address",
          "type": "address"
        }
      ],
      "name": "setSenderContractAddress",
      "outputs": [],
      "stateMutability": "nonpayable",
      "type": "function"
    },
    {
      "inputs": [
        {
          "internalType": "address",
          "name": "newOwner",
          "type": "address"
        }
      ],
      "name": "transferOwnership",
      "outputs": [],
      "stateMutability": "nonpayable",
      "type": "function"
    },
    {
      "inputs": [],
      "name": "withdraw",
      "outputs": [],
      "stateMutability": "payable",
      "type": "function"
    }
  ],
  "bytecode": "0x608060405266038d7ea4c6800060015534801561001b57600080fd5b5061003861002d61003d60201b60201c565b61004560201b60201c565b610109565b600033905090565b60008060009054906101000a900473ffffffffffffffffffffffffffffffffffffffff169050816000806101000a81548173ffffffffffffffffffffffffffffffffffffffff021916908373ffffffffffffffffffffffffffffffffffffffff1602179055508173ffffffffffffffffffffffffffffffffffffffff168173ffffffffffffffffffffffffffffffffffffffff167f8be0079c531659141344cd1fd0a4f28419497f9722a3daafe3b4186f6b6457e060405160405180910390a35050565b610eb4806101186000396000f3fe6080604052600436106100865760003560e01c80638da5cb5b116100595780638da5cb5b146100f15780639ec5cd9e1461011c578063d013bef014610145578063f23c51cd1461016e578063f2fde38b1461019757610086565b806333d418461461008b5780633ccfd60b146100a7578063715018a6146100b15780637fd3dc38146100c8575b600080fd5b6100a560048036038101906100a09190610a7a565b6101c0565b005b6100af61025e565b005b3480156100bd57600080fd5b506100c661035a565b005b3480156100d457600080fd5b506100ef60048036038101906100ea91906109a7565b6103e2565b005b3480156100fd57600080fd5b506101066104a2565b6040516101139190610be1565b60405180910390f35b34801561012857600080fd5b50610143600480360381019061013e9190610a28565b6104cb565b005b34801561015157600080fd5b5061016c600480360381019061016791906109d0565b610551565b005b34801561017a57600080fd5b50610195600480360381019061019091906109a7565b61069a565b005b3480156101a357600080fd5b506101be60048036038101906101b991906109a7565b61075a565b005b600154341015610205576040517f08c379a00000000000000000000000000000000000000000000000000000000081526004016101fc90610c45565b60405180910390fd5b3373ffffffffffffffffffffffffffffffffffffffff167f7056e56675fe6b4862f08e67e859135f9798bbbc99c9f75f37f21a6c88a3adce844285856040516102519493929190610ca5565b60405180910390a2505050565b610266610852565b73ffffffffffffffffffffffffffffffffffffffff166102846104a2565b73ffffffffffffffffffffffffffffffffffffffff16146102da576040517f08c379a00000000000000000000000000000000000000000000000000000000081526004016102d190610c85565b60405180910390fd5b60006102e46104a2565b73ffffffffffffffffffffffffffffffffffffffff164760405161030790610bcc565b60006040518083038185875af1925050503d8060008114610344576040519150601f19603f3d011682016040523d82523d6000602084013e610349565b606091505b505090508061035757600080fd5b50565b610362610852565b73ffffffffffffffffffffffffffffffffffffffff166103806104a2565b73ffffffffffffffffffffffffffffffffffffffff16146103d6576040517f08c379a00000000000000000000000000000000000000000000000000000000081526004016103cd90610c85565b60405180910390fd5b6103e0600061085a565b565b6103ea610852565b73ffffffffffffffffffffffffffffffffffffffff166104086104a2565b73ffffffffffffffffffffffffffffffffffffffff161461045e576040517f08c379a000000000000000000000000000000000000000000000000000000000815260040161045590610c85565b60405180910390fd5b80600360006101000a81548173ffffffffffffffffffffffffffffffffffffffff021916908373ffffffffffffffffffffffffffffffffffffffff16021790555050565b60008060009054906101000a900473ffffffffffffffffffffffffffffffffffffffff16905090565b6104d3610852565b73ffffffffffffffffffffffffffffffffffffffff166104f16104a2565b73ffffffffffffffffffffffffffffffffffffffff1614610547576040517f08c379a000000000000000000000000000000000000000000000000000000000815260040161053e90610c85565b60405180910390fd5b8060018190555050565b6000600360009054906101000a900473ffffffffffffffffffffffffffffffffffffffff1673ffffffffffffffffffffffffffffffffffffffff1662fdd58e33846040518363ffffffff1660e01b81526004016105af929190610bfc565b602060405180830381600087803b1580156105c957600080fd5b505af11580156105dd573d6000803e3d6000fd5b505050506040513d601f19601f820116820180604052508101906106019190610a51565b11610641576040517f08c379a000000000000000000000000000000000000000000000000000000000815260040161063890610c65565b60405180910390fd5b3373ffffffffffffffffffffffffffffffffffffffff167fa73fe99d4d18a2a86f87042f3bb86f75aa3b370ef7a32db39e33f69b50f7940c8242868660405161068d9493929190610ca5565b60405180910390a2505050565b6106a2610852565b73ffffffffffffffffffffffffffffffffffffffff166106c06104a2565b73ffffffffffffffffffffffffffffffffffffffff1614610716576040517f08c379a000000000000000000000000000000000000000000000000000000000815260040161070d90610c85565b60405180910390fd5b80600260006101000a81548173ffffffffffffffffffffffffffffffffffffffff021916908373ffffffffffffffffffffffffffffffffffffffff16021790555050565b610762610852565b73ffffffffffffffffffffffffffffffffffffffff166107806104a2565b73ffffffffffffffffffffffffffffffffffffffff16146107d6576040517f08c379a00000000000000000000000000000000000000000000000000000000081526004016107cd90610c85565b60405180910390fd5b600073ffffffffffffffffffffffffffffffffffffffff168173ffffffffffffffffffffffffffffffffffffffff161415610846576040517f08c379a000000000000000000000000000000000000000000000000000000000815260040161083d90610c25565b60405180910390fd5b61084f8161085a565b50565b600033905090565b60008060009054906101000a900473ffffffffffffffffffffffffffffffffffffffff169050816000806101000a81548173ffffffffffffffffffffffffffffffffffffffff021916908373ffffffffffffffffffffffffffffffffffffffff1602179055508173ffffffffffffffffffffffffffffffffffffffff168173ffffffffffffffffffffffffffffffffffffffff167f8be0079c531659141344cd1fd0a4f28419497f9722a3daafe3b4186f6b6457e060405160405180910390a35050565b60008135905061092d81610e50565b92915050565b60008083601f84011261094557600080fd5b8235905067ffffffffffffffff81111561095e57600080fd5b60208301915083600182028301111561097657600080fd5b9250929050565b60008135905061098c81610e67565b92915050565b6000815190506109a181610e67565b92915050565b6000602082840312156109b957600080fd5b60006109c78482850161091e565b91505092915050565b6000806000604084860312156109e557600080fd5b600084013567ffffffffffffffff8111156109ff57600080fd5b610a0b86828701610933565b93509350506020610a1e8682870161097d565b9150509250925092565b600060208284031215610a3a57600080fd5b6000610a488482850161097d565b91505092915050565b600060208284031215610a6357600080fd5b6000610a7184828501610992565b91505092915050565b600080600060408486031215610a8f57600080fd5b6000610a9d8682870161097d565b935050602084013567ffffffffffffffff811115610aba57600080fd5b610ac686828701610933565b92509250509250925092565b610adb81610d01565b82525050565b6000610aed8385610cf0565b9350610afa838584610d3d565b610b0383610d4c565b840190509392505050565b6000610b1b602683610cf0565b9150610b2682610d5d565b604082019050919050565b6000610b3e601483610cf0565b9150610b4982610dac565b602082019050919050565b6000610b61602783610cf0565b9150610b6c82610dd5565b604082019050919050565b6000610b84602083610cf0565b9150610b8f82610e24565b602082019050919050565b6000610ba7600083610ce5565b9150610bb282610e4d565b600082019050919050565b610bc681610d33565b82525050565b6000610bd782610b9a565b9150819050919050565b6000602082019050610bf66000830184610ad2565b92915050565b6000604082019050610c116000830185610ad2565b610c1e6020830184610bbd565b9392505050565b60006020820190508181036000830152610c3e81610b0e565b9050919050565b60006020820190508181036000830152610c5e81610b31565b9050919050565b60006020820190508181036000830152610c7e81610b54565b9050919050565b60006020820190508181036000830152610c9e81610b77565b9050919050565b6000606082019050610cba6000830187610bbd565b610cc76020830186610bbd565b8181036040830152610cda818486610ae1565b905095945050505050565b600081905092915050565b600082825260208201905092915050565b6000610d0c82610d13565b9050919050565b600073ffffffffffffffffffffffffffffffffffffffff82169050919050565b6000819050919050565b82818337600083830152505050565b6000601f19601f8301169050919050565b7f4f776e61626c653a206e6577206f776e657220697320746865207a65726f206160008201527f6464726573730000000000000000000000000000000000000000000000000000602082015250565b7f6e6f7420656e6f75676874206574682073656e74000000000000000000000000600082015250565b7f4572726f723a206d75737420686f6c64207265636970726f63616c2053656e6460008201527f6572204e46542100000000000000000000000000000000000000000000000000602082015250565b7f4f776e61626c653a2063616c6c6572206973206e6f7420746865206f776e6572600082015250565b50565b610e5981610d01565b8114610e6457600080fd5b50565b610e7081610d33565b8114610e7b57600080fd5b5056fea26469706673582212208dbb1a40689959445706d19538bb8a1ac448d3fb239149c10fe9630f8e0adfb864736f6c63430008010033",
  "linkReferences": {},
  "deployedLinkReferences": {}
}