{
  "_format": "hh-sol-artifact-1",
  "contractName": "ReceiverToken",
  "sourceName": "contracts/ReceiverToken.sol",
  "abi": [
    {
      "inputs": [
        {
          "internalType": "string",
          "name": "_name",
          "type": "string"
        },
        {
          "internalType": "string",
          "name": "_symbol",
          "type": "string"
        },
        {
          "internalType": "string",
          "name": "_uri",
          "type": "string"
        }
      ],
      "stateMutability": "nonpayable",
      "type": "constructor"
    },
    {
      "anonymous": false,
      "inputs": [
        {
          "indexed": true,
          "internalType": "address",
          "name": "account",
          "type": "address"
        },
        {
          "indexed": true,
          "internalType": "address",
          "name": "operator",
          "type": "address"
        },
        {
          "indexed": false,
          "internalType": "bool",
          "name": "approved",
          "type": "bool"
        }
      ],
      "name": "ApprovalForAll",
      "type": "event"
    },
    {
      "anonymous": false,
      "inputs": [
        {
          "indexed": true,
          "internalType": "address",
          "name": "previousOwner",
          "type": "address"
        },
        {
          "indexed": true,
          "internalType": "address",
          "name": "newOwner",
          "type": "address"
        }
      ],
      "name": "OwnershipTransferred",
      "type": "event"
    },
    {
      "anonymous": false,
      "inputs": [
        {
          "indexed": true,
          "internalType": "address",
          "name": "to",
          "type": "address"
        },
        {
          "indexed": false,
          "internalType": "uint256[]",
          "name": "tokenIds",
          "type": "uint256[]"
        },
        {
          "indexed": false,
          "internalType": "uint256[]",
          "name": "amounts",
          "type": "uint256[]"
        },
        {
          "indexed": false,
          "internalType": "uint256",
          "name": "timestamp",
          "type": "uint256"
        }
      ],
      "name": "ReceiverBatchMint",
      "type": "event"
    },
    {
      "anonymous": false,
      "inputs": [
        {
          "indexed": true,
          "internalType": "address",
          "name": "from",
          "type": "address"
        },
        {
          "indexed": false,
          "internalType": "address",
          "name": "to",
          "type": "address"
        },
        {
          "indexed": false,
          "internalType": "uint256[]",
          "name": "ids",
          "type": "uint256[]"
        },
        {
          "indexed": false,
          "internalType": "uint256[]",
          "name": "amounts",
          "type": "uint256[]"
        },
        {
          "indexed": false,
          "internalType": "uint256",
          "name": "timestamp",
          "type": "uint256"
        }
      ],
      "name": "ReceiverBatchTransfer",
      "type": "event"
    },
    {
      "anonymous": false,
      "inputs": [
        {
          "indexed": true,
          "internalType": "address",
          "name": "from",
          "type": "address"
        },
        {
          "indexed": false,
          "internalType": "uint256",
          "name": "tokenId",
          "type": "uint256"
        },
        {
          "indexed": false,
          "internalType": "uint256",
          "name": "amount",
          "type": "uint256"
        },
        {
          "indexed": false,
          "internalType": "uint256",
          "name": "timestamp",
          "type": "uint256"
        }
      ],
      "name": "ReceiverBurn",
      "type": "event"
    },
    {
      "anonymous": false,
      "inputs": [
        {
          "indexed": true,
          "internalType": "address",
          "name": "from",
          "type": "address"
        },
        {
          "indexed": false,
          "internalType": "address",
          "name": "to",
          "type": "address"
        },
        {
          "indexed": false,
          "internalType": "uint256",
          "name": "tokenId",
          "type": "uint256"
        },
        {
          "indexed": false,
          "internalType": "uint256",
          "name": "amount",
          "type": "uint256"
        },
        {
          "indexed": false,
          "internalType": "uint256",
          "name": "timestamp",
          "type": "uint256"
        },
        {
          "indexed": false,
          "internalType": "string",
          "name": "keyword",
          "type": "string"
        }
      ],
      "name": "ReceiverInitialMint",
      "type": "event"
    },
    {
      "anonymous": false,
      "inputs": [
        {
          "indexed": true,
          "internalType": "address",
          "name": "to",
          "type": "address"
        },
        {
          "indexed": false,
          "internalType": "uint256",
          "name": "tokenId",
          "type": "uint256"
        },
        {
          "indexed": false,
          "internalType": "uint256",
          "name": "amount",
          "type": "uint256"
        },
        {
          "indexed": false,
          "internalType": "uint256",
          "name": "timestamp",
          "type": "uint256"
        }
      ],
      "name": "ReceiverMint",
      "type": "event"
    },
    {
      "anonymous": false,
      "inputs": [
        {
          "indexed": true,
          "internalType": "address",
          "name": "from",
          "type": "address"
        },
        {
          "indexed": false,
          "internalType": "address",
          "name": "to",
          "type": "address"
        },
        {
          "indexed": false,
          "internalType": "uint256",
          "name": "id",
          "type": "uint256"
        },
        {
          "indexed": false,
          "internalType": "uint256",
          "name": "amount",
          "type": "uint256"
        },
        {
          "indexed": false,
          "internalType": "uint256",
          "name": "timestamp",
          "type": "uint256"
        }
      ],
      "name": "ReceiverTransfer",
      "type": "event"
    },
    {
      "anonymous": false,
      "inputs": [
        {
          "indexed": true,
          "internalType": "address",
          "name": "operator",
          "type": "address"
        },
        {
          "indexed": true,
          "internalType": "address",
          "name": "from",
          "type": "address"
        },
        {
          "indexed": true,
          "internalType": "address",
          "name": "to",
          "type": "address"
        },
        {
          "indexed": false,
          "internalType": "uint256[]",
          "name": "ids",
          "type": "uint256[]"
        },
        {
          "indexed": false,
          "internalType": "uint256[]",
          "name": "values",
          "type": "uint256[]"
        }
      ],
      "name": "TransferBatch",
      "type": "event"
    },
    {
      "anonymous": false,
      "inputs": [
        {
          "indexed": true,
          "internalType": "address",
          "name": "operator",
          "type": "address"
        },
        {
          "indexed": true,
          "internalType": "address",
          "name": "from",
          "type": "address"
        },
        {
          "indexed": true,
          "internalType": "address",
          "name": "to",
          "type": "address"
        },
        {
          "indexed": false,
          "internalType": "uint256",
          "name": "id",
          "type": "uint256"
        },
        {
          "indexed": false,
          "internalType": "uint256",
          "name": "value",
          "type": "uint256"
        }
      ],
      "name": "TransferSingle",
      "type": "event"
    },
    {
      "anonymous": false,
      "inputs": [
        {
          "indexed": false,
          "internalType": "string",
          "name": "value",
          "type": "string"
        },
        {
          "indexed": true,
          "internalType": "uint256",
          "name": "id",
          "type": "uint256"
        }
      ],
      "name": "URI",
      "type": "event"
    },
    {
      "inputs": [],
      "name": "RelayerContract",
      "outputs": [
        {
          "internalType": "address",
          "name": "",
          "type": "address"
        }
      ],
      "stateMutability": "view",
      "type": "function"
    },
    {
      "inputs": [
        {
          "internalType": "uint256",
          "name": "",
          "type": "uint256"
        }
      ],
      "name": "_exists",
      "outputs": [
        {
          "internalType": "bool",
          "name": "",
          "type": "bool"
        }
      ],
      "stateMutability": "view",
      "type": "function"
    },
    {
      "inputs": [
        {
          "internalType": "address",
          "name": "account",
          "type": "address"
        },
        {
          "internalType": "uint256",
          "name": "id",
          "type": "uint256"
        }
      ],
      "name": "balanceOf",
      "outputs": [
        {
          "internalType": "uint256",
          "name": "",
          "type": "uint256"
        }
      ],
      "stateMutability": "view",
      "type": "function"
    },
    {
      "inputs": [
        {
          "internalType": "address[]",
          "name": "accounts",
          "type": "address[]"
        },
        {
          "internalType": "uint256[]",
          "name": "ids",
          "type": "uint256[]"
        }
      ],
      "name": "balanceOfBatch",
      "outputs": [
        {
          "internalType": "uint256[]",
          "name": "",
          "type": "uint256[]"
        }
      ],
      "stateMutability": "view",
      "type": "function"
    },
    {
      "inputs": [
        {
          "internalType": "address",
          "name": "from",
          "type": "address"
        },
        {
          "internalType": "uint256",
          "name": "tokenId",
          "type": "uint256"
        },
        {
          "internalType": "uint256",
          "name": "amount",
          "type": "uint256"
        }
      ],
      "name": "burn",
      "outputs": [],
      "stateMutability": "nonpayable",
      "type": "function"
    },
    {
      "inputs": [
        {
          "internalType": "uint256",
          "name": "",
          "type": "uint256"
        }
      ],
      "name": "getUri",
      "outputs": [
        {
          "internalType": "string",
          "name": "",
          "type": "string"
        }
      ],
      "stateMutability": "view",
      "type": "function"
    },
    {
      "inputs": [
        {
          "internalType": "address",
          "name": "to",
          "type": "address"
        },
        {
          "internalType": "uint256",
          "name": "tokenId",
          "type": "uint256"
        },
        {
          "internalType": "uint256",
          "name": "amount",
          "type": "uint256"
        },
        {
          "internalType": "string",
          "name": "_keyword",
          "type": "string"
        }
      ],
      "name": "initialMintReceiver",
      "outputs": [],
      "stateMutability": "nonpayable",
      "type": "function"
    },
    {
      "inputs": [
        {
          "internalType": "address",
          "name": "account",
          "type": "address"
        },
        {
          "internalType": "address",
          "name": "operator",
          "type": "address"
        }
      ],
      "name": "isApprovedForAll",
      "outputs": [
        {
          "internalType": "bool",
          "name": "",
          "type": "bool"
        }
      ],
      "stateMutability": "view",
      "type": "function"
    },
    {
      "inputs": [
        {
          "internalType": "uint256[]",
          "name": "ids",
          "type": "uint256[]"
        },
        {
          "internalType": "uint256[]",
          "name": "amounts",
          "type": "uint256[]"
        }
      ],
      "name": "mintBatchReceiver",
      "outputs": [],
      "stateMutability": "nonpayable",
      "type": "function"
    },
    {
      "inputs": [
        {
          "internalType": "uint256",
          "name": "tokenId",
          "type": "uint256"
        },
        {
          "internalType": "uint256",
          "name": "amount",
          "type": "uint256"
        }
      ],
      "name": "mintReceiver",
      "outputs": [],
      "stateMutability": "nonpayable",
      "type": "function"
    },
    {
      "inputs": [],
      "name": "name",
      "outputs": [
        {
          "internalType": "string",
          "name": "",
          "type": "string"
        }
      ],
      "stateMutability": "view",
      "type": "function"
    },
    {
      "inputs": [],
      "name": "owner",
      "outputs": [
        {
          "internalType": "address",
          "name": "",
          "type": "address"
        }
      ],
      "stateMutability": "view",
      "type": "function"
    },
    {
      "inputs": [
        {
          "internalType": "address",
          "name": "to",
          "type": "address"
        },
        {
          "internalType": "uint256",
          "name": "tokenId",
          "type": "uint256"
        },
        {
          "internalType": "uint256",
          "name": "amount",
          "type": "uint256"
        }
      ],
      "name": "relayedMintReceiver",
      "outputs": [],
      "stateMutability": "nonpayable",
      "type": "function"
    },
    {
      "inputs": [],
      "name": "renounceOwnership",
      "outputs": [],
      "stateMutability": "nonpayable",
      "type": "function"
    },
    {
      "inputs": [
        {
          "internalType": "address",
          "name": "from",
          "type": "address"
        },
        {
          "internalType": "address",
          "name": "to",
          "type": "address"
        },
        {
          "internalType": "uint256[]",
          "name": "ids",
          "type": "uint256[]"
        },
        {
          "internalType": "uint256[]",
          "name": "amounts",
          "type": "uint256[]"
        },
        {
          "internalType": "bytes",
          "name": "data",
          "type": "bytes"
        }
      ],
      "name": "safeBatchTransferFrom",
      "outputs": [],
      "stateMutability": "nonpayable",
      "type": "function"
    },
    {
      "inputs": [
        {
          "internalType": "address",
          "name": "from",
          "type": "address"
        },
        {
          "internalType": "address",
          "name": "to",
          "type": "address"
        },
        {
          "internalType": "uint256",
          "name": "id",
          "type": "uint256"
        },
        {
          "internalType": "uint256",
          "name": "amount",
          "type": "uint256"
        },
        {
          "internalType": "bytes",
          "name": "data",
          "type": "bytes"
        }
      ],
      "name": "safeTransferFrom",
      "outputs": [],
      "stateMutability": "nonpayable",
      "type": "function"
    },
    {
      "inputs": [
        {
          "internalType": "address",
          "name": "operator",
          "type": "address"
        },
        {
          "internalType": "bool",
          "name": "approved",
          "type": "bool"
        }
      ],
      "name": "setApprovalForAll",
      "outputs": [],
      "stateMutability": "nonpayable",
      "type": "function"
    },
    {
      "inputs": [
        {
          "internalType": "address",
          "name": "_contract",
          "type": "address"
        }
      ],
      "name": "setRelayerContractAddress",
      "outputs": [],
      "stateMutability": "nonpayable",
      "type": "function"
    },
    {
      "inputs": [
        {
          "internalType": "bytes4",
          "name": "interfaceId",
          "type": "bytes4"
        }
      ],
      "name": "supportsInterface",
      "outputs": [
        {
          "internalType": "bool",
          "name": "",
          "type": "bool"
        }
      ],
      "stateMutability": "view",
      "type": "function"
    },
    {
      "inputs": [],
      "name": "symbol",
      "outputs": [
        {
          "internalType": "string",
          "name": "",
          "type": "string"
        }
      ],
      "stateMutability": "view",
      "type": "function"
    },
    {
      "inputs": [
        {
          "internalType": "uint256",
          "name": "",
          "type": "uint256"
        }
      ],
      "name": "tokenSupply",
      "outputs": [
        {
          "internalType": "uint256",
          "name": "",
          "type": "uint256"
        }
      ],
      "stateMutability": "view",
      "type": "function"
    },
    {
      "inputs": [
        {
          "internalType": "address",
          "name": "newOwner",
          "type": "address"
        }
      ],
      "name": "transferOwnership",
      "outputs": [],
      "stateMutability": "nonpayable",
      "type": "function"
    },
    {
      "inputs": [
        {
          "internalType": "uint256",
          "name": "",
          "type": "uint256"
        }
      ],
      "name": "uri",
      "outputs": [
        {
          "internalType": "string",
          "name": "",
          "type": "string"
        }
      ],
      "stateMutability": "view",
      "type": "function"
    }
  ],
  "bytecode": "0x60806040526040518061016001604052806101338152602001620054736101339139600a908051906020019062000038929190620001c4565b503480156200004657600080fd5b50604051620055a6380380620055a683398181016040528101906200006c9190620002e6565b806200007e81620000da60201b60201c565b506200009f62000093620000f660201b60201c565b620000fe60201b60201c565b8260049080519060200190620000b7929190620001c4565b508160059080519060200190620000d0929190620001c4565b50505050620004f7565b8060029080519060200190620000f2929190620001c4565b5050565b600033905090565b6000600360009054906101000a900473ffffffffffffffffffffffffffffffffffffffff16905081600360006101000a81548173ffffffffffffffffffffffffffffffffffffffff021916908373ffffffffffffffffffffffffffffffffffffffff1602179055508173ffffffffffffffffffffffffffffffffffffffff168173ffffffffffffffffffffffffffffffffffffffff167f8be0079c531659141344cd1fd0a4f28419497f9722a3daafe3b4186f6b6457e060405160405180910390a35050565b828054620001d2906200041c565b90600052602060002090601f016020900481019282620001f6576000855562000242565b82601f106200021157805160ff191683800117855562000242565b8280016001018555821562000242579182015b828111156200024157825182559160200191906001019062000224565b5b50905062000251919062000255565b5090565b5b808211156200027057600081600090555060010162000256565b5090565b60006200028b6200028584620003b0565b62000387565b905082815260208101848484011115620002a457600080fd5b620002b1848285620003e6565b509392505050565b600082601f830112620002cb57600080fd5b8151620002dd84826020860162000274565b91505092915050565b600080600060608486031215620002fc57600080fd5b600084015167ffffffffffffffff8111156200031757600080fd5b6200032586828701620002b9565b935050602084015167ffffffffffffffff8111156200034357600080fd5b6200035186828701620002b9565b925050604084015167ffffffffffffffff8111156200036f57600080fd5b6200037d86828701620002b9565b9150509250925092565b600062000393620003a6565b9050620003a1828262000452565b919050565b6000604051905090565b600067ffffffffffffffff821115620003ce57620003cd620004b7565b5b620003d982620004e6565b9050602081019050919050565b60005b8381101562000406578082015181840152602081019050620003e9565b8381111562000416576000848401525b50505050565b600060028204905060018216806200043557607f821691505b602082108114156200044c576200044b62000488565b5b50919050565b6200045d82620004e6565b810181811067ffffffffffffffff821117156200047f576200047e620004b7565b5b80604052505050565b7f4e487b7100000000000000000000000000000000000000000000000000000000600052602260045260246000fd5b7f4e487b7100000000000000000000000000000000000000000000000000000000600052604160045260246000fd5b6000601f19601f8301169050919050565b614f6c80620005076000396000f3fe608060405234801561001057600080fd5b506004361061014c5760003560e01c806375c69c3e116100c3578063da0544aa1161007c578063da0544aa14610387578063e985e9c5146103b7578063f242432a146103e7578063f2fde38b14610403578063f5298aca1461041f578063f8e76cc01461043b5761014c565b806375c69c3e146102db5780638da5cb5b146102f7578063921a575f1461031557806395d89b411461033157806398c252ed1461034f578063a22cb4651461036b5761014c565b80632693ebf2116101155780632693ebf21461021b5780632eb2c2d61461024b57806334b974751461026757806349278a04146102855780634e1273f4146102a1578063715018a6146102d15761014c565b8062fdd58e1461015157806301ffc9a71461018157806306fdde03146101b15780630e89341c146101cf5780631383a043146101ff575b600080fd5b61016b60048036038101906101669190613547565b61046b565b6040516101789190614211565b60405180910390f35b61019b60048036038101906101969190613725565b610534565b6040516101a89190613f94565b60405180910390f35b6101b9610616565b6040516101c69190613faf565b60405180910390f35b6101e960048036038101906101e49190613777565b6106a4565b6040516101f69190613faf565b60405180910390f35b610219600480360381019061021491906136b9565b610738565b005b61023560048036038101906102309190613777565b610af9565b6040516102429190614211565b60405180910390f35b610265600480360381019061026091906133bd565b610b11565b005b61026f610bf5565b60405161027c9190613d27565b60405180910390f35b61029f600480360381019061029a91906135d2565b610c1b565b005b6102bb60048036038101906102b6919061364d565b610e8b565b6040516102c89190613ef6565b60405180910390f35b6102d961103c565b005b6102f560048036038101906102f09190613358565b6110c4565b005b6102ff611184565b60405161030c9190613d27565b60405180910390f35b61032f600480360381019061032a9190613583565b6111ae565b005b61033961131a565b6040516103469190613faf565b60405180910390f35b610369600480360381019061036491906137a0565b6113a8565b005b6103856004803603810190610380919061350b565b611513565b005b6103a1600480360381019061039c9190613777565b611529565b6040516103ae9190613faf565b60405180910390f35b6103d160048036038101906103cc9190613381565b6115c9565b6040516103de9190613f94565b60405180910390f35b61040160048036038101906103fc919061347c565b61165d565b005b61041d60048036038101906104189190613358565b611741565b005b61043960048036038101906104349190613583565b611839565b005b61045560048036038101906104509190613777565b6119c8565b6040516104629190613f94565b60405180910390f35b60008073ffffffffffffffffffffffffffffffffffffffff168373ffffffffffffffffffffffffffffffffffffffff1614156104dc576040517f08c379a00000000000000000000000000000000000000000000000000000000081526004016104d390614031565b60405180910390fd5b60008083815260200190815260200160002060008473ffffffffffffffffffffffffffffffffffffffff1673ffffffffffffffffffffffffffffffffffffffff16815260200190815260200160002054905092915050565b60007fd9b67a26000000000000000000000000000000000000000000000000000000007bffffffffffffffffffffffffffffffffffffffffffffffffffffffff1916827bffffffffffffffffffffffffffffffffffffffffffffffffffffffff191614806105ff57507f0e89341c000000000000000000000000000000000000000000000000000000007bffffffffffffffffffffffffffffffffffffffffffffffffffffffff1916827bffffffffffffffffffffffffffffffffffffffffffffffffffffffff1916145b8061060f575061060e826119e8565b5b9050919050565b60048054610623906145b2565b80601f016020809104026020016040519081016040528092919081815260200182805461064f906145b2565b801561069c5780601f106106715761010080835404028352916020019161069c565b820191906000526020600020905b81548152906001019060200180831161067f57829003601f168201915b505050505081565b6060600280546106b3906145b2565b80601f01602080910402602001604051908101604052809291908181526020018280546106df906145b2565b801561072c5780601f106107015761010080835404028352916020019161072c565b820191906000526020600020905b81548152906001019060200180831161070f57829003601f168201915b50505050509050919050565b6000825167ffffffffffffffff81111561077b577f4e487b7100000000000000000000000000000000000000000000000000000000600052604160045260246000fd5b6040519080825280602002602001820160405280156107a95781602001602082028036833780820191505090505b5090506000805b84518110156108c757600860008683815181106107f6577f4e487b7100000000000000000000000000000000000000000000000000000000600052603260045260246000fd5b6020026020010151815260200190815260200160002060009054906101000a900460ff16156108b457848181518110610858577f4e487b7100000000000000000000000000000000000000000000000000000000600052603260045260246000fd5b6020026020010151838381518110610899577f4e487b7100000000000000000000000000000000000000000000000000000000600052603260045260246000fd5b60200260200101818152505081806108b090614615565b9250505b80806108bf90614615565b9150506107b0565b50825182511461090c576040517f08c379a000000000000000000000000000000000000000000000000000000000815260040161090390614011565b60405180910390fd5b61098b338385600067ffffffffffffffff811115610953577f4e487b7100000000000000000000000000000000000000000000000000000000600052604160045260246000fd5b6040519080825280601f01601f1916602001820160405280156109855781602001600182028036833780820191505090505b50611a52565b60005b8251811015610aa0578381815181106109d0577f4e487b7100000000000000000000000000000000000000000000000000000000600052603260045260246000fd5b602002602001015160076000878481518110610a15577f4e487b7100000000000000000000000000000000000000000000000000000000600052603260045260246000fd5b6020026020010151815260200190815260200160002054610a3691906143e7565b60076000878481518110610a73577f4e487b7100000000000000000000000000000000000000000000000000000000600052603260045260246000fd5b60200260200101518152602001908152602001600020819055508080610a9890614615565b91505061098e565b503373ffffffffffffffffffffffffffffffffffffffff167fe24f1801c2ac8a1892aa815a36324c06fec0ce1e64519d9bc67daf13ec78ade9838542604051610aeb93929190613f4f565b60405180910390a250505050565b60076020528060005260406000206000915090505481565b610b19611ccb565b73ffffffffffffffffffffffffffffffffffffffff16610b37611184565b73ffffffffffffffffffffffffffffffffffffffff1614610b8d576040517f08c379a0000000000000000000000000000000000000000000000000000000008152600401610b8490614111565b60405180910390fd5b610b9a8585858585611cd3565b8473ffffffffffffffffffffffffffffffffffffffff167f39dc95d1084fddaad4a677a60a79b9013792a58c4c16927af09ffaffebf4344985858542604051610be69493929190613e04565b60405180910390a25050505050565b600660009054906101000a900473ffffffffffffffffffffffffffffffffffffffff1681565b600660009054906101000a900473ffffffffffffffffffffffffffffffffffffffff1673ffffffffffffffffffffffffffffffffffffffff163373ffffffffffffffffffffffffffffffffffffffff1614610cab576040517f08c379a0000000000000000000000000000000000000000000000000000000008152600401610ca2906141b1565b60405180910390fd5b6000610d4182600a8054610cbe906145b2565b80601f0160208091040260200160405190810160405280929190818152602001828054610cea906145b2565b8015610d375780601f10610d0c57610100808354040283529160200191610d37565b820191906000526020600020905b815481529060010190602001808311610d1a57829003601f168201915b5050505050612041565b9050610dc2858585600067ffffffffffffffff811115610d8a577f4e487b7100000000000000000000000000000000000000000000000000000000600052604160045260246000fd5b6040519080825280601f01601f191660200182016040528015610dbc5781602001600182028036833780820191505090505b5061210c565b610dcc84826122bd565b826007600086815260200190815260200160002054610deb91906143e7565b600760008681526020019081526020016000208190555060016008600086815260200190815260200160002060006101000a81548160ff0219169083151502179055503373ffffffffffffffffffffffffffffffffffffffff167fbe840228dc081eedd297dd44a2b250baf65584a9ee770782765db9988e3f68e08686864287604051610e7c959493929190613e9c565b60405180910390a25050505050565b60608151835114610ed1576040517f08c379a0000000000000000000000000000000000000000000000000000000008152600401610ec890614191565b60405180910390fd5b6000835167ffffffffffffffff811115610f14577f4e487b7100000000000000000000000000000000000000000000000000000000600052604160045260246000fd5b604051908082528060200260200182016040528015610f425781602001602082028036833780820191505090505b50905060005b845181101561103157610fdb858281518110610f8d577f4e487b7100000000000000000000000000000000000000000000000000000000600052603260045260246000fd5b6020026020010151858381518110610fce577f4e487b7100000000000000000000000000000000000000000000000000000000600052603260045260246000fd5b602002602001015161046b565b828281518110611014577f4e487b7100000000000000000000000000000000000000000000000000000000600052603260045260246000fd5b6020026020010181815250508061102a90614615565b9050610f48565b508091505092915050565b611044611ccb565b73ffffffffffffffffffffffffffffffffffffffff16611062611184565b73ffffffffffffffffffffffffffffffffffffffff16146110b8576040517f08c379a00000000000000000000000000000000000000000000000000000000081526004016110af90614111565b60405180910390fd5b6110c260006122e9565b565b6110cc611ccb565b73ffffffffffffffffffffffffffffffffffffffff166110ea611184565b73ffffffffffffffffffffffffffffffffffffffff1614611140576040517f08c379a000000000000000000000000000000000000000000000000000000000815260040161113790614111565b60405180910390fd5b80600660006101000a81548173ffffffffffffffffffffffffffffffffffffffff021916908373ffffffffffffffffffffffffffffffffffffffff16021790555050565b6000600360009054906101000a900473ffffffffffffffffffffffffffffffffffffffff16905090565b6008600083815260200190815260200160002060009054906101000a900460ff1661120e576040517f08c379a000000000000000000000000000000000000000000000000000000000815260040161120590614091565b60405180910390fd5b61128d838383600067ffffffffffffffff811115611255577f4e487b7100000000000000000000000000000000000000000000000000000000600052604160045260246000fd5b6040519080825280601f01601f1916602001820160405280156112875781602001600182028036833780820191505090505b5061210c565b8273ffffffffffffffffffffffffffffffffffffffff167fa0b07e31f702d2ee3e0bc66b7c7429c0c747e3840848dc13ecf951fa56310e838383426040516112d793929190614255565b60405180910390a28060076000848152602001908152602001600020546112fe91906143e7565b6007600084815260200190815260200160002081905550505050565b60058054611327906145b2565b80601f0160208091040260200160405190810160405280929190818152602001828054611353906145b2565b80156113a05780601f10611375576101008083540402835291602001916113a0565b820191906000526020600020905b81548152906001019060200180831161138357829003601f168201915b505050505081565b6008600083815260200190815260200160002060009054906101000a900460ff16611408576040517f08c379a00000000000000000000000000000000000000000000000000000000081526004016113ff90614091565b60405180910390fd5b611487338383600067ffffffffffffffff81111561144f577f4e487b7100000000000000000000000000000000000000000000000000000000600052604160045260246000fd5b6040519080825280601f01601f1916602001820160405280156114815781602001600182028036833780820191505090505b5061210c565b3373ffffffffffffffffffffffffffffffffffffffff167fa0b07e31f702d2ee3e0bc66b7c7429c0c747e3840848dc13ecf951fa56310e838383426040516114d193929190614255565b60405180910390a28060076000848152602001908152602001600020546114f891906143e7565b60076000848152602001908152602001600020819055505050565b61152561151e611ccb565b83836123af565b5050565b60096020528060005260406000206000915090508054611548906145b2565b80601f0160208091040260200160405190810160405280929190818152602001828054611574906145b2565b80156115c15780601f10611596576101008083540402835291602001916115c1565b820191906000526020600020905b8154815290600101906020018083116115a457829003601f168201915b505050505081565b6000600160008473ffffffffffffffffffffffffffffffffffffffff1673ffffffffffffffffffffffffffffffffffffffff16815260200190815260200160002060008373ffffffffffffffffffffffffffffffffffffffff1673ffffffffffffffffffffffffffffffffffffffff16815260200190815260200160002060009054906101000a900460ff16905092915050565b611665611ccb565b73ffffffffffffffffffffffffffffffffffffffff16611683611184565b73ffffffffffffffffffffffffffffffffffffffff16146116d9576040517f08c379a00000000000000000000000000000000000000000000000000000000081526004016116d090614111565b60405180910390fd5b6116e6858585858561251c565b8473ffffffffffffffffffffffffffffffffffffffff167f1a8f89b1740d7fdde2140216b1032242f70db9562d70862f3ece8dc841ad649d858585426040516117329493929190613e57565b60405180910390a25050505050565b611749611ccb565b73ffffffffffffffffffffffffffffffffffffffff16611767611184565b73ffffffffffffffffffffffffffffffffffffffff16146117bd576040517f08c379a00000000000000000000000000000000000000000000000000000000081526004016117b490614111565b60405180910390fd5b600073ffffffffffffffffffffffffffffffffffffffff168173ffffffffffffffffffffffffffffffffffffffff16141561182d576040517f08c379a000000000000000000000000000000000000000000000000000000000815260040161182490614051565b60405180910390fd5b611836816122e9565b50565b8273ffffffffffffffffffffffffffffffffffffffff163373ffffffffffffffffffffffffffffffffffffffff1614806118a55750611876611184565b73ffffffffffffffffffffffffffffffffffffffff163373ffffffffffffffffffffffffffffffffffffffff16145b6118e4576040517f08c379a00000000000000000000000000000000000000000000000000000000081526004016118db90614131565b60405180910390fd5b600181600760008581526020019081526020016000205461190591906144c8565b1015611946576040517f08c379a000000000000000000000000000000000000000000000000000000000815260040161193d90614151565b60405180910390fd5b6119518383836127b8565b80600760008481526020019081526020016000205461197091906144c8565b508273ffffffffffffffffffffffffffffffffffffffff167ff66af19dab98d3f8340488283758d604d15111782386a6fb1caaa35a3d518dc38383426040516119bb93929190614255565b60405180910390a2505050565b60086020528060005260406000206000915054906101000a900460ff1681565b60007f01ffc9a7000000000000000000000000000000000000000000000000000000007bffffffffffffffffffffffffffffffffffffffffffffffffffffffff1916827bffffffffffffffffffffffffffffffffffffffffffffffffffffffff1916149050919050565b600073ffffffffffffffffffffffffffffffffffffffff168473ffffffffffffffffffffffffffffffffffffffff161415611ac2576040517f08c379a0000000000000000000000000000000000000000000000000000000008152600401611ab9906141f1565b60405180910390fd5b8151835114611b06576040517f08c379a0000000000000000000000000000000000000000000000000000000008152600401611afd906141d1565b60405180910390fd5b6000611b10611ccb565b9050611b21816000878787876129ff565b60005b8451811015611c2657838181518110611b66577f4e487b7100000000000000000000000000000000000000000000000000000000600052603260045260246000fd5b6020026020010151600080878481518110611baa577f4e487b7100000000000000000000000000000000000000000000000000000000600052603260045260246000fd5b6020026020010151815260200190815260200160002060008873ffffffffffffffffffffffffffffffffffffffff1673ffffffffffffffffffffffffffffffffffffffff1681526020019081526020016000206000828254611c0c91906143e7565b925050819055508080611c1e90614615565b915050611b24565b508473ffffffffffffffffffffffffffffffffffffffff16600073ffffffffffffffffffffffffffffffffffffffff168273ffffffffffffffffffffffffffffffffffffffff167f4a39dc06d4c0dbc64b70af90fd698a233a518aa5d07e595d983b8c0526c8f7fb8787604051611c9e929190613f18565b60405180910390a4611cb581600087878787612a07565b611cc481600087878787612a0f565b5050505050565b600033905090565b8151835114611d17576040517f08c379a0000000000000000000000000000000000000000000000000000000008152600401611d0e906141d1565b60405180910390fd5b600073ffffffffffffffffffffffffffffffffffffffff168473ffffffffffffffffffffffffffffffffffffffff161415611d87576040517f08c379a0000000000000000000000000000000000000000000000000000000008152600401611d7e906140b1565b60405180910390fd5b6000611d91611ccb565b9050611da18187878787876129ff565b60005b8451811015611f9e576000858281518110611de8577f4e487b7100000000000000000000000000000000000000000000000000000000600052603260045260246000fd5b602002602001015190506000858381518110611e2d577f4e487b7100000000000000000000000000000000000000000000000000000000600052603260045260246000fd5b60200260200101519050600080600084815260200190815260200160002060008b73ffffffffffffffffffffffffffffffffffffffff1673ffffffffffffffffffffffffffffffffffffffff16815260200190815260200160002054905081811015611ece576040517f08c379a0000000000000000000000000000000000000000000000000000000008152600401611ec5906140f1565b60405180910390fd5b81810360008085815260200190815260200160002060008c73ffffffffffffffffffffffffffffffffffffffff1673ffffffffffffffffffffffffffffffffffffffff168152602001908152602001600020819055508160008085815260200190815260200160002060008b73ffffffffffffffffffffffffffffffffffffffff1673ffffffffffffffffffffffffffffffffffffffff1681526020019081526020016000206000828254611f8391906143e7565b9250508190555050505080611f9790614615565b9050611da4565b508473ffffffffffffffffffffffffffffffffffffffff168673ffffffffffffffffffffffffffffffffffffffff168273ffffffffffffffffffffffffffffffffffffffff167f4a39dc06d4c0dbc64b70af90fd698a233a518aa5d07e595d983b8c0526c8f7fb8787604051612015929190613f18565b60405180910390a461202b818787878787612a07565b612039818787878787612a0f565b505050505050565b606060008284604051602001612058929190613c79565b604051602081830303815290604052905060606040518060400160405280600581526020017f426c61636b000000000000000000000000000000000000000000000000000000815250905060006120d9866120b285612bf6565b846040516020016120c593929190613ca8565b604051602081830303815290604052612bf6565b90506000816040516020016120ee9190613d05565b60405160208183030381529060405290508094505050505092915050565b600073ffffffffffffffffffffffffffffffffffffffff168473ffffffffffffffffffffffffffffffffffffffff16141561217c576040517f08c379a0000000000000000000000000000000000000000000000000000000008152600401612173906141f1565b60405180910390fd5b6000612186611ccb565b9050600061219385612d80565b905060006121a085612d80565b90506121b1836000898585896129ff565b8460008088815260200190815260200160002060008973ffffffffffffffffffffffffffffffffffffffff1673ffffffffffffffffffffffffffffffffffffffff168152602001908152602001600020600082825461221091906143e7565b925050819055508673ffffffffffffffffffffffffffffffffffffffff16600073ffffffffffffffffffffffffffffffffffffffff168473ffffffffffffffffffffffffffffffffffffffff167fc3d58168c5ae7397731d063d5bbf3d657854427343f4c083240f7aacaa2d0f62898960405161228e92919061422c565b60405180910390a46122a583600089858589612a07565b6122b483600089898989612e46565b50505050505050565b806009600084815260200190815260200160002090805190602001906122e4929190613050565b505050565b6000600360009054906101000a900473ffffffffffffffffffffffffffffffffffffffff16905081600360006101000a81548173ffffffffffffffffffffffffffffffffffffffff021916908373ffffffffffffffffffffffffffffffffffffffff1602179055508173ffffffffffffffffffffffffffffffffffffffff168173ffffffffffffffffffffffffffffffffffffffff167f8be0079c531659141344cd1fd0a4f28419497f9722a3daafe3b4186f6b6457e060405160405180910390a35050565b8173ffffffffffffffffffffffffffffffffffffffff168373ffffffffffffffffffffffffffffffffffffffff16141561241e576040517f08c379a000000000000000000000000000000000000000000000000000000000815260040161241590614171565b60405180910390fd5b80600160008573ffffffffffffffffffffffffffffffffffffffff1673ffffffffffffffffffffffffffffffffffffffff16815260200190815260200160002060008473ffffffffffffffffffffffffffffffffffffffff1673ffffffffffffffffffffffffffffffffffffffff16815260200190815260200160002060006101000a81548160ff0219169083151502179055508173ffffffffffffffffffffffffffffffffffffffff168373ffffffffffffffffffffffffffffffffffffffff167f17307eab39ab6107e8899845ad3d59bd9653f200f220920489ca2b5937696c318360405161250f9190613f94565b60405180910390a3505050565b600073ffffffffffffffffffffffffffffffffffffffff168473ffffffffffffffffffffffffffffffffffffffff16141561258c576040517f08c379a0000000000000000000000000000000000000000000000000000000008152600401612583906140b1565b60405180910390fd5b6000612596611ccb565b905060006125a385612d80565b905060006125b085612d80565b90506125c08389898585896129ff565b600080600088815260200190815260200160002060008a73ffffffffffffffffffffffffffffffffffffffff1673ffffffffffffffffffffffffffffffffffffffff16815260200190815260200160002054905085811015612657576040517f08c379a000000000000000000000000000000000000000000000000000000000815260040161264e906140f1565b60405180910390fd5b85810360008089815260200190815260200160002060008b73ffffffffffffffffffffffffffffffffffffffff1673ffffffffffffffffffffffffffffffffffffffff168152602001908152602001600020819055508560008089815260200190815260200160002060008a73ffffffffffffffffffffffffffffffffffffffff1673ffffffffffffffffffffffffffffffffffffffff168152602001908152602001600020600082825461270c91906143e7565b925050819055508773ffffffffffffffffffffffffffffffffffffffff168973ffffffffffffffffffffffffffffffffffffffff168573ffffffffffffffffffffffffffffffffffffffff167fc3d58168c5ae7397731d063d5bbf3d657854427343f4c083240f7aacaa2d0f628a8a60405161278992919061422c565b60405180910390a461279f848a8a86868a612a07565b6127ad848a8a8a8a8a612e46565b505050505050505050565b600073ffffffffffffffffffffffffffffffffffffffff168373ffffffffffffffffffffffffffffffffffffffff161415612828576040517f08c379a000000000000000000000000000000000000000000000000000000000815260040161281f906140d1565b60405180910390fd5b6000612832611ccb565b9050600061283f84612d80565b9050600061284c84612d80565b905061286c838760008585604051806020016040528060008152506129ff565b600080600087815260200190815260200160002060008873ffffffffffffffffffffffffffffffffffffffff1673ffffffffffffffffffffffffffffffffffffffff16815260200190815260200160002054905084811015612903576040517f08c379a00000000000000000000000000000000000000000000000000000000081526004016128fa90614071565b60405180910390fd5b84810360008088815260200190815260200160002060008973ffffffffffffffffffffffffffffffffffffffff1673ffffffffffffffffffffffffffffffffffffffff16815260200190815260200160002081905550600073ffffffffffffffffffffffffffffffffffffffff168773ffffffffffffffffffffffffffffffffffffffff168573ffffffffffffffffffffffffffffffffffffffff167fc3d58168c5ae7397731d063d5bbf3d657854427343f4c083240f7aacaa2d0f6289896040516129d092919061422c565b60405180910390a46129f684886000868660405180602001604052806000815250612a07565b50505050505050565b505050505050565b505050505050565b612a2e8473ffffffffffffffffffffffffffffffffffffffff1661302d565b15612bee578373ffffffffffffffffffffffffffffffffffffffff1663bc197c8187878686866040518663ffffffff1660e01b8152600401612a74959493929190613d42565b602060405180830381600087803b158015612a8e57600080fd5b505af1925050508015612abf57506040513d601f19601f82011682018060405250810190612abc919061374e565b60015b612b6557612acb61471a565b806308c379a01415612b285750612ae0614e04565b80612aeb5750612b2a565b806040517f08c379a0000000000000000000000000000000000000000000000000000000008152600401612b1f9190613faf565b60405180910390fd5b505b6040517f08c379a0000000000000000000000000000000000000000000000000000000008152600401612b5c90613fd1565b60405180910390fd5b63bc197c8160e01b7bffffffffffffffffffffffffffffffffffffffffffffffffffffffff1916817bffffffffffffffffffffffffffffffffffffffffffffffffffffffff191614612bec576040517f08c379a0000000000000000000000000000000000000000000000000000000008152600401612be390613ff1565b60405180910390fd5b505b505050505050565b6060600082511415612c1957604051806020016040528060008152509050612d7b565b6000604051806060016040528060408152602001614ef76040913990506000600360028551612c4891906143e7565b612c52919061443d565b6004612c5e919061446e565b67ffffffffffffffff811115612c9d577f4e487b7100000000000000000000000000000000000000000000000000000000600052604160045260246000fd5b6040519080825280601f01601f191660200182016040528015612ccf5781602001600182028036833780820191505090505b509050600182016020820185865187015b80821015612d3b576003820191508151603f8160121c168501518453600184019350603f81600c1c168501518453600184019350603f8160061c168501518453600184019350603f8116850151845360018401935050612ce0565b5050600386510660018114612d575760028114612d6a57612d72565b603d6001830353603d6002830353612d72565b603d60018303535b50505080925050505b919050565b60606000600167ffffffffffffffff811115612dc5577f4e487b7100000000000000000000000000000000000000000000000000000000600052604160045260246000fd5b604051908082528060200260200182016040528015612df35781602001602082028036833780820191505090505b5090508281600081518110612e31577f4e487b7100000000000000000000000000000000000000000000000000000000600052603260045260246000fd5b60200260200101818152505080915050919050565b612e658473ffffffffffffffffffffffffffffffffffffffff1661302d565b15613025578373ffffffffffffffffffffffffffffffffffffffff1663f23a6e6187878686866040518663ffffffff1660e01b8152600401612eab959493929190613daa565b602060405180830381600087803b158015612ec557600080fd5b505af1925050508015612ef657506040513d601f19601f82011682018060405250810190612ef3919061374e565b60015b612f9c57612f0261471a565b806308c379a01415612f5f5750612f17614e04565b80612f225750612f61565b806040517f08c379a0000000000000000000000000000000000000000000000000000000008152600401612f569190613faf565b60405180910390fd5b505b6040517f08c379a0000000000000000000000000000000000000000000000000000000008152600401612f9390613fd1565b60405180910390fd5b63f23a6e6160e01b7bffffffffffffffffffffffffffffffffffffffffffffffffffffffff1916817bffffffffffffffffffffffffffffffffffffffffffffffffffffffff191614613023576040517f08c379a000000000000000000000000000000000000000000000000000000000815260040161301a90613ff1565b60405180910390fd5b505b505050505050565b6000808273ffffffffffffffffffffffffffffffffffffffff163b119050919050565b82805461305c906145b2565b90600052602060002090601f01602090048101928261307e57600085556130c5565b82601f1061309757805160ff19168380011785556130c5565b828001600101855582156130c5579182015b828111156130c45782518255916020019190600101906130a9565b5b5090506130d291906130d6565b5090565b5b808211156130ef5760008160009055506001016130d7565b5090565b6000613106613101846142b1565b61428c565b9050808382526020820190508285602086028201111561312557600080fd5b60005b85811015613155578161313b8882613247565b845260208401935060208301925050600181019050613128565b5050509392505050565b600061317261316d846142dd565b61428c565b9050808382526020820190508285602086028201111561319157600080fd5b60005b858110156131c157816131a78882613343565b845260208401935060208301925050600181019050613194565b5050509392505050565b60006131de6131d984614309565b61428c565b9050828152602081018484840111156131f657600080fd5b613201848285614570565b509392505050565b600061321c6132178461433a565b61428c565b90508281526020810184848401111561323457600080fd5b61323f848285614570565b509392505050565b60008135905061325681614e9a565b92915050565b600082601f83011261326d57600080fd5b813561327d8482602086016130f3565b91505092915050565b600082601f83011261329757600080fd5b81356132a784826020860161315f565b91505092915050565b6000813590506132bf81614eb1565b92915050565b6000813590506132d481614ec8565b92915050565b6000815190506132e981614ec8565b92915050565b600082601f83011261330057600080fd5b81356133108482602086016131cb565b91505092915050565b600082601f83011261332a57600080fd5b813561333a848260208601613209565b91505092915050565b60008135905061335281614edf565b92915050565b60006020828403121561336a57600080fd5b600061337884828501613247565b91505092915050565b6000806040838503121561339457600080fd5b60006133a285828601613247565b92505060206133b385828601613247565b9150509250929050565b600080600080600060a086880312156133d557600080fd5b60006133e388828901613247565b95505060206133f488828901613247565b945050604086013567ffffffffffffffff81111561341157600080fd5b61341d88828901613286565b935050606086013567ffffffffffffffff81111561343a57600080fd5b61344688828901613286565b925050608086013567ffffffffffffffff81111561346357600080fd5b61346f888289016132ef565b9150509295509295909350565b600080600080600060a0868803121561349457600080fd5b60006134a288828901613247565b95505060206134b388828901613247565b94505060406134c488828901613343565b93505060606134d588828901613343565b925050608086013567ffffffffffffffff8111156134f257600080fd5b6134fe888289016132ef565b9150509295509295909350565b6000806040838503121561351e57600080fd5b600061352c85828601613247565b925050602061353d858286016132b0565b9150509250929050565b6000806040838503121561355a57600080fd5b600061356885828601613247565b925050602061357985828601613343565b9150509250929050565b60008060006060848603121561359857600080fd5b60006135a686828701613247565b93505060206135b786828701613343565b92505060406135c886828701613343565b9150509250925092565b600080600080608085870312156135e857600080fd5b60006135f687828801613247565b945050602061360787828801613343565b935050604061361887828801613343565b925050606085013567ffffffffffffffff81111561363557600080fd5b61364187828801613319565b91505092959194509250565b6000806040838503121561366057600080fd5b600083013567ffffffffffffffff81111561367a57600080fd5b6136868582860161325c565b925050602083013567ffffffffffffffff8111156136a357600080fd5b6136af85828601613286565b9150509250929050565b600080604083850312156136cc57600080fd5b600083013567ffffffffffffffff8111156136e657600080fd5b6136f285828601613286565b925050602083013567ffffffffffffffff81111561370f57600080fd5b61371b85828601613286565b9150509250929050565b60006020828403121561373757600080fd5b6000613745848285016132c5565b91505092915050565b60006020828403121561376057600080fd5b600061376e848285016132da565b91505092915050565b60006020828403121561378957600080fd5b600061379784828501613343565b91505092915050565b600080604083850312156137b357600080fd5b60006137c185828601613343565b92505060206137d285828601613343565b9150509250929050565b60006137e88383613c5b565b60208301905092915050565b6137fd816144fc565b82525050565b600061380e8261437b565b61381881856143a9565b93506138238361436b565b8060005b8381101561385457815161383b88826137dc565b97506138468361439c565b925050600181019050613827565b5085935050505092915050565b61386a8161450e565b82525050565b600061387b82614386565b61388581856143ba565b935061389581856020860161457f565b61389e8161473c565b840191505092915050565b60006138b482614391565b6138be81856143cb565b93506138ce81856020860161457f565b6138d78161473c565b840191505092915050565b60006138ed82614391565b6138f781856143dc565b935061390781856020860161457f565b80840191505092915050565b60006139206034836143cb565b915061392b8261475a565b604082019050919050565b60006139436028836143cb565b915061394e826147a9565b604082019050919050565b60006139666036836143cb565b9150613971826147f8565b604082019050919050565b6000613989602b836143cb565b915061399482614847565b604082019050919050565b60006139ac6026836143cb565b91506139b782614896565b604082019050919050565b60006139cf6024836143cb565b91506139da826148e5565b604082019050919050565b60006139f26062836143dc565b91506139fd82614934565b606282019050919050565b6000613a15600d836143dc565b9150613a20826149cf565b600d82019050919050565b6000613a38602d836143cb565b9150613a43826149f8565b604082019050919050565b6000613a5b6025836143cb565b9150613a6682614a47565b604082019050919050565b6000613a7e6023836143cb565b9150613a8982614a96565b604082019050919050565b6000613aa1602a836143cb565b9150613aac82614ae5565b604082019050919050565b6000613ac46020836143cb565b9150613acf82614b34565b602082019050919050565b6000613ae76016836143cb565b9150613af282614b5d565b602082019050919050565b6000613b0a600a836143dc565b9150613b1582614b86565b600a82019050919050565b6000613b2d601d836143dc565b9150613b3882614baf565b601d82019050919050565b6000613b506020836143cb565b9150613b5b82614bd8565b602082019050919050565b6000613b736029836143cb565b9150613b7e82614c01565b604082019050919050565b6000613b966029836143cb565b9150613ba182614c50565b604082019050919050565b6000613bb9605a836143dc565b9150613bc482614c9f565b605a82019050919050565b6000613bdc601d836143cb565b9150613be782614d14565b602082019050919050565b6000613bff6028836143cb565b9150613c0a82614d3d565b604082019050919050565b6000613c226021836143cb565b9150613c2d82614d8c565b604082019050919050565b6000613c456004836143dc565b9150613c5082614ddb565b600482019050919050565b613c6481614566565b82525050565b613c7381614566565b82525050565b6000613c8582856138e2565b9150613c9182846138e2565b9150613c9c82613a08565b91508190509392505050565b6000613cb382613afd565b9150613cbf82866138e2565b9150613cca82613bac565b9150613cd682856138e2565b9150613ce1826139e5565b9150613ced82846138e2565b9150613cf882613c38565b9150819050949350505050565b6000613d1082613b20565b9150613d1c82846138e2565b915081905092915050565b6000602082019050613d3c60008301846137f4565b92915050565b600060a082019050613d5760008301886137f4565b613d6460208301876137f4565b8181036040830152613d768186613803565b90508181036060830152613d8a8185613803565b90508181036080830152613d9e8184613870565b90509695505050505050565b600060a082019050613dbf60008301886137f4565b613dcc60208301876137f4565b613dd96040830186613c6a565b613de66060830185613c6a565b8181036080830152613df88184613870565b90509695505050505050565b6000608082019050613e1960008301876137f4565b8181036020830152613e2b8186613803565b90508181036040830152613e3f8185613803565b9050613e4e6060830184613c6a565b95945050505050565b6000608082019050613e6c60008301876137f4565b613e796020830186613c6a565b613e866040830185613c6a565b613e936060830184613c6a565b95945050505050565b600060a082019050613eb160008301886137f4565b613ebe6020830187613c6a565b613ecb6040830186613c6a565b613ed86060830185613c6a565b8181036080830152613eea81846138a9565b90509695505050505050565b60006020820190508181036000830152613f108184613803565b905092915050565b60006040820190508181036000830152613f328185613803565b90508181036020830152613f468184613803565b90509392505050565b60006060820190508181036000830152613f698186613803565b90508181036020830152613f7d8185613803565b9050613f8c6040830184613c6a565b949350505050565b6000602082019050613fa96000830184613861565b92915050565b60006020820190508181036000830152613fc981846138a9565b905092915050565b60006020820190508181036000830152613fea81613913565b9050919050565b6000602082019050818103600083015261400a81613936565b9050919050565b6000602082019050818103600083015261402a81613959565b9050919050565b6000602082019050818103600083015261404a8161397c565b9050919050565b6000602082019050818103600083015261406a8161399f565b9050919050565b6000602082019050818103600083015261408a816139c2565b9050919050565b600060208201905081810360008301526140aa81613a2b565b9050919050565b600060208201905081810360008301526140ca81613a4e565b9050919050565b600060208201905081810360008301526140ea81613a71565b9050919050565b6000602082019050818103600083015261410a81613a94565b9050919050565b6000602082019050818103600083015261412a81613ab7565b9050919050565b6000602082019050818103600083015261414a81613ada565b9050919050565b6000602082019050818103600083015261416a81613b43565b9050919050565b6000602082019050818103600083015261418a81613b66565b9050919050565b600060208201905081810360008301526141aa81613b89565b9050919050565b600060208201905081810360008301526141ca81613bcf565b9050919050565b600060208201905081810360008301526141ea81613bf2565b9050919050565b6000602082019050818103600083015261420a81613c15565b9050919050565b60006020820190506142266000830184613c6a565b92915050565b60006040820190506142416000830185613c6a565b61424e6020830184613c6a565b9392505050565b600060608201905061426a6000830186613c6a565b6142776020830185613c6a565b6142846040830184613c6a565b949350505050565b60006142966142a7565b90506142a282826145e4565b919050565b6000604051905090565b600067ffffffffffffffff8211156142cc576142cb6146eb565b5b602082029050602081019050919050565b600067ffffffffffffffff8211156142f8576142f76146eb565b5b602082029050602081019050919050565b600067ffffffffffffffff821115614324576143236146eb565b5b61432d8261473c565b9050602081019050919050565b600067ffffffffffffffff821115614355576143546146eb565b5b61435e8261473c565b9050602081019050919050565b6000819050602082019050919050565b600081519050919050565b600081519050919050565b600081519050919050565b6000602082019050919050565b600082825260208201905092915050565b600082825260208201905092915050565b600082825260208201905092915050565b600081905092915050565b60006143f282614566565b91506143fd83614566565b9250827fffffffffffffffffffffffffffffffffffffffffffffffffffffffffffffffff038211156144325761443161465e565b5b828201905092915050565b600061444882614566565b915061445383614566565b9250826144635761446261468d565b5b828204905092915050565b600061447982614566565b915061448483614566565b9250817fffffffffffffffffffffffffffffffffffffffffffffffffffffffffffffffff04831182151516156144bd576144bc61465e565b5b828202905092915050565b60006144d382614566565b91506144de83614566565b9250828210156144f1576144f061465e565b5b828203905092915050565b600061450782614546565b9050919050565b60008115159050919050565b60007fffffffff0000000000000000000000000000000000000000000000000000000082169050919050565b600073ffffffffffffffffffffffffffffffffffffffff82169050919050565b6000819050919050565b82818337600083830152505050565b60005b8381101561459d578082015181840152602081019050614582565b838111156145ac576000848401525b50505050565b600060028204905060018216806145ca57607f821691505b602082108114156145de576145dd6146bc565b5b50919050565b6145ed8261473c565b810181811067ffffffffffffffff8211171561460c5761460b6146eb565b5b80604052505050565b600061462082614566565b91507fffffffffffffffffffffffffffffffffffffffffffffffffffffffffffffffff8214156146535761465261465e565b5b600182019050919050565b7f4e487b7100000000000000000000000000000000000000000000000000000000600052601160045260246000fd5b7f4e487b7100000000000000000000000000000000000000000000000000000000600052601260045260246000fd5b7f4e487b7100000000000000000000000000000000000000000000000000000000600052602260045260246000fd5b7f4e487b7100000000000000000000000000000000000000000000000000000000600052604160045260246000fd5b600060033d11156147395760046000803e61473660005161474d565b90505b90565b6000601f19601f8301169050919050565b60008160e01c9050919050565b7f455243313135353a207472616e7366657220746f206e6f6e204552433131353560008201527f526563656976657220696d706c656d656e746572000000000000000000000000602082015250565b7f455243313135353a204552433131353552656365697665722072656a6563746560008201527f6420746f6b656e73000000000000000000000000000000000000000000000000602082015250565b7f4d69736d617463686564206172726179206c656e67746873206f7220736f6d6560008201527f20746f6b656e49647320646f206e6f7420657869737400000000000000000000602082015250565b7f455243313135353a2062616c616e636520717565727920666f7220746865207a60008201527f65726f2061646472657373000000000000000000000000000000000000000000602082015250565b7f4f776e61626c653a206e6577206f776e657220697320746865207a65726f206160008201527f6464726573730000000000000000000000000000000000000000000000000000602082015250565b7f455243313135353a206275726e20616d6f756e7420657863656564732062616c60008201527f616e636500000000000000000000000000000000000000000000000000000000602082015250565b7f222c202261747472696275746573223a205b7b2274726169745f74797065223a60008201527f22526f6c65222c202276616c7565223a225265636569766572227d2c207b227460208201527f726169745f74797065223a224261636b67726f756e64222c202276616c75652260408201527f3a22000000000000000000000000000000000000000000000000000000000000606082015250565b7f3c2f746578743e3c2f7376673e00000000000000000000000000000000000000600082015250565b7f746f6b656e20646f6573206e6f742065786973742c206d696e742073656e646560008201527f7220746f6b656e20666972737400000000000000000000000000000000000000602082015250565b7f455243313135353a207472616e7366657220746f20746865207a65726f20616460008201527f6472657373000000000000000000000000000000000000000000000000000000602082015250565b7f455243313135353a206275726e2066726f6d20746865207a65726f206164647260008201527f6573730000000000000000000000000000000000000000000000000000000000602082015250565b7f455243313135353a20696e73756666696369656e742062616c616e636520666f60008201527f72207472616e7366657200000000000000000000000000000000000000000000602082015250565b7f4f776e61626c653a2063616c6c6572206973206e6f7420746865206f776e6572600082015250565b7f6d757374206265206f776e6572206f6620746f6b656e00000000000000000000600082015250565b7f7b226e616d65223a202200000000000000000000000000000000000000000000600082015250565b7f646174613a6170706c69636174696f6e2f6a736f6e3b6261736536342c000000600082015250565b7f63616e6e6f74206275726e206c6173742072656d61696e696e6720746f6b656e600082015250565b7f455243313135353a2073657474696e6720617070726f76616c2073746174757360008201527f20666f722073656c660000000000000000000000000000000000000000000000602082015250565b7f455243313135353a206163636f756e747320616e6420696473206c656e67746860008201527f206d69736d617463680000000000000000000000000000000000000000000000602082015250565b7f222c20226465736372697074696f6e223a20224120636f6c6c656374696f6e2060008201527f6f66206b6579776f72647320696e2057656233222c2022696d616765223a202260208201527f646174613a696d6167652f7376672b786d6c3b6261736536342c000000000000604082015250565b7f63616c6c6572206973206e6f742052656c61796572436f6e7472616374000000600082015250565b7f455243313135353a2069647320616e6420616d6f756e7473206c656e6774682060008201527f6d69736d61746368000000000000000000000000000000000000000000000000602082015250565b7f455243313135353a206d696e7420746f20746865207a65726f2061646472657360008201527f7300000000000000000000000000000000000000000000000000000000000000602082015250565b7f227d5d7d00000000000000000000000000000000000000000000000000000000600082015250565b600060443d1015614e1457614e97565b614e1c6142a7565b60043d036004823e80513d602482011167ffffffffffffffff82111715614e44575050614e97565b808201805167ffffffffffffffff811115614e625750505050614e97565b80602083010160043d038501811115614e7f575050505050614e97565b614e8e826020018501866145e4565b82955050505050505b90565b614ea3816144fc565b8114614eae57600080fd5b50565b614eba8161450e565b8114614ec557600080fd5b50565b614ed18161451a565b8114614edc57600080fd5b50565b614ee881614566565b8114614ef357600080fd5b5056fe4142434445464748494a4b4c4d4e4f505152535455565758595a6162636465666768696a6b6c6d6e6f707172737475767778797a303132333435363738392b2fa264697066735822122010ab996f859f8df315a8b97dfbca29e7b13eb5112229a6821aa98506121f803364736f6c634300080100333c73766720786d6c6e733d27687474703a2f2f7777772e77332e6f72672f323030302f73766727207072657365727665417370656374526174696f3d27784d696e594d696e206d656574272076696577426f783d273020302033353020333530273e3c7374796c653e2e62617365207b2066696c6c3a2077686974653b20666f6e742d66616d696c793a206d6f6e6f73706163653b20666f6e742d73697a653a20323470783b207d3c2f7374796c653e3c726563742077696474683d273130302527206865696768743d2731303025272066696c6c3d27626c61636b27202f3e3c7465787420783d273530252720793d273530252720636c6173733d27626173652720646f6d696e616e742d626173656c696e653d276d6964646c652720746578742d616e63686f723d276d6964646c65273e",
  "linkReferences": {},
  "deployedLinkReferences": {}
}