{
  "_format": "hh-sol-artifact-1",
  "contractName": "RelayerToken",
  "sourceName": "contracts/RelayerToken.sol",
  "abi": [
    {
      "inputs": [
        {
          "internalType": "string",
          "name": "_name",
          "type": "string"
        },
        {
          "internalType": "string",
          "name": "_symbol",
          "type": "string"
        },
        {
          "internalType": "string",
          "name": "_uri",
          "type": "string"
        }
      ],
      "stateMutability": "nonpayable",
      "type": "constructor"
    },
    {
      "anonymous": false,
      "inputs": [
        {
          "indexed": true,
          "internalType": "address",
          "name": "account",
          "type": "address"
        },
        {
          "indexed": true,
          "internalType": "address",
          "name": "operator",
          "type": "address"
        },
        {
          "indexed": false,
          "internalType": "bool",
          "name": "approved",
          "type": "bool"
        }
      ],
      "name": "ApprovalForAll",
      "type": "event"
    },
    {
      "anonymous": false,
      "inputs": [
        {
          "indexed": true,
          "internalType": "address",
          "name": "previousOwner",
          "type": "address"
        },
        {
          "indexed": true,
          "internalType": "address",
          "name": "newOwner",
          "type": "address"
        }
      ],
      "name": "OwnershipTransferred",
      "type": "event"
    },
    {
      "anonymous": false,
      "inputs": [
        {
          "indexed": true,
          "internalType": "address",
          "name": "from",
          "type": "address"
        },
        {
          "indexed": false,
          "internalType": "address",
          "name": "to",
          "type": "address"
        },
        {
          "indexed": false,
          "internalType": "uint256[]",
          "name": "ids",
          "type": "uint256[]"
        },
        {
          "indexed": false,
          "internalType": "uint256[]",
          "name": "amounts",
          "type": "uint256[]"
        },
        {
          "indexed": false,
          "internalType": "uint256",
          "name": "timestamp",
          "type": "uint256"
        }
      ],
      "name": "RelayerBatchTransfer",
      "type": "event"
    },
    {
      "anonymous": false,
      "inputs": [
        {
          "indexed": true,
          "internalType": "address",
          "name": "from",
          "type": "address"
        },
        {
          "indexed": false,
          "internalType": "uint256",
          "name": "tokenId",
          "type": "uint256"
        },
        {
          "indexed": false,
          "internalType": "uint256",
          "name": "amount",
          "type": "uint256"
        },
        {
          "indexed": false,
          "internalType": "uint256",
          "name": "timestamp",
          "type": "uint256"
        }
      ],
      "name": "RelayerBurn",
      "type": "event"
    },
    {
      "anonymous": false,
      "inputs": [
        {
          "indexed": true,
          "internalType": "address",
          "name": "to",
          "type": "address"
        },
        {
          "indexed": false,
          "internalType": "uint256",
          "name": "tokenId",
          "type": "uint256"
        },
        {
          "indexed": false,
          "internalType": "uint256",
          "name": "amount",
          "type": "uint256"
        },
        {
          "indexed": false,
          "internalType": "string",
          "name": "keyword",
          "type": "string"
        },
        {
          "indexed": false,
          "internalType": "address",
          "name": "_contract",
          "type": "address"
        },
        {
          "indexed": false,
          "internalType": "uint256",
          "name": "timestamp",
          "type": "uint256"
        }
      ],
      "name": "RelayerInitialMint",
      "type": "event"
    },
    {
      "anonymous": false,
      "inputs": [
        {
          "indexed": true,
          "internalType": "address",
          "name": "to",
          "type": "address"
        },
        {
          "indexed": false,
          "internalType": "uint256",
          "name": "tokenId",
          "type": "uint256"
        },
        {
          "indexed": false,
          "internalType": "uint256",
          "name": "amount",
          "type": "uint256"
        },
        {
          "indexed": false,
          "internalType": "uint256",
          "name": "timestamp",
          "type": "uint256"
        }
      ],
      "name": "RelayerMint",
      "type": "event"
    },
    {
      "anonymous": false,
      "inputs": [
        {
          "indexed": true,
          "internalType": "address",
          "name": "from",
          "type": "address"
        },
        {
          "indexed": false,
          "internalType": "address",
          "name": "to",
          "type": "address"
        },
        {
          "indexed": false,
          "internalType": "uint256",
          "name": "id",
          "type": "uint256"
        },
        {
          "indexed": false,
          "internalType": "uint256",
          "name": "amount",
          "type": "uint256"
        },
        {
          "indexed": false,
          "internalType": "uint256",
          "name": "timestamp",
          "type": "uint256"
        }
      ],
      "name": "RelayerTransfer",
      "type": "event"
    },
    {
      "anonymous": false,
      "inputs": [
        {
          "indexed": true,
          "internalType": "address",
          "name": "operator",
          "type": "address"
        },
        {
          "indexed": true,
          "internalType": "address",
          "name": "from",
          "type": "address"
        },
        {
          "indexed": true,
          "internalType": "address",
          "name": "to",
          "type": "address"
        },
        {
          "indexed": false,
          "internalType": "uint256[]",
          "name": "ids",
          "type": "uint256[]"
        },
        {
          "indexed": false,
          "internalType": "uint256[]",
          "name": "values",
          "type": "uint256[]"
        }
      ],
      "name": "TransferBatch",
      "type": "event"
    },
    {
      "anonymous": false,
      "inputs": [
        {
          "indexed": true,
          "internalType": "address",
          "name": "operator",
          "type": "address"
        },
        {
          "indexed": true,
          "internalType": "address",
          "name": "from",
          "type": "address"
        },
        {
          "indexed": true,
          "internalType": "address",
          "name": "to",
          "type": "address"
        },
        {
          "indexed": false,
          "internalType": "uint256",
          "name": "id",
          "type": "uint256"
        },
        {
          "indexed": false,
          "internalType": "uint256",
          "name": "value",
          "type": "uint256"
        }
      ],
      "name": "TransferSingle",
      "type": "event"
    },
    {
      "anonymous": false,
      "inputs": [
        {
          "indexed": false,
          "internalType": "string",
          "name": "value",
          "type": "string"
        },
        {
          "indexed": true,
          "internalType": "uint256",
          "name": "id",
          "type": "uint256"
        }
      ],
      "name": "URI",
      "type": "event"
    },
    {
      "anonymous": false,
      "inputs": [
        {
          "indexed": true,
          "internalType": "uint256",
          "name": "tokenId",
          "type": "uint256"
        },
        {
          "indexed": false,
          "internalType": "string",
          "name": "avatar",
          "type": "string"
        }
      ],
      "name": "UpdateTokenAvatar",
      "type": "event"
    },
    {
      "anonymous": false,
      "inputs": [
        {
          "indexed": true,
          "internalType": "uint256",
          "name": "tokenId",
          "type": "uint256"
        },
        {
          "indexed": false,
          "internalType": "string",
          "name": "desc",
          "type": "string"
        }
      ],
      "name": "UpdateTokenDescription",
      "type": "event"
    },
    {
      "anonymous": false,
      "inputs": [
        {
          "indexed": true,
          "internalType": "uint256",
          "name": "tokenId",
          "type": "uint256"
        },
        {
          "indexed": false,
          "internalType": "address",
          "name": "newOwner",
          "type": "address"
        }
      ],
      "name": "UpdateTokenOwner",
      "type": "event"
    },
    {
      "anonymous": false,
      "inputs": [
        {
          "indexed": true,
          "internalType": "uint256",
          "name": "tokenId",
          "type": "uint256"
        },
        {
          "indexed": false,
          "internalType": "string",
          "name": "url",
          "type": "string"
        }
      ],
      "name": "UpdateTokenUrl",
      "type": "event"
    },
    {
      "inputs": [
        {
          "internalType": "address",
          "name": "account",
          "type": "address"
        },
        {
          "internalType": "uint256",
          "name": "id",
          "type": "uint256"
        }
      ],
      "name": "balanceOf",
      "outputs": [
        {
          "internalType": "uint256",
          "name": "",
          "type": "uint256"
        }
      ],
      "stateMutability": "view",
      "type": "function"
    },
    {
      "inputs": [
        {
          "internalType": "address[]",
          "name": "accounts",
          "type": "address[]"
        },
        {
          "internalType": "uint256[]",
          "name": "ids",
          "type": "uint256[]"
        }
      ],
      "name": "balanceOfBatch",
      "outputs": [
        {
          "internalType": "uint256[]",
          "name": "",
          "type": "uint256[]"
        }
      ],
      "stateMutability": "view",
      "type": "function"
    },
    {
      "inputs": [
        {
          "internalType": "address",
          "name": "_from",
          "type": "address"
        },
        {
          "internalType": "uint256",
          "name": "_tokenId",
          "type": "uint256"
        },
        {
          "internalType": "uint256",
          "name": "_amount",
          "type": "uint256"
        }
      ],
      "name": "burn",
      "outputs": [],
      "stateMutability": "nonpayable",
      "type": "function"
    },
    {
      "inputs": [
        {
          "internalType": "uint256",
          "name": "",
          "type": "uint256"
        }
      ],
      "name": "exists",
      "outputs": [
        {
          "internalType": "bool",
          "name": "",
          "type": "bool"
        }
      ],
      "stateMutability": "view",
      "type": "function"
    },
    {
      "inputs": [
        {
          "internalType": "uint256",
          "name": "",
          "type": "uint256"
        }
      ],
      "name": "getUri",
      "outputs": [
        {
          "internalType": "string",
          "name": "",
          "type": "string"
        }
      ],
      "stateMutability": "view",
      "type": "function"
    },
    {
      "inputs": [],
      "name": "individualInitialMint",
      "outputs": [],
      "stateMutability": "nonpayable",
      "type": "function"
    },
    {
      "inputs": [
        {
          "internalType": "address",
          "name": "_contract",
          "type": "address"
        },
        {
          "internalType": "string",
          "name": "_keyword",
          "type": "string"
        },
        {
          "internalType": "uint256",
          "name": "_amount",
          "type": "uint256"
        }
      ],
      "name": "initialMint",
      "outputs": [],
      "stateMutability": "nonpayable",
      "type": "function"
    },
    {
      "inputs": [
        {
          "internalType": "address",
          "name": "account",
          "type": "address"
        },
        {
          "internalType": "address",
          "name": "operator",
          "type": "address"
        }
      ],
      "name": "isApprovedForAll",
      "outputs": [
        {
          "internalType": "bool",
          "name": "",
          "type": "bool"
        }
      ],
      "stateMutability": "view",
      "type": "function"
    },
    {
      "inputs": [
        {
          "internalType": "uint256",
          "name": "_tokenId",
          "type": "uint256"
        },
        {
          "internalType": "uint256",
          "name": "_amount",
          "type": "uint256"
        }
      ],
      "name": "mintMoreRelayer",
      "outputs": [],
      "stateMutability": "nonpayable",
      "type": "function"
    },
    {
      "inputs": [],
      "name": "name",
      "outputs": [
        {
          "internalType": "string",
          "name": "",
          "type": "string"
        }
      ],
      "stateMutability": "view",
      "type": "function"
    },
    {
      "inputs": [],
      "name": "owner",
      "outputs": [
        {
          "internalType": "address",
          "name": "",
          "type": "address"
        }
      ],
      "stateMutability": "view",
      "type": "function"
    },
    {
      "inputs": [],
      "name": "renounceOwnership",
      "outputs": [],
      "stateMutability": "nonpayable",
      "type": "function"
    },
    {
      "inputs": [
        {
          "internalType": "address",
          "name": "from",
          "type": "address"
        },
        {
          "internalType": "address",
          "name": "to",
          "type": "address"
        },
        {
          "internalType": "uint256[]",
          "name": "ids",
          "type": "uint256[]"
        },
        {
          "internalType": "uint256[]",
          "name": "amounts",
          "type": "uint256[]"
        },
        {
          "internalType": "bytes",
          "name": "data",
          "type": "bytes"
        }
      ],
      "name": "safeBatchTransferFrom",
      "outputs": [],
      "stateMutability": "nonpayable",
      "type": "function"
    },
    {
      "inputs": [
        {
          "internalType": "address",
          "name": "from",
          "type": "address"
        },
        {
          "internalType": "address",
          "name": "to",
          "type": "address"
        },
        {
          "internalType": "uint256",
          "name": "id",
          "type": "uint256"
        },
        {
          "internalType": "uint256",
          "name": "amount",
          "type": "uint256"
        },
        {
          "internalType": "bytes",
          "name": "data",
          "type": "bytes"
        }
      ],
      "name": "safeTransferFrom",
      "outputs": [],
      "stateMutability": "nonpayable",
      "type": "function"
    },
    {
      "inputs": [
        {
          "internalType": "address",
          "name": "operator",
          "type": "address"
        },
        {
          "internalType": "bool",
          "name": "approved",
          "type": "bool"
        }
      ],
      "name": "setApprovalForAll",
      "outputs": [],
      "stateMutability": "nonpayable",
      "type": "function"
    },
    {
      "inputs": [
        {
          "internalType": "address",
          "name": "_address",
          "type": "address"
        }
      ],
      "name": "setReceiverContractAddress",
      "outputs": [],
      "stateMutability": "nonpayable",
      "type": "function"
    },
    {
      "inputs": [
        {
          "internalType": "bytes4",
          "name": "interfaceId",
          "type": "bytes4"
        }
      ],
      "name": "supportsInterface",
      "outputs": [
        {
          "internalType": "bool",
          "name": "",
          "type": "bool"
        }
      ],
      "stateMutability": "view",
      "type": "function"
    },
    {
      "inputs": [],
      "name": "symbol",
      "outputs": [
        {
          "internalType": "string",
          "name": "",
          "type": "string"
        }
      ],
      "stateMutability": "view",
      "type": "function"
    },
    {
      "inputs": [
        {
          "internalType": "uint256",
          "name": "",
          "type": "uint256"
        }
      ],
      "name": "tokens",
      "outputs": [
        {
          "internalType": "uint256",
          "name": "_supply",
          "type": "uint256"
        },
        {
          "internalType": "string",
          "name": "_keyword",
          "type": "string"
        },
        {
          "internalType": "address",
          "name": "_contract",
          "type": "address"
        },
        {
          "internalType": "address",
          "name": "_owner",
          "type": "address"
        },
        {
          "internalType": "string",
          "name": "_avatar",
          "type": "string"
        },
        {
          "internalType": "string",
          "name": "_url",
          "type": "string"
        },
        {
          "internalType": "string",
          "name": "_description",
          "type": "string"
        }
      ],
      "stateMutability": "view",
      "type": "function"
    },
    {
      "inputs": [
        {
          "internalType": "address",
          "name": "newOwner",
          "type": "address"
        }
      ],
      "name": "transferOwnership",
      "outputs": [],
      "stateMutability": "nonpayable",
      "type": "function"
    },
    {
      "inputs": [
        {
          "internalType": "uint256",
          "name": "_tokenId",
          "type": "uint256"
        },
        {
          "internalType": "string",
          "name": "_avatar",
          "type": "string"
        }
      ],
      "name": "updateTokenAvatar",
      "outputs": [],
      "stateMutability": "nonpayable",
      "type": "function"
    },
    {
      "inputs": [
        {
          "internalType": "uint256",
          "name": "_tokenId",
          "type": "uint256"
        },
        {
          "internalType": "string",
          "name": "_desc",
          "type": "string"
        }
      ],
      "name": "updateTokenDescription",
      "outputs": [],
      "stateMutability": "nonpayable",
      "type": "function"
    },
    {
      "inputs": [
        {
          "internalType": "uint256",
          "name": "_tokenId",
          "type": "uint256"
        },
        {
          "internalType": "address",
          "name": "_newOwner",
          "type": "address"
        }
      ],
      "name": "updateTokenOwner",
      "outputs": [],
      "stateMutability": "nonpayable",
      "type": "function"
    },
    {
      "inputs": [
        {
          "internalType": "uint256",
          "name": "_tokenId",
          "type": "uint256"
        },
        {
          "internalType": "string",
          "name": "_url",
          "type": "string"
        }
      ],
      "name": "updateTokenUrl",
      "outputs": [],
      "stateMutability": "nonpayable",
      "type": "function"
    },
    {
      "inputs": [
        {
          "internalType": "uint256",
          "name": "",
          "type": "uint256"
        }
      ],
      "name": "uri",
      "outputs": [
        {
          "internalType": "string",
          "name": "",
          "type": "string"
        }
      ],
      "stateMutability": "view",
      "type": "function"
    }
  ],
  "bytecode": "0x60806040526040518061016001604052806101328152602001620060186101329139600b908051906020019062000038929190620001c4565b503480156200004657600080fd5b506040516200614a3803806200614a83398181016040528101906200006c9190620002e6565b806200007e81620000da60201b60201c565b506200009f62000093620000f660201b60201c565b620000fe60201b60201c565b8260049080519060200190620000b7929190620001c4565b508160059080519060200190620000d0929190620001c4565b50505050620004f7565b8060029080519060200190620000f2929190620001c4565b5050565b600033905090565b6000600360009054906101000a900473ffffffffffffffffffffffffffffffffffffffff16905081600360006101000a81548173ffffffffffffffffffffffffffffffffffffffff021916908373ffffffffffffffffffffffffffffffffffffffff1602179055508173ffffffffffffffffffffffffffffffffffffffff168173ffffffffffffffffffffffffffffffffffffffff167f8be0079c531659141344cd1fd0a4f28419497f9722a3daafe3b4186f6b6457e060405160405180910390a35050565b828054620001d2906200041c565b90600052602060002090601f016020900481019282620001f6576000855562000242565b82601f106200021157805160ff191683800117855562000242565b8280016001018555821562000242579182015b828111156200024157825182559160200191906001019062000224565b5b50905062000251919062000255565b5090565b5b808211156200027057600081600090555060010162000256565b5090565b60006200028b6200028584620003b0565b62000387565b905082815260208101848484011115620002a457600080fd5b620002b1848285620003e6565b509392505050565b600082601f830112620002cb57600080fd5b8151620002dd84826020860162000274565b91505092915050565b600080600060608486031215620002fc57600080fd5b600084015167ffffffffffffffff8111156200031757600080fd5b6200032586828701620002b9565b935050602084015167ffffffffffffffff8111156200034357600080fd5b6200035186828701620002b9565b925050604084015167ffffffffffffffff8111156200036f57600080fd5b6200037d86828701620002b9565b9150509250925092565b600062000393620003a6565b9050620003a1828262000452565b919050565b6000604051905090565b600067ffffffffffffffff821115620003ce57620003cd620004b7565b5b620003d982620004e6565b9050602081019050919050565b60005b8381101562000406578082015181840152602081019050620003e9565b8381111562000416576000848401525b50505050565b600060028204905060018216806200043557607f821691505b602082108114156200044c576200044b62000488565b5b50919050565b6200045d82620004e6565b810181811067ffffffffffffffff821117156200047f576200047e620004b7565b5b80604052505050565b7f4e487b7100000000000000000000000000000000000000000000000000000000600052602260045260246000fd5b7f4e487b7100000000000000000000000000000000000000000000000000000000600052604160045260246000fd5b6000601f19601f8301169050919050565b615b1180620005076000396000f3fe608060405234801561001057600080fd5b50600436106101725760003560e01c806395d89b41116100de578063e43b832611610097578063f242432a11610071578063f242432a1461044b578063f2fde38b14610467578063f5298aca14610483578063f7bc440c1461049f57610172565b8063e43b8326146103f5578063e985e9c5146103ff578063f23c51cd1461042f57610172565b806395d89b41146103375780639863dee714610355578063a22cb46514610371578063c104c3611461038d578063d9e07fc5146103a9578063da0544aa146103c557610172565b80632eb2c2d6116101305780632eb2c2d61461025d5780634e1273f4146102795780634f558e79146102a95780634f64b2be146102d9578063715018a61461030f5780638da5cb5b1461031957610172565b8062fdd58e1461017757806301ffc9a7146101a757806306fdde03146101d75780630e89341c146101f557806311ab63e114610225578063280c58df14610241575b600080fd5b610191600480360381019061018c9190613f8a565b6104bb565b60405161019e9190614b53565b60405180910390f35b6101c160048036038101906101bc9190614081565b610584565b6040516101ce9190614936565b60405180910390f35b6101df610666565b6040516101ec9190614951565b60405180910390f35b61020f600480360381019061020a91906140d3565b6106f4565b60405161021c9190614951565b60405180910390f35b61023f600480360381019061023a9190614138565b610788565b005b61025b60048036038101906102569190613f23565b6108de565b005b61027760048036038101906102729190613d99565b610e19565b005b610293600480360381019061028e9190614015565b610e89565b6040516102a091906148dd565b60405180910390f35b6102c360048036038101906102be91906140d3565b61103a565b6040516102d09190614936565b60405180910390f35b6102f360048036038101906102ee91906140d3565b61105a565b6040516103069796959493929190614bc8565b60405180910390f35b6103176112fc565b005b610321611310565b60405161032e91906146d0565b60405180910390f35b61033f61133a565b60405161034c9190614951565b60405180910390f35b61036f600480360381019061036a919061418c565b6113c8565b005b61038b60048036038101906103869190613ee7565b611547565b005b6103a760048036038101906103a291906140fc565b61155d565b005b6103c360048036038101906103be9190614138565b6116cf565b005b6103df60048036038101906103da91906140d3565b611817565b6040516103ec9190614951565b60405180910390f35b6103fd6118b7565b005b61041960048036038101906104149190613d5d565b611d01565b6040516104269190614936565b60405180910390f35b61044960048036038101906104449190613d0b565b611d95565b005b61046560048036038101906104609190613e58565b611de1565b005b610481600480360381019061047c9190613d0b565b611e51565b005b61049d60048036038101906104989190613fc6565b611ed5565b005b6104b960048036038101906104b49190614138565b6120d5565b005b60008073ffffffffffffffffffffffffffffffffffffffff168373ffffffffffffffffffffffffffffffffffffffff16141561052c576040517f08c379a000000000000000000000000000000000000000000000000000000000815260040161052390614a33565b60405180910390fd5b60008083815260200190815260200160002060008473ffffffffffffffffffffffffffffffffffffffff1673ffffffffffffffffffffffffffffffffffffffff16815260200190815260200160002054905092915050565b60007fd9b67a26000000000000000000000000000000000000000000000000000000007bffffffffffffffffffffffffffffffffffffffffffffffffffffffff1916827bffffffffffffffffffffffffffffffffffffffffffffffffffffffff1916148061064f57507f0e89341c000000000000000000000000000000000000000000000000000000007bffffffffffffffffffffffffffffffffffffffffffffffffffffffff1916827bffffffffffffffffffffffffffffffffffffffffffffffffffffffff1916145b8061065f575061065e8261222b565b5b9050919050565b60048054610673906151e0565b80601f016020809104026020016040519081016040528092919081815260200182805461069f906151e0565b80156106ec5780601f106106c1576101008083540402835291602001916106ec565b820191906000526020600020905b8154815290600101906020018083116106cf57829003601f168201915b505050505081565b606060028054610703906151e0565b80601f016020809104026020016040519081016040528092919081815260200182805461072f906151e0565b801561077c5780601f106107515761010080835404028352916020019161077c565b820191906000526020600020905b81548152906001019060200180831161075f57829003601f168201915b50505050509050919050565b3373ffffffffffffffffffffffffffffffffffffffff16600a600084815260200190815260200160002060030160009054906101000a900473ffffffffffffffffffffffffffffffffffffffff1673ffffffffffffffffffffffffffffffffffffffff16148061082a57506107fb611310565b73ffffffffffffffffffffffffffffffffffffffff163373ffffffffffffffffffffffffffffffffffffffff16145b610869576040517f08c379a000000000000000000000000000000000000000000000000000000000815260040161086090614a13565b60405180910390fd5b60a081511061087757600080fd5b80600a600084815260200190815260200160002060060190805190602001906108a19291906139ee565b50817fba239fd9b6cb954ad5713dfd465bcafced58b85971c4df027c463a5ae7aba898826040516108d29190614951565b60405180910390a25050565b82600760006101000a81548173ffffffffffffffffffffffffffffffffffffffff021916908373ffffffffffffffffffffffffffffffffffffffff160217905550600061092a83612295565b90506008600082815260200190815260200160002060009054906101000a900460ff161561095757600080fd5b3373ffffffffffffffffffffffffffffffffffffffff16600760009054906101000a900473ffffffffffffffffffffffffffffffffffffffff1673ffffffffffffffffffffffffffffffffffffffff16638da5cb5b6040518163ffffffff1660e01b815260040160206040518083038186803b1580156109d657600080fd5b505afa1580156109ea573d6000803e3d6000fd5b505050506040513d601f19601f82011682018060405250810190610a0e9190613d34565b73ffffffffffffffffffffffffffffffffffffffff1614610a2e57600080fd5b6000610ac484600b8054610a41906151e0565b80601f0160208091040260200160405190810160405280929190818152602001828054610a6d906151e0565b8015610aba5780601f10610a8f57610100808354040283529160200191610aba565b820191906000526020600020905b815481529060010190602001808311610a9d57829003601f168201915b50505050506122f1565b9050610b45338385600067ffffffffffffffff811115610b0d577f4e487b7100000000000000000000000000000000000000000000000000000000600052604160045260246000fd5b6040519080825280601f01601f191660200182016040528015610b3f5781602001600182028036833780820191505090505b506123bc565b610b4f828261256d565b600660009054906101000a900473ffffffffffffffffffffffffffffffffffffffff1673ffffffffffffffffffffffffffffffffffffffff166349278a04338486886040518563ffffffff1660e01b8152600401610bb0949392919061484c565b600060405180830381600087803b158015610bca57600080fd5b505af1158015610bde573d6000803e3d6000fd5b5050505060016008600084815260200190815260200160002060006101000a81548160ff0219169083151502179055506040518060e001604052808481526020018581526020018673ffffffffffffffffffffffffffffffffffffffff1681526020013373ffffffffffffffffffffffffffffffffffffffff16815260200160405180602001604052806000815250815260200160405180602001604052806000815250815260200160405180602001604052806000815250815250600a6000848152602001908152602001600020600082015181600001556020820151816001019080519060200190610cd39291906139ee565b5060408201518160020160006101000a81548173ffffffffffffffffffffffffffffffffffffffff021916908373ffffffffffffffffffffffffffffffffffffffff16021790555060608201518160030160006101000a81548173ffffffffffffffffffffffffffffffffffffffff021916908373ffffffffffffffffffffffffffffffffffffffff1602179055506080820151816004019080519060200190610d7e9291906139ee565b5060a0820151816005019080519060200190610d9b9291906139ee565b5060c0820151816006019080519060200190610db89291906139ee565b509050503373ffffffffffffffffffffffffffffffffffffffff167f27268712b26fff75b5295ee883e737fba7bfbcdbabaf438a2e86648d8f9d79d68385878942604051610e0a959493929190614c7c565b60405180910390a25050505050565b610e21612599565b610e2e8585858585612617565b8473ffffffffffffffffffffffffffffffffffffffff167fb750174fbe6a67966d8b04bf43385593955b89570b939c23c5eb96482987434185858542604051610e7a94939291906147ad565b60405180910390a25050505050565b60608151835114610ecf576040517f08c379a0000000000000000000000000000000000000000000000000000000008152600401610ec690614af3565b60405180910390fd5b6000835167ffffffffffffffff811115610f12577f4e487b7100000000000000000000000000000000000000000000000000000000600052604160045260246000fd5b604051908082528060200260200182016040528015610f405781602001602082028036833780820191505090505b50905060005b845181101561102f57610fd9858281518110610f8b577f4e487b7100000000000000000000000000000000000000000000000000000000600052603260045260246000fd5b6020026020010151858381518110610fcc577f4e487b7100000000000000000000000000000000000000000000000000000000600052603260045260246000fd5b60200260200101516104bb565b828281518110611012577f4e487b7100000000000000000000000000000000000000000000000000000000600052603260045260246000fd5b6020026020010181815250508061102890615243565b9050610f46565b508091505092915050565b60086020528060005260406000206000915054906101000a900460ff1681565b600a602052806000526040600020600091509050806000015490806001018054611083906151e0565b80601f01602080910402602001604051908101604052809291908181526020018280546110af906151e0565b80156110fc5780601f106110d1576101008083540402835291602001916110fc565b820191906000526020600020905b8154815290600101906020018083116110df57829003601f168201915b5050505050908060020160009054906101000a900473ffffffffffffffffffffffffffffffffffffffff16908060030160009054906101000a900473ffffffffffffffffffffffffffffffffffffffff169080600401805461115d906151e0565b80601f0160208091040260200160405190810160405280929190818152602001828054611189906151e0565b80156111d65780601f106111ab576101008083540402835291602001916111d6565b820191906000526020600020905b8154815290600101906020018083116111b957829003601f168201915b5050505050908060050180546111eb906151e0565b80601f0160208091040260200160405190810160405280929190818152602001828054611217906151e0565b80156112645780601f1061123957610100808354040283529160200191611264565b820191906000526020600020905b81548152906001019060200180831161124757829003601f168201915b505050505090806006018054611279906151e0565b80601f01602080910402602001604051908101604052809291908181526020018280546112a5906151e0565b80156112f25780601f106112c7576101008083540402835291602001916112f2565b820191906000526020600020905b8154815290600101906020018083116112d557829003601f168201915b5050505050905087565b611304612599565b61130e6000612985565b565b6000600360009054906101000a900473ffffffffffffffffffffffffffffffffffffffff16905090565b60058054611347906151e0565b80601f0160208091040260200160405190810160405280929190818152602001828054611373906151e0565b80156113c05780601f10611395576101008083540402835291602001916113c0565b820191906000526020600020905b8154815290600101906020018083116113a357829003601f168201915b505050505081565b3373ffffffffffffffffffffffffffffffffffffffff16600a600084815260200190815260200160002060030160009054906101000a900473ffffffffffffffffffffffffffffffffffffffff1673ffffffffffffffffffffffffffffffffffffffff161461143657600080fd5b6114b5338383600067ffffffffffffffff81111561147d577f4e487b7100000000000000000000000000000000000000000000000000000000600052604160045260246000fd5b6040519080825280601f01601f1916602001820160405280156114af5781602001600182028036833780820191505090505b506123bc565b80600a6000848152602001908152602001600020600001546114d79190614e68565b600a6000848152602001908152602001600020600001819055503373ffffffffffffffffffffffffffffffffffffffff167fa5f32c669beff348ae2f137abc46da9f0ea86200e3c8c6001def371902c29b4983834260405161153b93929190614cd6565b60405180910390a25050565b611559611552612a4b565b8383612a53565b5050565b3373ffffffffffffffffffffffffffffffffffffffff16600a600084815260200190815260200160002060030160009054906101000a900473ffffffffffffffffffffffffffffffffffffffff1673ffffffffffffffffffffffffffffffffffffffff1614806115ff57506115d0611310565b73ffffffffffffffffffffffffffffffffffffffff163373ffffffffffffffffffffffffffffffffffffffff16145b61163e576040517f08c379a000000000000000000000000000000000000000000000000000000000815260040161163590614a13565b60405180910390fd5b80600a600084815260200190815260200160002060030160006101000a81548173ffffffffffffffffffffffffffffffffffffffff021916908373ffffffffffffffffffffffffffffffffffffffff160217905550817f6e8eba4782e7fa77684397637db2385238912afff932e4a27c10520b5a0f6156826040516116c391906146d0565b60405180910390a25050565b3373ffffffffffffffffffffffffffffffffffffffff16600a600084815260200190815260200160002060030160009054906101000a900473ffffffffffffffffffffffffffffffffffffffff1673ffffffffffffffffffffffffffffffffffffffff1614806117715750611742611310565b73ffffffffffffffffffffffffffffffffffffffff163373ffffffffffffffffffffffffffffffffffffffff16145b6117b0576040517f08c379a00000000000000000000000000000000000000000000000000000000081526004016117a790614a13565b60405180910390fd5b80600a600084815260200190815260200160002060040190805190602001906117da9291906139ee565b50817f27e75ce060154d4d174bd1c3a40bc9b3672ce89507b1cb738add19dba24ce4cb8260405161180b9190614951565b60405180910390a25050565b60096020528060005260406000206000915090508054611836906151e0565b80601f0160208091040260200160405190810160405280929190818152602001828054611862906151e0565b80156118af5780601f10611884576101008083540402835291602001916118af565b820191906000526020600020905b81548152906001019060200180831161189257829003601f168201915b505050505081565b60006118da3373ffffffffffffffffffffffffffffffffffffffff166014612bc0565b905060006118e782612295565b90506008600082815260200190815260200160002060009054906101000a900460ff161561191457600080fd5b60006119aa83600b8054611927906151e0565b80601f0160208091040260200160405190810160405280929190818152602001828054611953906151e0565b80156119a05780601f10611975576101008083540402835291602001916119a0565b820191906000526020600020905b81548152906001019060200180831161198357829003601f168201915b50505050506122f1565b9050611a2c33836001600067ffffffffffffffff8111156119f4577f4e487b7100000000000000000000000000000000000000000000000000000000600052604160045260246000fd5b6040519080825280601f01601f191660200182016040528015611a265781602001600182028036833780820191505090505b506123bc565b611a36828261256d565b600660009054906101000a900473ffffffffffffffffffffffffffffffffffffffff1673ffffffffffffffffffffffffffffffffffffffff166349278a0433846001876040518563ffffffff1660e01b8152600401611a989493929190614800565b600060405180830381600087803b158015611ab257600080fd5b505af1158015611ac6573d6000803e3d6000fd5b5050505060016008600084815260200190815260200160002060006101000a81548160ff0219169083151502179055506040518060e00160405280600181526020018481526020013373ffffffffffffffffffffffffffffffffffffffff1681526020013373ffffffffffffffffffffffffffffffffffffffff16815260200160405180602001604052806000815250815260200160405180602001604052806000815250815260200160405180602001604052806000815250815250600a6000848152602001908152602001600020600082015181600001556020820151816001019080519060200190611bbc9291906139ee565b5060408201518160020160006101000a81548173ffffffffffffffffffffffffffffffffffffffff021916908373ffffffffffffffffffffffffffffffffffffffff16021790555060608201518160030160006101000a81548173ffffffffffffffffffffffffffffffffffffffff021916908373ffffffffffffffffffffffffffffffffffffffff1602179055506080820151816004019080519060200190611c679291906139ee565b5060a0820151816005019080519060200190611c849291906139ee565b5060c0820151816006019080519060200190611ca19291906139ee565b509050503373ffffffffffffffffffffffffffffffffffffffff167f27268712b26fff75b5295ee883e737fba7bfbcdbabaf438a2e86648d8f9d79d6836001863342604051611cf4959493929190614b6e565b60405180910390a2505050565b6000600160008473ffffffffffffffffffffffffffffffffffffffff1673ffffffffffffffffffffffffffffffffffffffff16815260200190815260200160002060008373ffffffffffffffffffffffffffffffffffffffff1673ffffffffffffffffffffffffffffffffffffffff16815260200190815260200160002060009054906101000a900460ff16905092915050565b611d9d612599565b80600660006101000a81548173ffffffffffffffffffffffffffffffffffffffff021916908373ffffffffffffffffffffffffffffffffffffffff16021790555050565b611de9612599565b611df68585858585612eba565b8473ffffffffffffffffffffffffffffffffffffffff167faefb2fbba6b16ec9e70e7f1c27586d0da3ecaeb1e449f5b1cd58d9d7d265376e85858542604051611e429493929190614898565b60405180910390a25050505050565b611e59612599565b600073ffffffffffffffffffffffffffffffffffffffff168173ffffffffffffffffffffffffffffffffffffffff161415611ec9576040517f08c379a0000000000000000000000000000000000000000000000000000000008152600401611ec0906149d3565b60405180910390fd5b611ed281612985565b50565b8273ffffffffffffffffffffffffffffffffffffffff163373ffffffffffffffffffffffffffffffffffffffff161480611f7057503373ffffffffffffffffffffffffffffffffffffffff16600a600084815260200190815260200160002060030160009054906101000a900473ffffffffffffffffffffffffffffffffffffffff1673ffffffffffffffffffffffffffffffffffffffff16145b80611fad5750611f7e611310565b73ffffffffffffffffffffffffffffffffffffffff163373ffffffffffffffffffffffffffffffffffffffff16145b611fec576040517f08c379a0000000000000000000000000000000000000000000000000000000008152600401611fe390614a13565b60405180910390fd5b611ff7838383613156565b80600a60008481526020019081526020016000206000015461201991906150ba565b600a6000848152602001908152602001600020600001819055506000600a6000848152602001908152602001600020600001541161207e5760006008600084815260200190815260200160002060006101000a81548160ff0219169083151502179055505b8273ffffffffffffffffffffffffffffffffffffffff167f8512a4e1f1fd2a5406f1786b83609a6d00e8966f82b03814dd39ea570f77f03c8383426040516120c893929190614cd6565b60405180910390a2505050565b3373ffffffffffffffffffffffffffffffffffffffff16600a600084815260200190815260200160002060030160009054906101000a900473ffffffffffffffffffffffffffffffffffffffff1673ffffffffffffffffffffffffffffffffffffffff1614806121775750612148611310565b73ffffffffffffffffffffffffffffffffffffffff163373ffffffffffffffffffffffffffffffffffffffff16145b6121b6576040517f08c379a00000000000000000000000000000000000000000000000000000000081526004016121ad90614a13565b60405180910390fd5b60648151106121c457600080fd5b80600a600084815260200190815260200160002060050190805190602001906121ee9291906139ee565b50817f3e1c6ca036a2f5a0ba26b23430d9b1442bb63df70391ad2207d2932a813bdc528260405161221f9190614951565b60405180910390a25050565b60007f01ffc9a7000000000000000000000000000000000000000000000000000000007bffffffffffffffffffffffffffffffffffffffffffffffffffffffff1916827bffffffffffffffffffffffffffffffffffffffffffffffffffffffff1916149050919050565b60008060089050600081600a6122ab9190614f42565b90506000846040516020016122c0919061460b565b6040516020818303038152906040528051906020012060001c905081816122e7919061528c565b9350505050919050565b606060008284604051602001612308929190614622565b604051602081830303815290604052905060606040518060400160405280600481526020017f476f6c640000000000000000000000000000000000000000000000000000000081525090506000612389866123628561339d565b8460405160200161237593929190614651565b60405160208183030381529060405261339d565b905060008160405160200161239e91906146ae565b60405160208183030381529060405290508094505050505092915050565b600073ffffffffffffffffffffffffffffffffffffffff168473ffffffffffffffffffffffffffffffffffffffff16141561242c576040517f08c379a000000000000000000000000000000000000000000000000000000000815260040161242390614b33565b60405180910390fd5b6000612436612a4b565b9050600061244385613527565b9050600061245085613527565b9050612461836000898585896135ed565b8460008088815260200190815260200160002060008973ffffffffffffffffffffffffffffffffffffffff1673ffffffffffffffffffffffffffffffffffffffff16815260200190815260200160002060008282546124c09190614e68565b925050819055508673ffffffffffffffffffffffffffffffffffffffff16600073ffffffffffffffffffffffffffffffffffffffff168473ffffffffffffffffffffffffffffffffffffffff167fc3d58168c5ae7397731d063d5bbf3d657854427343f4c083240f7aacaa2d0f62898960405161253e929190614c53565b60405180910390a4612555836000898585896135f5565b612564836000898989896135fd565b50505050505050565b806009600084815260200190815260200160002090805190602001906125949291906139ee565b505050565b6125a1612a4b565b73ffffffffffffffffffffffffffffffffffffffff166125bf611310565b73ffffffffffffffffffffffffffffffffffffffff1614612615576040517f08c379a000000000000000000000000000000000000000000000000000000000815260040161260c90614ab3565b60405180910390fd5b565b815183511461265b576040517f08c379a000000000000000000000000000000000000000000000000000000000815260040161265290614b13565b60405180910390fd5b600073ffffffffffffffffffffffffffffffffffffffff168473ffffffffffffffffffffffffffffffffffffffff1614156126cb576040517f08c379a00000000000000000000000000000000000000000000000000000000081526004016126c290614a53565b60405180910390fd5b60006126d5612a4b565b90506126e58187878787876135ed565b60005b84518110156128e257600085828151811061272c577f4e487b7100000000000000000000000000000000000000000000000000000000600052603260045260246000fd5b602002602001015190506000858381518110612771577f4e487b7100000000000000000000000000000000000000000000000000000000600052603260045260246000fd5b60200260200101519050600080600084815260200190815260200160002060008b73ffffffffffffffffffffffffffffffffffffffff1673ffffffffffffffffffffffffffffffffffffffff16815260200190815260200160002054905081811015612812576040517f08c379a000000000000000000000000000000000000000000000000000000000815260040161280990614a93565b60405180910390fd5b81810360008085815260200190815260200160002060008c73ffffffffffffffffffffffffffffffffffffffff1673ffffffffffffffffffffffffffffffffffffffff168152602001908152602001600020819055508160008085815260200190815260200160002060008b73ffffffffffffffffffffffffffffffffffffffff1673ffffffffffffffffffffffffffffffffffffffff16815260200190815260200160002060008282546128c79190614e68565b92505081905550505050806128db90615243565b90506126e8565b508473ffffffffffffffffffffffffffffffffffffffff168673ffffffffffffffffffffffffffffffffffffffff168273ffffffffffffffffffffffffffffffffffffffff167f4a39dc06d4c0dbc64b70af90fd698a233a518aa5d07e595d983b8c0526c8f7fb87876040516129599291906148ff565b60405180910390a461296f8187878787876135f5565b61297d8187878787876137e4565b505050505050565b6000600360009054906101000a900473ffffffffffffffffffffffffffffffffffffffff16905081600360006101000a81548173ffffffffffffffffffffffffffffffffffffffff021916908373ffffffffffffffffffffffffffffffffffffffff1602179055508173ffffffffffffffffffffffffffffffffffffffff168173ffffffffffffffffffffffffffffffffffffffff167f8be0079c531659141344cd1fd0a4f28419497f9722a3daafe3b4186f6b6457e060405160405180910390a35050565b600033905090565b8173ffffffffffffffffffffffffffffffffffffffff168373ffffffffffffffffffffffffffffffffffffffff161415612ac2576040517f08c379a0000000000000000000000000000000000000000000000000000000008152600401612ab990614ad3565b60405180910390fd5b80600160008573ffffffffffffffffffffffffffffffffffffffff1673ffffffffffffffffffffffffffffffffffffffff16815260200190815260200160002060008473ffffffffffffffffffffffffffffffffffffffff1673ffffffffffffffffffffffffffffffffffffffff16815260200190815260200160002060006101000a81548160ff0219169083151502179055508173ffffffffffffffffffffffffffffffffffffffff168373ffffffffffffffffffffffffffffffffffffffff167f17307eab39ab6107e8899845ad3d59bd9653f200f220920489ca2b5937696c3183604051612bb39190614936565b60405180910390a3505050565b606060006002836002612bd39190615060565b612bdd9190614e68565b67ffffffffffffffff811115612c1c577f4e487b7100000000000000000000000000000000000000000000000000000000600052604160045260246000fd5b6040519080825280601f01601f191660200182016040528015612c4e5781602001600182028036833780820191505090505b5090507f300000000000000000000000000000000000000000000000000000000000000081600081518110612cac577f4e487b7100000000000000000000000000000000000000000000000000000000600052603260045260246000fd5b60200101907effffffffffffffffffffffffffffffffffffffffffffffffffffffffffffff1916908160001a9053507f780000000000000000000000000000000000000000000000000000000000000081600181518110612d36577f4e487b7100000000000000000000000000000000000000000000000000000000600052603260045260246000fd5b60200101907effffffffffffffffffffffffffffffffffffffffffffffffffffffffffffff1916908160001a90535060006001846002612d769190615060565b612d809190614e68565b90505b6001811115612e6c577f3031323334353637383961626364656600000000000000000000000000000000600f861660108110612de8577f4e487b7100000000000000000000000000000000000000000000000000000000600052603260045260246000fd5b1a60f81b828281518110612e25577f4e487b7100000000000000000000000000000000000000000000000000000000600052603260045260246000fd5b60200101907effffffffffffffffffffffffffffffffffffffffffffffffffffffffffffff1916908160001a905350600485901c945080612e65906151b6565b9050612d83565b5060008414612eb0576040517f08c379a0000000000000000000000000000000000000000000000000000000008152600401612ea790614993565b60405180910390fd5b8091505092915050565b600073ffffffffffffffffffffffffffffffffffffffff168473ffffffffffffffffffffffffffffffffffffffff161415612f2a576040517f08c379a0000000000000000000000000000000000000000000000000000000008152600401612f2190614a53565b60405180910390fd5b6000612f34612a4b565b90506000612f4185613527565b90506000612f4e85613527565b9050612f5e8389898585896135ed565b600080600088815260200190815260200160002060008a73ffffffffffffffffffffffffffffffffffffffff1673ffffffffffffffffffffffffffffffffffffffff16815260200190815260200160002054905085811015612ff5576040517f08c379a0000000000000000000000000000000000000000000000000000000008152600401612fec90614a93565b60405180910390fd5b85810360008089815260200190815260200160002060008b73ffffffffffffffffffffffffffffffffffffffff1673ffffffffffffffffffffffffffffffffffffffff168152602001908152602001600020819055508560008089815260200190815260200160002060008a73ffffffffffffffffffffffffffffffffffffffff1673ffffffffffffffffffffffffffffffffffffffff16815260200190815260200160002060008282546130aa9190614e68565b925050819055508773ffffffffffffffffffffffffffffffffffffffff168973ffffffffffffffffffffffffffffffffffffffff168573ffffffffffffffffffffffffffffffffffffffff167fc3d58168c5ae7397731d063d5bbf3d657854427343f4c083240f7aacaa2d0f628a8a604051613127929190614c53565b60405180910390a461313d848a8a86868a6135f5565b61314b848a8a8a8a8a6135fd565b505050505050505050565b600073ffffffffffffffffffffffffffffffffffffffff168373ffffffffffffffffffffffffffffffffffffffff1614156131c6576040517f08c379a00000000000000000000000000000000000000000000000000000000081526004016131bd90614a73565b60405180910390fd5b60006131d0612a4b565b905060006131dd84613527565b905060006131ea84613527565b905061320a838760008585604051806020016040528060008152506135ed565b600080600087815260200190815260200160002060008873ffffffffffffffffffffffffffffffffffffffff1673ffffffffffffffffffffffffffffffffffffffff168152602001908152602001600020549050848110156132a1576040517f08c379a0000000000000000000000000000000000000000000000000000000008152600401613298906149f3565b60405180910390fd5b84810360008088815260200190815260200160002060008973ffffffffffffffffffffffffffffffffffffffff1673ffffffffffffffffffffffffffffffffffffffff16815260200190815260200160002081905550600073ffffffffffffffffffffffffffffffffffffffff168773ffffffffffffffffffffffffffffffffffffffff168573ffffffffffffffffffffffffffffffffffffffff167fc3d58168c5ae7397731d063d5bbf3d657854427343f4c083240f7aacaa2d0f62898960405161336e929190614c53565b60405180910390a4613394848860008686604051806020016040528060008152506135f5565b50505050505050565b60606000825114156133c057604051806020016040528060008152509050613522565b6000604051806060016040528060408152602001615a9c60409139905060006003600285516133ef9190614e68565b6133f99190614ebe565b60046134059190615060565b67ffffffffffffffff811115613444577f4e487b7100000000000000000000000000000000000000000000000000000000600052604160045260246000fd5b6040519080825280601f01601f1916602001820160405280156134765781602001600182028036833780820191505090505b509050600182016020820185865187015b808210156134e2576003820191508151603f8160121c168501518453600184019350603f81600c1c168501518453600184019350603f8160061c168501518453600184019350603f8116850151845360018401935050613487565b50506003865106600181146134fe576002811461351157613519565b603d6001830353603d6002830353613519565b603d60018303535b50505080925050505b919050565b60606000600167ffffffffffffffff81111561356c577f4e487b7100000000000000000000000000000000000000000000000000000000600052604160045260246000fd5b60405190808252806020026020018201604052801561359a5781602001602082028036833780820191505090505b50905082816000815181106135d8577f4e487b7100000000000000000000000000000000000000000000000000000000600052603260045260246000fd5b60200260200101818152505080915050919050565b505050505050565b505050505050565b61361c8473ffffffffffffffffffffffffffffffffffffffff166139cb565b156137dc578373ffffffffffffffffffffffffffffffffffffffff1663f23a6e6187878686866040518663ffffffff1660e01b8152600401613662959493929190614753565b602060405180830381600087803b15801561367c57600080fd5b505af19250505080156136ad57506040513d601f19601f820116820180604052508101906136aa91906140aa565b60015b613753576136b9615379565b806308c379a0141561371657506136ce6159a9565b806136d95750613718565b806040517f08c379a000000000000000000000000000000000000000000000000000000000815260040161370d9190614951565b60405180910390fd5b505b6040517f08c379a000000000000000000000000000000000000000000000000000000000815260040161374a90614973565b60405180910390fd5b63f23a6e6160e01b7bffffffffffffffffffffffffffffffffffffffffffffffffffffffff1916817bffffffffffffffffffffffffffffffffffffffffffffffffffffffff1916146137da576040517f08c379a00000000000000000000000000000000000000000000000000000000081526004016137d1906149b3565b60405180910390fd5b505b505050505050565b6138038473ffffffffffffffffffffffffffffffffffffffff166139cb565b156139c3578373ffffffffffffffffffffffffffffffffffffffff1663bc197c8187878686866040518663ffffffff1660e01b81526004016138499594939291906146eb565b602060405180830381600087803b15801561386357600080fd5b505af192505050801561389457506040513d601f19601f8201168201806040525081019061389191906140aa565b60015b61393a576138a0615379565b806308c379a014156138fd57506138b56159a9565b806138c057506138ff565b806040517f08c379a00000000000000000000000000000000000000000000000000000000081526004016138f49190614951565b60405180910390fd5b505b6040517f08c379a000000000000000000000000000000000000000000000000000000000815260040161393190614973565b60405180910390fd5b63bc197c8160e01b7bffffffffffffffffffffffffffffffffffffffffffffffffffffffff1916817bffffffffffffffffffffffffffffffffffffffffffffffffffffffff1916146139c1576040517f08c379a00000000000000000000000000000000000000000000000000000000081526004016139b8906149b3565b60405180910390fd5b505b505050505050565b6000808273ffffffffffffffffffffffffffffffffffffffff163b119050919050565b8280546139fa906151e0565b90600052602060002090601f016020900481019282613a1c5760008555613a63565b82601f10613a3557805160ff1916838001178555613a63565b82800160010185558215613a63579182015b82811115613a62578251825591602001919060010190613a47565b5b509050613a709190613a74565b5090565b5b80821115613a8d576000816000905550600101613a75565b5090565b6000613aa4613a9f84614d32565b614d0d565b90508083825260208201905082856020860282011115613ac357600080fd5b60005b85811015613af35781613ad98882613be5565b845260208401935060208301925050600181019050613ac6565b5050509392505050565b6000613b10613b0b84614d5e565b614d0d565b90508083825260208201905082856020860282011115613b2f57600080fd5b60005b85811015613b5f5781613b458882613cf6565b845260208401935060208301925050600181019050613b32565b5050509392505050565b6000613b7c613b7784614d8a565b614d0d565b905082815260208101848484011115613b9457600080fd5b613b9f848285615174565b509392505050565b6000613bba613bb584614dbb565b614d0d565b905082815260208101848484011115613bd257600080fd5b613bdd848285615174565b509392505050565b600081359050613bf481615a3f565b92915050565b600081519050613c0981615a3f565b92915050565b600082601f830112613c2057600080fd5b8135613c30848260208601613a91565b91505092915050565b600082601f830112613c4a57600080fd5b8135613c5a848260208601613afd565b91505092915050565b600081359050613c7281615a56565b92915050565b600081359050613c8781615a6d565b92915050565b600081519050613c9c81615a6d565b92915050565b600082601f830112613cb357600080fd5b8135613cc3848260208601613b69565b91505092915050565b600082601f830112613cdd57600080fd5b8135613ced848260208601613ba7565b91505092915050565b600081359050613d0581615a84565b92915050565b600060208284031215613d1d57600080fd5b6000613d2b84828501613be5565b91505092915050565b600060208284031215613d4657600080fd5b6000613d5484828501613bfa565b91505092915050565b60008060408385031215613d7057600080fd5b6000613d7e85828601613be5565b9250506020613d8f85828601613be5565b9150509250929050565b600080600080600060a08688031215613db157600080fd5b6000613dbf88828901613be5565b9550506020613dd088828901613be5565b945050604086013567ffffffffffffffff811115613ded57600080fd5b613df988828901613c39565b935050606086013567ffffffffffffffff811115613e1657600080fd5b613e2288828901613c39565b925050608086013567ffffffffffffffff811115613e3f57600080fd5b613e4b88828901613ca2565b9150509295509295909350565b600080600080600060a08688031215613e7057600080fd5b6000613e7e88828901613be5565b9550506020613e8f88828901613be5565b9450506040613ea088828901613cf6565b9350506060613eb188828901613cf6565b925050608086013567ffffffffffffffff811115613ece57600080fd5b613eda88828901613ca2565b9150509295509295909350565b60008060408385031215613efa57600080fd5b6000613f0885828601613be5565b9250506020613f1985828601613c63565b9150509250929050565b600080600060608486031215613f3857600080fd5b6000613f4686828701613be5565b935050602084013567ffffffffffffffff811115613f6357600080fd5b613f6f86828701613ccc565b9250506040613f8086828701613cf6565b9150509250925092565b60008060408385031215613f9d57600080fd5b6000613fab85828601613be5565b9250506020613fbc85828601613cf6565b9150509250929050565b600080600060608486031215613fdb57600080fd5b6000613fe986828701613be5565b9350506020613ffa86828701613cf6565b925050604061400b86828701613cf6565b9150509250925092565b6000806040838503121561402857600080fd5b600083013567ffffffffffffffff81111561404257600080fd5b61404e85828601613c0f565b925050602083013567ffffffffffffffff81111561406b57600080fd5b61407785828601613c39565b9150509250929050565b60006020828403121561409357600080fd5b60006140a184828501613c78565b91505092915050565b6000602082840312156140bc57600080fd5b60006140ca84828501613c8d565b91505092915050565b6000602082840312156140e557600080fd5b60006140f384828501613cf6565b91505092915050565b6000806040838503121561410f57600080fd5b600061411d85828601613cf6565b925050602061412e85828601613be5565b9150509250929050565b6000806040838503121561414b57600080fd5b600061415985828601613cf6565b925050602083013567ffffffffffffffff81111561417657600080fd5b61418285828601613ccc565b9150509250929050565b6000806040838503121561419f57600080fd5b60006141ad85828601613cf6565b92505060206141be85828601613cf6565b9150509250929050565b60006141d483836145ed565b60208301905092915050565b6141e9816150ee565b82525050565b60006141fa82614dfc565b6142048185614e2a565b935061420f83614dec565b8060005b8381101561424057815161422788826141c8565b975061423283614e1d565b925050600181019050614213565b5085935050505092915050565b61425681615100565b82525050565b600061426782614e07565b6142718185614e3b565b9350614281818560208601615183565b61428a8161539b565b840191505092915050565b61429e81615162565b82525050565b60006142af82614e12565b6142b98185614e4c565b93506142c9818560208601615183565b6142d28161539b565b840191505092915050565b60006142e882614e12565b6142f28185614e5d565b9350614302818560208601615183565b80840191505092915050565b600061431b603483614e4c565b9150614326826153c6565b604082019050919050565b600061433e602083614e4c565b915061434982615415565b602082019050919050565b6000614361602883614e4c565b915061436c8261543e565b604082019050919050565b6000614384602683614e4c565b915061438f8261548d565b604082019050919050565b60006143a7602483614e4c565b91506143b2826154dc565b604082019050919050565b60006143ca607283614e5d565b91506143d58261552b565b607282019050919050565b60006143ed600d83614e4c565b91506143f8826155c6565b602082019050919050565b6000614410602a83614e4c565b915061441b826155ef565b604082019050919050565b6000614433600d83614e5d565b915061443e8261563e565b600d82019050919050565b6000614456600d83614e5d565b915061446182615667565b600d82019050919050565b6000614479602583614e4c565b915061448482615690565b604082019050919050565b600061449c602383614e4c565b91506144a7826156df565b604082019050919050565b60006144bf602a83614e4c565b91506144ca8261572e565b604082019050919050565b60006144e2602083614e4c565b91506144ed8261577d565b602082019050919050565b6000614505601d83614e5d565b9150614510826157a6565b601d82019050919050565b6000614528606083614e5d565b9150614533826157cf565b606082019050919050565b600061454b602983614e4c565b915061455682615844565b604082019050919050565b600061456e602983614e4c565b915061457982615893565b604082019050919050565b6000614591602883614e4c565b915061459c826158e2565b604082019050919050565b60006145b4602183614e4c565b91506145bf82615931565b604082019050919050565b60006145d7600483614e5d565b91506145e282615980565b600482019050919050565b6145f681615158565b82525050565b61460581615158565b82525050565b600061461782846142dd565b915081905092915050565b600061462e82856142dd565b915061463a82846142dd565b915061464582614449565b91508190509392505050565b600061465c82614426565b915061466882866142dd565b9150614673826143bd565b915061467f82856142dd565b915061468a8261451b565b915061469682846142dd565b91506146a1826145ca565b9150819050949350505050565b60006146b9826144f8565b91506146c582846142dd565b915081905092915050565b60006020820190506146e560008301846141e0565b92915050565b600060a08201905061470060008301886141e0565b61470d60208301876141e0565b818103604083015261471f81866141ef565b9050818103606083015261473381856141ef565b90508181036080830152614747818461425c565b90509695505050505050565b600060a08201905061476860008301886141e0565b61477560208301876141e0565b61478260408301866145fc565b61478f60608301856145fc565b81810360808301526147a1818461425c565b90509695505050505050565b60006080820190506147c260008301876141e0565b81810360208301526147d481866141ef565b905081810360408301526147e881856141ef565b90506147f760608301846145fc565b95945050505050565b600060808201905061481560008301876141e0565b61482260208301866145fc565b61482f6040830185614295565b818103606083015261484181846142a4565b905095945050505050565b600060808201905061486160008301876141e0565b61486e60208301866145fc565b61487b60408301856145fc565b818103606083015261488d81846142a4565b905095945050505050565b60006080820190506148ad60008301876141e0565b6148ba60208301866145fc565b6148c760408301856145fc565b6148d460608301846145fc565b95945050505050565b600060208201905081810360008301526148f781846141ef565b905092915050565b6000604082019050818103600083015261491981856141ef565b9050818103602083015261492d81846141ef565b90509392505050565b600060208201905061494b600083018461424d565b92915050565b6000602082019050818103600083015261496b81846142a4565b905092915050565b6000602082019050818103600083015261498c8161430e565b9050919050565b600060208201905081810360008301526149ac81614331565b9050919050565b600060208201905081810360008301526149cc81614354565b9050919050565b600060208201905081810360008301526149ec81614377565b9050919050565b60006020820190508181036000830152614a0c8161439a565b9050919050565b60006020820190508181036000830152614a2c816143e0565b9050919050565b60006020820190508181036000830152614a4c81614403565b9050919050565b60006020820190508181036000830152614a6c8161446c565b9050919050565b60006020820190508181036000830152614a8c8161448f565b9050919050565b60006020820190508181036000830152614aac816144b2565b9050919050565b60006020820190508181036000830152614acc816144d5565b9050919050565b60006020820190508181036000830152614aec8161453e565b9050919050565b60006020820190508181036000830152614b0c81614561565b9050919050565b60006020820190508181036000830152614b2c81614584565b9050919050565b60006020820190508181036000830152614b4c816145a7565b9050919050565b6000602082019050614b6860008301846145fc565b92915050565b600060a082019050614b8360008301886145fc565b614b906020830187614295565b8181036040830152614ba281866142a4565b9050614bb160608301856141e0565b614bbe60808301846145fc565b9695505050505050565b600060e082019050614bdd600083018a6145fc565b8181036020830152614bef81896142a4565b9050614bfe60408301886141e0565b614c0b60608301876141e0565b8181036080830152614c1d81866142a4565b905081810360a0830152614c3181856142a4565b905081810360c0830152614c4581846142a4565b905098975050505050505050565b6000604082019050614c6860008301856145fc565b614c7560208301846145fc565b9392505050565b600060a082019050614c9160008301886145fc565b614c9e60208301876145fc565b8181036040830152614cb081866142a4565b9050614cbf60608301856141e0565b614ccc60808301846145fc565b9695505050505050565b6000606082019050614ceb60008301866145fc565b614cf860208301856145fc565b614d0560408301846145fc565b949350505050565b6000614d17614d28565b9050614d238282615212565b919050565b6000604051905090565b600067ffffffffffffffff821115614d4d57614d4c61534a565b5b602082029050602081019050919050565b600067ffffffffffffffff821115614d7957614d7861534a565b5b602082029050602081019050919050565b600067ffffffffffffffff821115614da557614da461534a565b5b614dae8261539b565b9050602081019050919050565b600067ffffffffffffffff821115614dd657614dd561534a565b5b614ddf8261539b565b9050602081019050919050565b6000819050602082019050919050565b600081519050919050565b600081519050919050565b600081519050919050565b6000602082019050919050565b600082825260208201905092915050565b600082825260208201905092915050565b600082825260208201905092915050565b600081905092915050565b6000614e7382615158565b9150614e7e83615158565b9250827fffffffffffffffffffffffffffffffffffffffffffffffffffffffffffffffff03821115614eb357614eb26152bd565b5b828201905092915050565b6000614ec982615158565b9150614ed483615158565b925082614ee457614ee36152ec565b5b828204905092915050565b6000808291508390505b6001851115614f3957808604811115614f1557614f146152bd565b5b6001851615614f245780820291505b8081029050614f32856153ac565b9450614ef9565b94509492505050565b6000614f4d82615158565b9150614f5883615158565b9250614f857fffffffffffffffffffffffffffffffffffffffffffffffffffffffffffffffff8484614f8d565b905092915050565b600082614f9d5760019050615059565b81614fab5760009050615059565b8160018114614fc15760028114614fcb57614ffa565b6001915050615059565b60ff841115614fdd57614fdc6152bd565b5b8360020a915084821115614ff457614ff36152bd565b5b50615059565b5060208310610133831016604e8410600b841016171561502f5782820a90508381111561502a576150296152bd565b5b615059565b61503c8484846001614eef565b92509050818404811115615053576150526152bd565b5b81810290505b9392505050565b600061506b82615158565b915061507683615158565b9250817fffffffffffffffffffffffffffffffffffffffffffffffffffffffffffffffff04831182151516156150af576150ae6152bd565b5b828202905092915050565b60006150c582615158565b91506150d083615158565b9250828210156150e3576150e26152bd565b5b828203905092915050565b60006150f982615138565b9050919050565b60008115159050919050565b60007fffffffff0000000000000000000000000000000000000000000000000000000082169050919050565b600073ffffffffffffffffffffffffffffffffffffffff82169050919050565b6000819050919050565b600061516d82615158565b9050919050565b82818337600083830152505050565b60005b838110156151a1578082015181840152602081019050615186565b838111156151b0576000848401525b50505050565b60006151c182615158565b915060008214156151d5576151d46152bd565b5b600182039050919050565b600060028204905060018216806151f857607f821691505b6020821081141561520c5761520b61531b565b5b50919050565b61521b8261539b565b810181811067ffffffffffffffff8211171561523a5761523961534a565b5b80604052505050565b600061524e82615158565b91507fffffffffffffffffffffffffffffffffffffffffffffffffffffffffffffffff821415615281576152806152bd565b5b600182019050919050565b600061529782615158565b91506152a283615158565b9250826152b2576152b16152ec565b5b828206905092915050565b7f4e487b7100000000000000000000000000000000000000000000000000000000600052601160045260246000fd5b7f4e487b7100000000000000000000000000000000000000000000000000000000600052601260045260246000fd5b7f4e487b7100000000000000000000000000000000000000000000000000000000600052602260045260246000fd5b7f4e487b7100000000000000000000000000000000000000000000000000000000600052604160045260246000fd5b600060033d11156153985760046000803e6153956000516153b9565b90505b90565b6000601f19601f8301169050919050565b60008160011c9050919050565b60008160e01c9050919050565b7f455243313135353a207472616e7366657220746f206e6f6e204552433131353560008201527f526563656976657220696d706c656d656e746572000000000000000000000000602082015250565b7f537472696e67733a20686578206c656e67746820696e73756666696369656e74600082015250565b7f455243313135353a204552433131353552656365697665722072656a6563746560008201527f6420746f6b656e73000000000000000000000000000000000000000000000000602082015250565b7f4f776e61626c653a206e6577206f776e657220697320746865207a65726f206160008201527f6464726573730000000000000000000000000000000000000000000000000000602082015250565b7f455243313135353a206275726e20616d6f756e7420657863656564732062616c60008201527f616e636500000000000000000000000000000000000000000000000000000000602082015250565b7f222c20226465736372697074696f6e223a202252656c617965722d53656e646560008201527f7220746f6b656e7320666f722070726f6a656374732c2044414f7320616e642060208201527f636f6d6d756e6974696573222c2022696d616765223a2022646174613a696d6160408201527f67652f7376672b786d6c3b6261736536342c0000000000000000000000000000606082015250565b7f6d757374206265206f776e657200000000000000000000000000000000000000600082015250565b7f455243313135353a2061646472657373207a65726f206973206e6f742061207660008201527f616c6964206f776e657200000000000000000000000000000000000000000000602082015250565b7f7b226b6579776f7264223a202200000000000000000000000000000000000000600082015250565b7f3c2f746578743e3c2f7376673e00000000000000000000000000000000000000600082015250565b7f455243313135353a207472616e7366657220746f20746865207a65726f20616460008201527f6472657373000000000000000000000000000000000000000000000000000000602082015250565b7f455243313135353a206275726e2066726f6d20746865207a65726f206164647260008201527f6573730000000000000000000000000000000000000000000000000000000000602082015250565b7f455243313135353a20696e73756666696369656e742062616c616e636520666f60008201527f72207472616e7366657200000000000000000000000000000000000000000000602082015250565b7f4f776e61626c653a2063616c6c6572206973206e6f7420746865206f776e6572600082015250565b7f646174613a6170706c69636174696f6e2f6a736f6e3b6261736536342c000000600082015250565b7f222c202261747472696275746573223a205b7b2274726169745f74797065223a60008201527f22526f6c65222c202276616c7565223a2253656e646572227d2c207b2274726160208201527f69745f74797065223a224261636b67726f756e64222c202276616c7565223a22604082015250565b7f455243313135353a2073657474696e6720617070726f76616c2073746174757360008201527f20666f722073656c660000000000000000000000000000000000000000000000602082015250565b7f455243313135353a206163636f756e747320616e6420696473206c656e67746860008201527f206d69736d617463680000000000000000000000000000000000000000000000602082015250565b7f455243313135353a2069647320616e6420616d6f756e7473206c656e6774682060008201527f6d69736d61746368000000000000000000000000000000000000000000000000602082015250565b7f455243313135353a206d696e7420746f20746865207a65726f2061646472657360008201527f7300000000000000000000000000000000000000000000000000000000000000602082015250565b7f227d5d7d00000000000000000000000000000000000000000000000000000000600082015250565b600060443d10156159b957615a3c565b6159c1614d28565b60043d036004823e80513d602482011167ffffffffffffffff821117156159e9575050615a3c565b808201805167ffffffffffffffff811115615a075750505050615a3c565b80602083010160043d038501811115615a24575050505050615a3c565b615a3382602001850186615212565b82955050505050505b90565b615a48816150ee565b8114615a5357600080fd5b50565b615a5f81615100565b8114615a6a57600080fd5b50565b615a768161510c565b8114615a8157600080fd5b50565b615a8d81615158565b8114615a9857600080fd5b5056fe4142434445464748494a4b4c4d4e4f505152535455565758595a6162636465666768696a6b6c6d6e6f707172737475767778797a303132333435363738392b2fa2646970667358221220fcca3d3e3a796265dda9f75908405edc6cede2785c64b7f6b6ac32226de5ca7e64736f6c634300080100333c73766720786d6c6e733d27687474703a2f2f7777772e77332e6f72672f323030302f73766727207072657365727665417370656374526174696f3d27784d696e594d696e206d656574272076696577426f783d273020302033353020333530273e3c7374796c653e2e62617365207b2066696c6c3a2077686974653b20666f6e742d66616d696c793a206d6f6e6f73706163653b20666f6e742d73697a653a20323470783b207d3c2f7374796c653e3c726563742077696474683d273130302527206865696768743d2731303025272066696c6c3d27676f6c6427202f3e3c7465787420783d273530252720793d273530252720636c6173733d27626173652720646f6d696e616e742d626173656c696e653d276d6964646c652720746578742d616e63686f723d276d6964646c65273e",
  "linkReferences": {},
  "deployedLinkReferences": {}
}