{
  "_format": "hh-sol-artifact-1",
  "contractName": "RelayerToken",
  "sourceName": "contracts/RelayerToken.sol",
  "abi": [
    {
      "inputs": [
        {
          "internalType": "string",
          "name": "_name",
          "type": "string"
        },
        {
          "internalType": "string",
          "name": "_symbol",
          "type": "string"
        },
        {
          "internalType": "string",
          "name": "_uri",
          "type": "string"
        }
      ],
      "stateMutability": "nonpayable",
      "type": "constructor"
    },
    {
      "anonymous": false,
      "inputs": [
        {
          "indexed": true,
          "internalType": "address",
          "name": "account",
          "type": "address"
        },
        {
          "indexed": true,
          "internalType": "address",
          "name": "operator",
          "type": "address"
        },
        {
          "indexed": false,
          "internalType": "bool",
          "name": "approved",
          "type": "bool"
        }
      ],
      "name": "ApprovalForAll",
      "type": "event"
    },
    {
      "anonymous": false,
      "inputs": [
        {
          "indexed": true,
          "internalType": "address",
          "name": "previousOwner",
          "type": "address"
        },
        {
          "indexed": true,
          "internalType": "address",
          "name": "newOwner",
          "type": "address"
        }
      ],
      "name": "OwnershipTransferred",
      "type": "event"
    },
    {
      "anonymous": false,
      "inputs": [
        {
          "indexed": true,
          "internalType": "address",
          "name": "from",
          "type": "address"
        },
        {
          "indexed": false,
          "internalType": "address",
          "name": "to",
          "type": "address"
        },
        {
          "indexed": false,
          "internalType": "uint256[]",
          "name": "ids",
          "type": "uint256[]"
        },
        {
          "indexed": false,
          "internalType": "uint256[]",
          "name": "amounts",
          "type": "uint256[]"
        },
        {
          "indexed": false,
          "internalType": "uint256",
          "name": "timestamp",
          "type": "uint256"
        }
      ],
      "name": "RelayerBatchTransfer",
      "type": "event"
    },
    {
      "anonymous": false,
      "inputs": [
        {
          "indexed": true,
          "internalType": "address",
          "name": "from",
          "type": "address"
        },
        {
          "indexed": false,
          "internalType": "uint256",
          "name": "tokenId",
          "type": "uint256"
        },
        {
          "indexed": false,
          "internalType": "uint256",
          "name": "amount",
          "type": "uint256"
        },
        {
          "indexed": false,
          "internalType": "uint256",
          "name": "timestamp",
          "type": "uint256"
        }
      ],
      "name": "RelayerBurn",
      "type": "event"
    },
    {
      "anonymous": false,
      "inputs": [
        {
          "indexed": true,
          "internalType": "address",
          "name": "to",
          "type": "address"
        },
        {
          "indexed": false,
          "internalType": "uint256",
          "name": "tokenId",
          "type": "uint256"
        },
        {
          "indexed": false,
          "internalType": "uint256",
          "name": "amount",
          "type": "uint256"
        },
        {
          "indexed": false,
          "internalType": "string",
          "name": "keyword",
          "type": "string"
        },
        {
          "indexed": false,
          "internalType": "address",
          "name": "_contract",
          "type": "address"
        },
        {
          "indexed": false,
          "internalType": "uint256",
          "name": "timestamp",
          "type": "uint256"
        }
      ],
      "name": "RelayerInitialMint",
      "type": "event"
    },
    {
      "anonymous": false,
      "inputs": [
        {
          "indexed": true,
          "internalType": "address",
          "name": "to",
          "type": "address"
        },
        {
          "indexed": false,
          "internalType": "uint256",
          "name": "tokenId",
          "type": "uint256"
        },
        {
          "indexed": false,
          "internalType": "uint256",
          "name": "amount",
          "type": "uint256"
        },
        {
          "indexed": false,
          "internalType": "uint256",
          "name": "timestamp",
          "type": "uint256"
        }
      ],
      "name": "RelayerMint",
      "type": "event"
    },
    {
      "anonymous": false,
      "inputs": [
        {
          "indexed": true,
          "internalType": "address",
          "name": "from",
          "type": "address"
        },
        {
          "indexed": false,
          "internalType": "address",
          "name": "to",
          "type": "address"
        },
        {
          "indexed": false,
          "internalType": "uint256",
          "name": "id",
          "type": "uint256"
        },
        {
          "indexed": false,
          "internalType": "uint256",
          "name": "amount",
          "type": "uint256"
        },
        {
          "indexed": false,
          "internalType": "uint256",
          "name": "timestamp",
          "type": "uint256"
        }
      ],
      "name": "RelayerTransfer",
      "type": "event"
    },
    {
      "anonymous": false,
      "inputs": [
        {
          "indexed": true,
          "internalType": "address",
          "name": "operator",
          "type": "address"
        },
        {
          "indexed": true,
          "internalType": "address",
          "name": "from",
          "type": "address"
        },
        {
          "indexed": true,
          "internalType": "address",
          "name": "to",
          "type": "address"
        },
        {
          "indexed": false,
          "internalType": "uint256[]",
          "name": "ids",
          "type": "uint256[]"
        },
        {
          "indexed": false,
          "internalType": "uint256[]",
          "name": "values",
          "type": "uint256[]"
        }
      ],
      "name": "TransferBatch",
      "type": "event"
    },
    {
      "anonymous": false,
      "inputs": [
        {
          "indexed": true,
          "internalType": "address",
          "name": "operator",
          "type": "address"
        },
        {
          "indexed": true,
          "internalType": "address",
          "name": "from",
          "type": "address"
        },
        {
          "indexed": true,
          "internalType": "address",
          "name": "to",
          "type": "address"
        },
        {
          "indexed": false,
          "internalType": "uint256",
          "name": "id",
          "type": "uint256"
        },
        {
          "indexed": false,
          "internalType": "uint256",
          "name": "value",
          "type": "uint256"
        }
      ],
      "name": "TransferSingle",
      "type": "event"
    },
    {
      "anonymous": false,
      "inputs": [
        {
          "indexed": false,
          "internalType": "string",
          "name": "value",
          "type": "string"
        },
        {
          "indexed": true,
          "internalType": "uint256",
          "name": "id",
          "type": "uint256"
        }
      ],
      "name": "URI",
      "type": "event"
    },
    {
      "anonymous": false,
      "inputs": [
        {
          "indexed": true,
          "internalType": "uint256",
          "name": "tokenId",
          "type": "uint256"
        },
        {
          "indexed": false,
          "internalType": "string",
          "name": "officialLink",
          "type": "string"
        }
      ],
      "name": "UpdateTokenLink",
      "type": "event"
    },
    {
      "anonymous": false,
      "inputs": [
        {
          "indexed": true,
          "internalType": "uint256",
          "name": "tokenId",
          "type": "uint256"
        },
        {
          "indexed": false,
          "internalType": "address",
          "name": "newOwner",
          "type": "address"
        }
      ],
      "name": "UpdateTokenOwner",
      "type": "event"
    },
    {
      "anonymous": false,
      "inputs": [
        {
          "indexed": true,
          "internalType": "uint256",
          "name": "tokenId",
          "type": "uint256"
        },
        {
          "indexed": false,
          "internalType": "string",
          "name": "profilePic",
          "type": "string"
        }
      ],
      "name": "UpdateTokenProfilePic",
      "type": "event"
    },
    {
      "inputs": [
        {
          "internalType": "address",
          "name": "account",
          "type": "address"
        },
        {
          "internalType": "uint256",
          "name": "id",
          "type": "uint256"
        }
      ],
      "name": "balanceOf",
      "outputs": [
        {
          "internalType": "uint256",
          "name": "",
          "type": "uint256"
        }
      ],
      "stateMutability": "view",
      "type": "function"
    },
    {
      "inputs": [
        {
          "internalType": "address[]",
          "name": "accounts",
          "type": "address[]"
        },
        {
          "internalType": "uint256[]",
          "name": "ids",
          "type": "uint256[]"
        }
      ],
      "name": "balanceOfBatch",
      "outputs": [
        {
          "internalType": "uint256[]",
          "name": "",
          "type": "uint256[]"
        }
      ],
      "stateMutability": "view",
      "type": "function"
    },
    {
      "inputs": [
        {
          "internalType": "address",
          "name": "_from",
          "type": "address"
        },
        {
          "internalType": "uint256",
          "name": "_tokenId",
          "type": "uint256"
        },
        {
          "internalType": "uint256",
          "name": "_amount",
          "type": "uint256"
        }
      ],
      "name": "burn",
      "outputs": [],
      "stateMutability": "nonpayable",
      "type": "function"
    },
    {
      "inputs": [
        {
          "internalType": "uint256",
          "name": "",
          "type": "uint256"
        }
      ],
      "name": "exists",
      "outputs": [
        {
          "internalType": "bool",
          "name": "",
          "type": "bool"
        }
      ],
      "stateMutability": "view",
      "type": "function"
    },
    {
      "inputs": [
        {
          "internalType": "uint256",
          "name": "",
          "type": "uint256"
        }
      ],
      "name": "getUri",
      "outputs": [
        {
          "internalType": "string",
          "name": "",
          "type": "string"
        }
      ],
      "stateMutability": "view",
      "type": "function"
    },
    {
      "inputs": [
        {
          "internalType": "address",
          "name": "_contract",
          "type": "address"
        },
        {
          "internalType": "string",
          "name": "_keyword",
          "type": "string"
        },
        {
          "internalType": "uint256",
          "name": "_amount",
          "type": "uint256"
        }
      ],
      "name": "initialMint",
      "outputs": [],
      "stateMutability": "nonpayable",
      "type": "function"
    },
    {
      "inputs": [
        {
          "internalType": "address",
          "name": "account",
          "type": "address"
        },
        {
          "internalType": "address",
          "name": "operator",
          "type": "address"
        }
      ],
      "name": "isApprovedForAll",
      "outputs": [
        {
          "internalType": "bool",
          "name": "",
          "type": "bool"
        }
      ],
      "stateMutability": "view",
      "type": "function"
    },
    {
      "inputs": [
        {
          "internalType": "uint256",
          "name": "_tokenId",
          "type": "uint256"
        },
        {
          "internalType": "uint256",
          "name": "_amount",
          "type": "uint256"
        }
      ],
      "name": "mintRelayer",
      "outputs": [],
      "stateMutability": "nonpayable",
      "type": "function"
    },
    {
      "inputs": [],
      "name": "name",
      "outputs": [
        {
          "internalType": "string",
          "name": "",
          "type": "string"
        }
      ],
      "stateMutability": "view",
      "type": "function"
    },
    {
      "inputs": [],
      "name": "owner",
      "outputs": [
        {
          "internalType": "address",
          "name": "",
          "type": "address"
        }
      ],
      "stateMutability": "view",
      "type": "function"
    },
    {
      "inputs": [
        {
          "internalType": "address",
          "name": "_contract",
          "type": "address"
        },
        {
          "internalType": "string",
          "name": "_keyword",
          "type": "string"
        },
        {
          "internalType": "uint256",
          "name": "_amount",
          "type": "uint256"
        }
      ],
      "name": "ownerInitialMint",
      "outputs": [],
      "stateMutability": "nonpayable",
      "type": "function"
    },
    {
      "inputs": [
        {
          "internalType": "uint256",
          "name": "_tokenId",
          "type": "uint256"
        },
        {
          "internalType": "uint256",
          "name": "_amount",
          "type": "uint256"
        }
      ],
      "name": "ownerMint",
      "outputs": [],
      "stateMutability": "nonpayable",
      "type": "function"
    },
    {
      "inputs": [],
      "name": "renounceOwnership",
      "outputs": [],
      "stateMutability": "nonpayable",
      "type": "function"
    },
    {
      "inputs": [
        {
          "internalType": "address",
          "name": "from",
          "type": "address"
        },
        {
          "internalType": "address",
          "name": "to",
          "type": "address"
        },
        {
          "internalType": "uint256[]",
          "name": "ids",
          "type": "uint256[]"
        },
        {
          "internalType": "uint256[]",
          "name": "amounts",
          "type": "uint256[]"
        },
        {
          "internalType": "bytes",
          "name": "data",
          "type": "bytes"
        }
      ],
      "name": "safeBatchTransferFrom",
      "outputs": [],
      "stateMutability": "nonpayable",
      "type": "function"
    },
    {
      "inputs": [
        {
          "internalType": "address",
          "name": "from",
          "type": "address"
        },
        {
          "internalType": "address",
          "name": "to",
          "type": "address"
        },
        {
          "internalType": "uint256",
          "name": "id",
          "type": "uint256"
        },
        {
          "internalType": "uint256",
          "name": "amount",
          "type": "uint256"
        },
        {
          "internalType": "bytes",
          "name": "data",
          "type": "bytes"
        }
      ],
      "name": "safeTransferFrom",
      "outputs": [],
      "stateMutability": "nonpayable",
      "type": "function"
    },
    {
      "inputs": [
        {
          "internalType": "address",
          "name": "operator",
          "type": "address"
        },
        {
          "internalType": "bool",
          "name": "approved",
          "type": "bool"
        }
      ],
      "name": "setApprovalForAll",
      "outputs": [],
      "stateMutability": "nonpayable",
      "type": "function"
    },
    {
      "inputs": [
        {
          "internalType": "address",
          "name": "_address",
          "type": "address"
        }
      ],
      "name": "setReceiverContractAddress",
      "outputs": [],
      "stateMutability": "nonpayable",
      "type": "function"
    },
    {
      "inputs": [
        {
          "internalType": "bytes4",
          "name": "interfaceId",
          "type": "bytes4"
        }
      ],
      "name": "supportsInterface",
      "outputs": [
        {
          "internalType": "bool",
          "name": "",
          "type": "bool"
        }
      ],
      "stateMutability": "view",
      "type": "function"
    },
    {
      "inputs": [],
      "name": "symbol",
      "outputs": [
        {
          "internalType": "string",
          "name": "",
          "type": "string"
        }
      ],
      "stateMutability": "view",
      "type": "function"
    },
    {
      "inputs": [
        {
          "internalType": "uint256",
          "name": "",
          "type": "uint256"
        }
      ],
      "name": "tokens",
      "outputs": [
        {
          "internalType": "uint256",
          "name": "_supply",
          "type": "uint256"
        },
        {
          "internalType": "string",
          "name": "_keyword",
          "type": "string"
        },
        {
          "internalType": "address",
          "name": "_contract",
          "type": "address"
        },
        {
          "internalType": "address",
          "name": "_verifiedOwner",
          "type": "address"
        },
        {
          "internalType": "string",
          "name": "_profilePic",
          "type": "string"
        },
        {
          "internalType": "string",
          "name": "_officialLink",
          "type": "string"
        }
      ],
      "stateMutability": "view",
      "type": "function"
    },
    {
      "inputs": [
        {
          "internalType": "address",
          "name": "newOwner",
          "type": "address"
        }
      ],
      "name": "transferOwnership",
      "outputs": [],
      "stateMutability": "nonpayable",
      "type": "function"
    },
    {
      "inputs": [
        {
          "internalType": "uint256",
          "name": "_tokenId",
          "type": "uint256"
        },
        {
          "internalType": "string",
          "name": "_officialLink",
          "type": "string"
        }
      ],
      "name": "updateTokenLink",
      "outputs": [],
      "stateMutability": "nonpayable",
      "type": "function"
    },
    {
      "inputs": [
        {
          "internalType": "uint256",
          "name": "_tokenId",
          "type": "uint256"
        },
        {
          "internalType": "address",
          "name": "_newOwner",
          "type": "address"
        }
      ],
      "name": "updateTokenOwner",
      "outputs": [],
      "stateMutability": "nonpayable",
      "type": "function"
    },
    {
      "inputs": [
        {
          "internalType": "uint256",
          "name": "_tokenId",
          "type": "uint256"
        },
        {
          "internalType": "string",
          "name": "_profilePic",
          "type": "string"
        }
      ],
      "name": "updateTokenProfilePic",
      "outputs": [],
      "stateMutability": "nonpayable",
      "type": "function"
    },
    {
      "inputs": [
        {
          "internalType": "uint256",
          "name": "",
          "type": "uint256"
        }
      ],
      "name": "uri",
      "outputs": [
        {
          "internalType": "string",
          "name": "",
          "type": "string"
        }
      ],
      "stateMutability": "view",
      "type": "function"
    }
  ],
  "bytecode": "0x6080604052604051806101600160405280610132815260200162005e036101329139600b908051906020019062000038929190620001c4565b503480156200004657600080fd5b5060405162005f3538038062005f3583398181016040528101906200006c9190620002e6565b806200007e81620000da60201b60201c565b506200009f62000093620000f660201b60201c565b620000fe60201b60201c565b8260049080519060200190620000b7929190620001c4565b508160059080519060200190620000d0929190620001c4565b50505050620004f7565b8060029080519060200190620000f2929190620001c4565b5050565b600033905090565b6000600360009054906101000a900473ffffffffffffffffffffffffffffffffffffffff16905081600360006101000a81548173ffffffffffffffffffffffffffffffffffffffff021916908373ffffffffffffffffffffffffffffffffffffffff1602179055508173ffffffffffffffffffffffffffffffffffffffff168173ffffffffffffffffffffffffffffffffffffffff167f8be0079c531659141344cd1fd0a4f28419497f9722a3daafe3b4186f6b6457e060405160405180910390a35050565b828054620001d2906200041c565b90600052602060002090601f016020900481019282620001f6576000855562000242565b82601f106200021157805160ff191683800117855562000242565b8280016001018555821562000242579182015b828111156200024157825182559160200191906001019062000224565b5b50905062000251919062000255565b5090565b5b808211156200027057600081600090555060010162000256565b5090565b60006200028b6200028584620003b0565b62000387565b905082815260208101848484011115620002a457600080fd5b620002b1848285620003e6565b509392505050565b600082601f830112620002cb57600080fd5b8151620002dd84826020860162000274565b91505092915050565b600080600060608486031215620002fc57600080fd5b600084015167ffffffffffffffff8111156200031757600080fd5b6200032586828701620002b9565b935050602084015167ffffffffffffffff8111156200034357600080fd5b6200035186828701620002b9565b925050604084015167ffffffffffffffff8111156200036f57600080fd5b6200037d86828701620002b9565b9150509250925092565b600062000393620003a6565b9050620003a1828262000452565b919050565b6000604051905090565b600067ffffffffffffffff821115620003ce57620003cd620004b7565b5b620003d982620004e6565b9050602081019050919050565b60005b8381101562000406578082015181840152602081019050620003e9565b8381111562000416576000848401525b50505050565b600060028204905060018216806200043557607f821691505b602082108114156200044c576200044b62000488565b5b50919050565b6200045d82620004e6565b810181811067ffffffffffffffff821117156200047f576200047e620004b7565b5b80604052505050565b7f4e487b7100000000000000000000000000000000000000000000000000000000600052602260045260246000fd5b7f4e487b7100000000000000000000000000000000000000000000000000000000600052604160045260246000fd5b6000601f19601f8301169050919050565b6158fc80620005076000396000f3fe608060405234801561001057600080fd5b50600436106101725760003560e01c80638da5cb5b116100de578063da0544aa11610097578063f23c51cd11610071578063f23c51cd1461045c578063f242432a14610478578063f2fde38b14610494578063f5298aca146104b057610172565b8063da0544aa146103e0578063e24cbc2614610410578063e985e9c51461042c57610172565b80638da5cb5b146103345780639544fab11461035257806395d89b411461036e578063a22cb4651461038c578063c104c361146103a8578063d47573d4146103c457610172565b80632eb2c2d6116101305780632eb2c2d61461025d5780634e1273f4146102795780634f558e79146102a95780634f64b2be146102d957806361cba0511461030e578063715018a61461032a57610172565b8062fdd58e1461017757806301ffc9a7146101a757806305e35201146101d757806306fdde03146101f35780630e89341c14610211578063280c58df14610241575b600080fd5b610191600480360381019061018c9190613e09565b6104cc565b60405161019e9190614977565b60405180910390f35b6101c160048036038101906101bc9190613f00565b610595565b6040516101ce919061475a565b60405180910390f35b6101f160048036038101906101ec9190613fb7565b610677565b005b6101fb6107bf565b6040516102089190614775565b60405180910390f35b61022b60048036038101906102269190613f52565b61084d565b6040516102389190614775565b60405180910390f35b61025b60048036038101906102569190613da2565b6108e1565b005b61027760048036038101906102729190613c18565b610dea565b005b610293600480360381019061028e9190613e94565b610ece565b6040516102a09190614701565b60405180910390f35b6102c360048036038101906102be9190613f52565b61107f565b6040516102d0919061475a565b60405180910390f35b6102f360048036038101906102ee9190613f52565b61109f565b60405161030596959493929190614992565b60405180910390f35b61032860048036038101906103239190613fb7565b6112b3565b005b6103326113fb565b005b61033c611483565b6040516103499190614540565b60405180910390f35b61036c60048036038101906103679190613da2565b6114ad565b005b610376611930565b6040516103839190614775565b60405180910390f35b6103a660048036038101906103a19190613d66565b6119be565b005b6103c260048036038101906103bd9190613f7b565b6119d4565b005b6103de60048036038101906103d9919061400b565b611b46565b005b6103fa60048036038101906103f59190613f52565b611cd3565b6040516104079190614775565b60405180910390f35b61042a6004803603810190610425919061400b565b611d73565b005b61044660048036038101906104419190613bdc565b611ef2565b604051610453919061475a565b60405180910390f35b61047660048036038101906104719190613b8a565b611f86565b005b610492600480360381019061048d9190613cd7565b612046565b005b6104ae60048036038101906104a99190613b8a565b61212a565b005b6104ca60048036038101906104c59190613e45565b612222565b005b60008073ffffffffffffffffffffffffffffffffffffffff168373ffffffffffffffffffffffffffffffffffffffff16141561053d576040517f08c379a0000000000000000000000000000000000000000000000000000000008152600401610534906147d7565b60405180910390fd5b60008083815260200190815260200160002060008473ffffffffffffffffffffffffffffffffffffffff1673ffffffffffffffffffffffffffffffffffffffff16815260200190815260200160002054905092915050565b60007fd9b67a26000000000000000000000000000000000000000000000000000000007bffffffffffffffffffffffffffffffffffffffffffffffffffffffff1916827bffffffffffffffffffffffffffffffffffffffffffffffffffffffff1916148061066057507f0e89341c000000000000000000000000000000000000000000000000000000007bffffffffffffffffffffffffffffffffffffffffffffffffffffffff1916827bffffffffffffffffffffffffffffffffffffffffffffffffffffffff1916145b80610670575061066f82612422565b5b9050919050565b3373ffffffffffffffffffffffffffffffffffffffff16600a600084815260200190815260200160002060030160009054906101000a900473ffffffffffffffffffffffffffffffffffffffff1673ffffffffffffffffffffffffffffffffffffffff16148061071957506106ea611483565b73ffffffffffffffffffffffffffffffffffffffff163373ffffffffffffffffffffffffffffffffffffffff16145b610758576040517f08c379a000000000000000000000000000000000000000000000000000000000815260040161074f90614857565b60405180910390fd5b80600a6000848152602001908152602001600020600401908051906020019061078292919061386d565b50817f1f343ce03c18126caa151c1529ab42d81c899b73545eae568bf67f688a71b725826040516107b39190614775565b60405180910390a25050565b600480546107cc90614f59565b80601f01602080910402602001604051908101604052809291908181526020018280546107f890614f59565b80156108455780601f1061081a57610100808354040283529160200191610845565b820191906000526020600020905b81548152906001019060200180831161082857829003601f168201915b505050505081565b60606002805461085c90614f59565b80601f016020809104026020016040519081016040528092919081815260200182805461088890614f59565b80156108d55780601f106108aa576101008083540402835291602001916108d5565b820191906000526020600020905b8154815290600101906020018083116108b857829003601f168201915b50505050509050919050565b82600760006101000a81548173ffffffffffffffffffffffffffffffffffffffff021916908373ffffffffffffffffffffffffffffffffffffffff160217905550600061092d8361248c565b90506008600082815260200190815260200160002060009054906101000a900460ff161561095a57600080fd5b3373ffffffffffffffffffffffffffffffffffffffff16600760009054906101000a900473ffffffffffffffffffffffffffffffffffffffff1673ffffffffffffffffffffffffffffffffffffffff16638da5cb5b6040518163ffffffff1660e01b815260040160206040518083038186803b1580156109d957600080fd5b505afa1580156109ed573d6000803e3d6000fd5b505050506040513d601f19601f82011682018060405250810190610a119190613bb3565b73ffffffffffffffffffffffffffffffffffffffff1614610a3157600080fd5b6000610ac784600b8054610a4490614f59565b80601f0160208091040260200160405190810160405280929190818152602001828054610a7090614f59565b8015610abd5780601f10610a9257610100808354040283529160200191610abd565b820191906000526020600020905b815481529060010190602001808311610aa057829003601f168201915b50505050506124e8565b9050610b48338385600067ffffffffffffffff811115610b10577f4e487b7100000000000000000000000000000000000000000000000000000000600052604160045260246000fd5b6040519080825280601f01601f191660200182016040528015610b425781602001600182028036833780820191505090505b506125b3565b610b528282612764565b600660009054906101000a900473ffffffffffffffffffffffffffffffffffffffff1673ffffffffffffffffffffffffffffffffffffffff166349278a04338486886040518563ffffffff1660e01b8152600401610bb39493929190614670565b600060405180830381600087803b158015610bcd57600080fd5b505af1158015610be1573d6000803e3d6000fd5b5050505060016008600084815260200190815260200160002060006101000a81548160ff0219169083151502179055506040518060c001604052808481526020018581526020018673ffffffffffffffffffffffffffffffffffffffff1681526020013373ffffffffffffffffffffffffffffffffffffffff16815260200160405180602001604052806000815250815260200160405180602001604052806000815250815250600a6000848152602001908152602001600020600082015181600001556020820151816001019080519060200190610cc192919061386d565b5060408201518160020160006101000a81548173ffffffffffffffffffffffffffffffffffffffff021916908373ffffffffffffffffffffffffffffffffffffffff16021790555060608201518160030160006101000a81548173ffffffffffffffffffffffffffffffffffffffff021916908373ffffffffffffffffffffffffffffffffffffffff1602179055506080820151816004019080519060200190610d6c92919061386d565b5060a0820151816005019080519060200190610d8992919061386d565b509050503373ffffffffffffffffffffffffffffffffffffffff167f27268712b26fff75b5295ee883e737fba7bfbcdbabaf438a2e86648d8f9d79d68385878942604051610ddb959493929190614a31565b60405180910390a25050505050565b610df2612790565b73ffffffffffffffffffffffffffffffffffffffff16610e10611483565b73ffffffffffffffffffffffffffffffffffffffff1614610e66576040517f08c379a0000000000000000000000000000000000000000000000000000000008152600401610e5d906148b7565b60405180910390fd5b610e738585858585612798565b8473ffffffffffffffffffffffffffffffffffffffff167fb750174fbe6a67966d8b04bf43385593955b89570b939c23c5eb96482987434185858542604051610ebf949392919061461d565b60405180910390a25050505050565b60608151835114610f14576040517f08c379a0000000000000000000000000000000000000000000000000000000008152600401610f0b90614917565b60405180910390fd5b6000835167ffffffffffffffff811115610f57577f4e487b7100000000000000000000000000000000000000000000000000000000600052604160045260246000fd5b604051908082528060200260200182016040528015610f855781602001602082028036833780820191505090505b50905060005b84518110156110745761101e858281518110610fd0577f4e487b7100000000000000000000000000000000000000000000000000000000600052603260045260246000fd5b6020026020010151858381518110611011577f4e487b7100000000000000000000000000000000000000000000000000000000600052603260045260246000fd5b60200260200101516104cc565b828281518110611057577f4e487b7100000000000000000000000000000000000000000000000000000000600052603260045260246000fd5b6020026020010181815250508061106d90614fbc565b9050610f8b565b508091505092915050565b60086020528060005260406000206000915054906101000a900460ff1681565b600a6020528060005260406000206000915090508060000154908060010180546110c890614f59565b80601f01602080910402602001604051908101604052809291908181526020018280546110f490614f59565b80156111415780601f1061111657610100808354040283529160200191611141565b820191906000526020600020905b81548152906001019060200180831161112457829003601f168201915b5050505050908060020160009054906101000a900473ffffffffffffffffffffffffffffffffffffffff16908060030160009054906101000a900473ffffffffffffffffffffffffffffffffffffffff16908060040180546111a290614f59565b80601f01602080910402602001604051908101604052809291908181526020018280546111ce90614f59565b801561121b5780601f106111f05761010080835404028352916020019161121b565b820191906000526020600020905b8154815290600101906020018083116111fe57829003601f168201915b50505050509080600501805461123090614f59565b80601f016020809104026020016040519081016040528092919081815260200182805461125c90614f59565b80156112a95780601f1061127e576101008083540402835291602001916112a9565b820191906000526020600020905b81548152906001019060200180831161128c57829003601f168201915b5050505050905086565b3373ffffffffffffffffffffffffffffffffffffffff16600a600084815260200190815260200160002060030160009054906101000a900473ffffffffffffffffffffffffffffffffffffffff1673ffffffffffffffffffffffffffffffffffffffff1614806113555750611326611483565b73ffffffffffffffffffffffffffffffffffffffff163373ffffffffffffffffffffffffffffffffffffffff16145b611394576040517f08c379a000000000000000000000000000000000000000000000000000000000815260040161138b90614857565b60405180910390fd5b80600a600084815260200190815260200160002060050190805190602001906113be92919061386d565b50817faf6c2c7cfa6644c90808bc4c9314d264947d3c10b9ceb3f94658d4bf5c6fdbbc826040516113ef9190614775565b60405180910390a25050565b611403612790565b73ffffffffffffffffffffffffffffffffffffffff16611421611483565b73ffffffffffffffffffffffffffffffffffffffff1614611477576040517f08c379a000000000000000000000000000000000000000000000000000000000815260040161146e906148b7565b60405180910390fd5b6114816000612b06565b565b6000600360009054906101000a900473ffffffffffffffffffffffffffffffffffffffff16905090565b6114b5612790565b73ffffffffffffffffffffffffffffffffffffffff166114d3611483565b73ffffffffffffffffffffffffffffffffffffffff1614611529576040517f08c379a0000000000000000000000000000000000000000000000000000000008152600401611520906148b7565b60405180910390fd5b60006115348361248c565b905083600760006101000a81548173ffffffffffffffffffffffffffffffffffffffff021916908373ffffffffffffffffffffffffffffffffffffffff160217905550600061160d84600b805461158a90614f59565b80601f01602080910402602001604051908101604052809291908181526020018280546115b690614f59565b80156116035780601f106115d857610100808354040283529160200191611603565b820191906000526020600020905b8154815290600101906020018083116115e657829003601f168201915b50505050506124e8565b905061168e338385600067ffffffffffffffff811115611656577f4e487b7100000000000000000000000000000000000000000000000000000000600052604160045260246000fd5b6040519080825280601f01601f1916602001820160405280156116885781602001600182028036833780820191505090505b506125b3565b6116988282612764565b600660009054906101000a900473ffffffffffffffffffffffffffffffffffffffff1673ffffffffffffffffffffffffffffffffffffffff166349278a04338486886040518563ffffffff1660e01b81526004016116f99493929190614670565b600060405180830381600087803b15801561171357600080fd5b505af1158015611727573d6000803e3d6000fd5b5050505060016008600084815260200190815260200160002060006101000a81548160ff0219169083151502179055506040518060c001604052808481526020018581526020018673ffffffffffffffffffffffffffffffffffffffff1681526020013373ffffffffffffffffffffffffffffffffffffffff16815260200160405180602001604052806000815250815260200160405180602001604052806000815250815250600a600084815260200190815260200160002060008201518160000155602082015181600101908051906020019061180792919061386d565b5060408201518160020160006101000a81548173ffffffffffffffffffffffffffffffffffffffff021916908373ffffffffffffffffffffffffffffffffffffffff16021790555060608201518160030160006101000a81548173ffffffffffffffffffffffffffffffffffffffff021916908373ffffffffffffffffffffffffffffffffffffffff16021790555060808201518160040190805190602001906118b292919061386d565b5060a08201518160050190805190602001906118cf92919061386d565b509050503373ffffffffffffffffffffffffffffffffffffffff167f27268712b26fff75b5295ee883e737fba7bfbcdbabaf438a2e86648d8f9d79d68385878942604051611921959493929190614a31565b60405180910390a25050505050565b6005805461193d90614f59565b80601f016020809104026020016040519081016040528092919081815260200182805461196990614f59565b80156119b65780601f1061198b576101008083540402835291602001916119b6565b820191906000526020600020905b81548152906001019060200180831161199957829003601f168201915b505050505081565b6119d06119c9612790565b8383612bcc565b5050565b3373ffffffffffffffffffffffffffffffffffffffff16600a600084815260200190815260200160002060030160009054906101000a900473ffffffffffffffffffffffffffffffffffffffff1673ffffffffffffffffffffffffffffffffffffffff161480611a765750611a47611483565b73ffffffffffffffffffffffffffffffffffffffff163373ffffffffffffffffffffffffffffffffffffffff16145b611ab5576040517f08c379a0000000000000000000000000000000000000000000000000000000008152600401611aac90614857565b60405180910390fd5b80600a600084815260200190815260200160002060030160006101000a81548173ffffffffffffffffffffffffffffffffffffffff021916908373ffffffffffffffffffffffffffffffffffffffff160217905550817f6e8eba4782e7fa77684397637db2385238912afff932e4a27c10520b5a0f615682604051611b3a9190614540565b60405180910390a25050565b611b4e612790565b73ffffffffffffffffffffffffffffffffffffffff16611b6c611483565b73ffffffffffffffffffffffffffffffffffffffff1614611bc2576040517f08c379a0000000000000000000000000000000000000000000000000000000008152600401611bb9906148b7565b60405180910390fd5b611c41338383600067ffffffffffffffff811115611c09577f4e487b7100000000000000000000000000000000000000000000000000000000600052604160045260246000fd5b6040519080825280601f01601f191660200182016040528015611c3b5781602001600182028036833780820191505090505b506125b3565b80600a600084815260200190815260200160002060000154611c639190614c1d565b600a6000848152602001908152602001600020600001819055503373ffffffffffffffffffffffffffffffffffffffff167fa5f32c669beff348ae2f137abc46da9f0ea86200e3c8c6001def371902c29b49838342604051611cc793929190614a8b565b60405180910390a25050565b60096020528060005260406000206000915090508054611cf290614f59565b80601f0160208091040260200160405190810160405280929190818152602001828054611d1e90614f59565b8015611d6b5780601f10611d4057610100808354040283529160200191611d6b565b820191906000526020600020905b815481529060010190602001808311611d4e57829003601f168201915b505050505081565b3373ffffffffffffffffffffffffffffffffffffffff16600a600084815260200190815260200160002060030160009054906101000a900473ffffffffffffffffffffffffffffffffffffffff1673ffffffffffffffffffffffffffffffffffffffff1614611de157600080fd5b611e60338383600067ffffffffffffffff811115611e28577f4e487b7100000000000000000000000000000000000000000000000000000000600052604160045260246000fd5b6040519080825280601f01601f191660200182016040528015611e5a5781602001600182028036833780820191505090505b506125b3565b80600a600084815260200190815260200160002060000154611e829190614c1d565b600a6000848152602001908152602001600020600001819055503373ffffffffffffffffffffffffffffffffffffffff167fa5f32c669beff348ae2f137abc46da9f0ea86200e3c8c6001def371902c29b49838342604051611ee693929190614a8b565b60405180910390a25050565b6000600160008473ffffffffffffffffffffffffffffffffffffffff1673ffffffffffffffffffffffffffffffffffffffff16815260200190815260200160002060008373ffffffffffffffffffffffffffffffffffffffff1673ffffffffffffffffffffffffffffffffffffffff16815260200190815260200160002060009054906101000a900460ff16905092915050565b611f8e612790565b73ffffffffffffffffffffffffffffffffffffffff16611fac611483565b73ffffffffffffffffffffffffffffffffffffffff1614612002576040517f08c379a0000000000000000000000000000000000000000000000000000000008152600401611ff9906148b7565b60405180910390fd5b80600660006101000a81548173ffffffffffffffffffffffffffffffffffffffff021916908373ffffffffffffffffffffffffffffffffffffffff16021790555050565b61204e612790565b73ffffffffffffffffffffffffffffffffffffffff1661206c611483565b73ffffffffffffffffffffffffffffffffffffffff16146120c2576040517f08c379a00000000000000000000000000000000000000000000000000000000081526004016120b9906148b7565b60405180910390fd5b6120cf8585858585612d39565b8473ffffffffffffffffffffffffffffffffffffffff167faefb2fbba6b16ec9e70e7f1c27586d0da3ecaeb1e449f5b1cd58d9d7d265376e8585854260405161211b94939291906146bc565b60405180910390a25050505050565b612132612790565b73ffffffffffffffffffffffffffffffffffffffff16612150611483565b73ffffffffffffffffffffffffffffffffffffffff16146121a6576040517f08c379a000000000000000000000000000000000000000000000000000000000815260040161219d906148b7565b60405180910390fd5b600073ffffffffffffffffffffffffffffffffffffffff168173ffffffffffffffffffffffffffffffffffffffff161415612216576040517f08c379a000000000000000000000000000000000000000000000000000000000815260040161220d906147f7565b60405180910390fd5b61221f81612b06565b50565b8273ffffffffffffffffffffffffffffffffffffffff163373ffffffffffffffffffffffffffffffffffffffff1614806122bd57503373ffffffffffffffffffffffffffffffffffffffff16600a600084815260200190815260200160002060030160009054906101000a900473ffffffffffffffffffffffffffffffffffffffff1673ffffffffffffffffffffffffffffffffffffffff16145b806122fa57506122cb611483565b73ffffffffffffffffffffffffffffffffffffffff163373ffffffffffffffffffffffffffffffffffffffff16145b612339576040517f08c379a0000000000000000000000000000000000000000000000000000000008152600401612330906148d7565b60405180910390fd5b612344838383612fd5565b80600a6000848152602001908152602001600020600001546123669190614e6f565b600a6000848152602001908152602001600020600001819055506000600a600084815260200190815260200160002060000154116123cb5760006008600084815260200190815260200160002060006101000a81548160ff0219169083151502179055505b8273ffffffffffffffffffffffffffffffffffffffff167f8512a4e1f1fd2a5406f1786b83609a6d00e8966f82b03814dd39ea570f77f03c83834260405161241593929190614a8b565b60405180910390a2505050565b60007f01ffc9a7000000000000000000000000000000000000000000000000000000007bffffffffffffffffffffffffffffffffffffffffffffffffffffffff1916827bffffffffffffffffffffffffffffffffffffffffffffffffffffffff1916149050919050565b60008060089050600081600a6124a29190614cf7565b90506000846040516020016124b7919061447b565b6040516020818303038152906040528051906020012060001c905081816124de9190615005565b9350505050919050565b6060600082846040516020016124ff929190614492565b604051602081830303815290604052905060606040518060400160405280600481526020017f476f6c640000000000000000000000000000000000000000000000000000000081525090506000612580866125598561321c565b8460405160200161256c939291906144c1565b60405160208183030381529060405261321c565b9050600081604051602001612595919061451e565b60405160208183030381529060405290508094505050505092915050565b600073ffffffffffffffffffffffffffffffffffffffff168473ffffffffffffffffffffffffffffffffffffffff161415612623576040517f08c379a000000000000000000000000000000000000000000000000000000000815260040161261a90614957565b60405180910390fd5b600061262d612790565b9050600061263a856133a6565b90506000612647856133a6565b90506126588360008985858961346c565b8460008088815260200190815260200160002060008973ffffffffffffffffffffffffffffffffffffffff1673ffffffffffffffffffffffffffffffffffffffff16815260200190815260200160002060008282546126b79190614c1d565b925050819055508673ffffffffffffffffffffffffffffffffffffffff16600073ffffffffffffffffffffffffffffffffffffffff168473ffffffffffffffffffffffffffffffffffffffff167fc3d58168c5ae7397731d063d5bbf3d657854427343f4c083240f7aacaa2d0f628989604051612735929190614a08565b60405180910390a461274c83600089858589613474565b61275b8360008989898961347c565b50505050505050565b8060096000848152602001908152602001600020908051906020019061278b92919061386d565b505050565b600033905090565b81518351146127dc576040517f08c379a00000000000000000000000000000000000000000000000000000000081526004016127d390614937565b60405180910390fd5b600073ffffffffffffffffffffffffffffffffffffffff168473ffffffffffffffffffffffffffffffffffffffff16141561284c576040517f08c379a000000000000000000000000000000000000000000000000000000000815260040161284390614837565b60405180910390fd5b6000612856612790565b905061286681878787878761346c565b60005b8451811015612a635760008582815181106128ad577f4e487b7100000000000000000000000000000000000000000000000000000000600052603260045260246000fd5b6020026020010151905060008583815181106128f2577f4e487b7100000000000000000000000000000000000000000000000000000000600052603260045260246000fd5b60200260200101519050600080600084815260200190815260200160002060008b73ffffffffffffffffffffffffffffffffffffffff1673ffffffffffffffffffffffffffffffffffffffff16815260200190815260200160002054905081811015612993576040517f08c379a000000000000000000000000000000000000000000000000000000000815260040161298a90614897565b60405180910390fd5b81810360008085815260200190815260200160002060008c73ffffffffffffffffffffffffffffffffffffffff1673ffffffffffffffffffffffffffffffffffffffff168152602001908152602001600020819055508160008085815260200190815260200160002060008b73ffffffffffffffffffffffffffffffffffffffff1673ffffffffffffffffffffffffffffffffffffffff1681526020019081526020016000206000828254612a489190614c1d565b9250508190555050505080612a5c90614fbc565b9050612869565b508473ffffffffffffffffffffffffffffffffffffffff168673ffffffffffffffffffffffffffffffffffffffff168273ffffffffffffffffffffffffffffffffffffffff167f4a39dc06d4c0dbc64b70af90fd698a233a518aa5d07e595d983b8c0526c8f7fb8787604051612ada929190614723565b60405180910390a4612af0818787878787613474565b612afe818787878787613663565b505050505050565b6000600360009054906101000a900473ffffffffffffffffffffffffffffffffffffffff16905081600360006101000a81548173ffffffffffffffffffffffffffffffffffffffff021916908373ffffffffffffffffffffffffffffffffffffffff1602179055508173ffffffffffffffffffffffffffffffffffffffff168173ffffffffffffffffffffffffffffffffffffffff167f8be0079c531659141344cd1fd0a4f28419497f9722a3daafe3b4186f6b6457e060405160405180910390a35050565b8173ffffffffffffffffffffffffffffffffffffffff168373ffffffffffffffffffffffffffffffffffffffff161415612c3b576040517f08c379a0000000000000000000000000000000000000000000000000000000008152600401612c32906148f7565b60405180910390fd5b80600160008573ffffffffffffffffffffffffffffffffffffffff1673ffffffffffffffffffffffffffffffffffffffff16815260200190815260200160002060008473ffffffffffffffffffffffffffffffffffffffff1673ffffffffffffffffffffffffffffffffffffffff16815260200190815260200160002060006101000a81548160ff0219169083151502179055508173ffffffffffffffffffffffffffffffffffffffff168373ffffffffffffffffffffffffffffffffffffffff167f17307eab39ab6107e8899845ad3d59bd9653f200f220920489ca2b5937696c3183604051612d2c919061475a565b60405180910390a3505050565b600073ffffffffffffffffffffffffffffffffffffffff168473ffffffffffffffffffffffffffffffffffffffff161415612da9576040517f08c379a0000000000000000000000000000000000000000000000000000000008152600401612da090614837565b60405180910390fd5b6000612db3612790565b90506000612dc0856133a6565b90506000612dcd856133a6565b9050612ddd83898985858961346c565b600080600088815260200190815260200160002060008a73ffffffffffffffffffffffffffffffffffffffff1673ffffffffffffffffffffffffffffffffffffffff16815260200190815260200160002054905085811015612e74576040517f08c379a0000000000000000000000000000000000000000000000000000000008152600401612e6b90614897565b60405180910390fd5b85810360008089815260200190815260200160002060008b73ffffffffffffffffffffffffffffffffffffffff1673ffffffffffffffffffffffffffffffffffffffff168152602001908152602001600020819055508560008089815260200190815260200160002060008a73ffffffffffffffffffffffffffffffffffffffff1673ffffffffffffffffffffffffffffffffffffffff1681526020019081526020016000206000828254612f299190614c1d565b925050819055508773ffffffffffffffffffffffffffffffffffffffff168973ffffffffffffffffffffffffffffffffffffffff168573ffffffffffffffffffffffffffffffffffffffff167fc3d58168c5ae7397731d063d5bbf3d657854427343f4c083240f7aacaa2d0f628a8a604051612fa6929190614a08565b60405180910390a4612fbc848a8a86868a613474565b612fca848a8a8a8a8a61347c565b505050505050505050565b600073ffffffffffffffffffffffffffffffffffffffff168373ffffffffffffffffffffffffffffffffffffffff161415613045576040517f08c379a000000000000000000000000000000000000000000000000000000000815260040161303c90614877565b60405180910390fd5b600061304f612790565b9050600061305c846133a6565b90506000613069846133a6565b90506130898387600085856040518060200160405280600081525061346c565b600080600087815260200190815260200160002060008873ffffffffffffffffffffffffffffffffffffffff1673ffffffffffffffffffffffffffffffffffffffff16815260200190815260200160002054905084811015613120576040517f08c379a000000000000000000000000000000000000000000000000000000000815260040161311790614817565b60405180910390fd5b84810360008088815260200190815260200160002060008973ffffffffffffffffffffffffffffffffffffffff1673ffffffffffffffffffffffffffffffffffffffff16815260200190815260200160002081905550600073ffffffffffffffffffffffffffffffffffffffff168773ffffffffffffffffffffffffffffffffffffffff168573ffffffffffffffffffffffffffffffffffffffff167fc3d58168c5ae7397731d063d5bbf3d657854427343f4c083240f7aacaa2d0f6289896040516131ed929190614a08565b60405180910390a461321384886000868660405180602001604052806000815250613474565b50505050505050565b606060008251141561323f576040518060200160405280600081525090506133a1565b6000604051806060016040528060408152602001615887604091399050600060036002855161326e9190614c1d565b6132789190614c73565b60046132849190614e15565b67ffffffffffffffff8111156132c3577f4e487b7100000000000000000000000000000000000000000000000000000000600052604160045260246000fd5b6040519080825280601f01601f1916602001820160405280156132f55781602001600182028036833780820191505090505b509050600182016020820185865187015b80821015613361576003820191508151603f8160121c168501518453600184019350603f81600c1c168501518453600184019350603f8160061c168501518453600184019350603f8116850151845360018401935050613306565b505060038651066001811461337d576002811461339057613398565b603d6001830353603d6002830353613398565b603d60018303535b50505080925050505b919050565b60606000600167ffffffffffffffff8111156133eb577f4e487b7100000000000000000000000000000000000000000000000000000000600052604160045260246000fd5b6040519080825280602002602001820160405280156134195781602001602082028036833780820191505090505b5090508281600081518110613457577f4e487b7100000000000000000000000000000000000000000000000000000000600052603260045260246000fd5b60200260200101818152505080915050919050565b505050505050565b505050505050565b61349b8473ffffffffffffffffffffffffffffffffffffffff1661384a565b1561365b578373ffffffffffffffffffffffffffffffffffffffff1663f23a6e6187878686866040518663ffffffff1660e01b81526004016134e19594939291906145c3565b602060405180830381600087803b1580156134fb57600080fd5b505af192505050801561352c57506040513d601f19601f820116820180604052508101906135299190613f29565b60015b6135d2576135386150f2565b806308c379a01415613595575061354d615794565b806135585750613597565b806040517f08c379a000000000000000000000000000000000000000000000000000000000815260040161358c9190614775565b60405180910390fd5b505b6040517f08c379a00000000000000000000000000000000000000000000000000000000081526004016135c990614797565b60405180910390fd5b63f23a6e6160e01b7bffffffffffffffffffffffffffffffffffffffffffffffffffffffff1916817bffffffffffffffffffffffffffffffffffffffffffffffffffffffff191614613659576040517f08c379a0000000000000000000000000000000000000000000000000000000008152600401613650906147b7565b60405180910390fd5b505b505050505050565b6136828473ffffffffffffffffffffffffffffffffffffffff1661384a565b15613842578373ffffffffffffffffffffffffffffffffffffffff1663bc197c8187878686866040518663ffffffff1660e01b81526004016136c895949392919061455b565b602060405180830381600087803b1580156136e257600080fd5b505af192505050801561371357506040513d601f19601f820116820180604052508101906137109190613f29565b60015b6137b95761371f6150f2565b806308c379a0141561377c5750613734615794565b8061373f575061377e565b806040517f08c379a00000000000000000000000000000000000000000000000000000000081526004016137739190614775565b60405180910390fd5b505b6040517f08c379a00000000000000000000000000000000000000000000000000000000081526004016137b090614797565b60405180910390fd5b63bc197c8160e01b7bffffffffffffffffffffffffffffffffffffffffffffffffffffffff1916817bffffffffffffffffffffffffffffffffffffffffffffffffffffffff191614613840576040517f08c379a0000000000000000000000000000000000000000000000000000000008152600401613837906147b7565b60405180910390fd5b505b505050505050565b6000808273ffffffffffffffffffffffffffffffffffffffff163b119050919050565b82805461387990614f59565b90600052602060002090601f01602090048101928261389b57600085556138e2565b82601f106138b457805160ff19168380011785556138e2565b828001600101855582156138e2579182015b828111156138e15782518255916020019190600101906138c6565b5b5090506138ef91906138f3565b5090565b5b8082111561390c5760008160009055506001016138f4565b5090565b600061392361391e84614ae7565b614ac2565b9050808382526020820190508285602086028201111561394257600080fd5b60005b8581101561397257816139588882613a64565b845260208401935060208301925050600181019050613945565b5050509392505050565b600061398f61398a84614b13565b614ac2565b905080838252602082019050828560208602820111156139ae57600080fd5b60005b858110156139de57816139c48882613b75565b8452602084019350602083019250506001810190506139b1565b5050509392505050565b60006139fb6139f684614b3f565b614ac2565b905082815260208101848484011115613a1357600080fd5b613a1e848285614f17565b509392505050565b6000613a39613a3484614b70565b614ac2565b905082815260208101848484011115613a5157600080fd5b613a5c848285614f17565b509392505050565b600081359050613a738161582a565b92915050565b600081519050613a888161582a565b92915050565b600082601f830112613a9f57600080fd5b8135613aaf848260208601613910565b91505092915050565b600082601f830112613ac957600080fd5b8135613ad984826020860161397c565b91505092915050565b600081359050613af181615841565b92915050565b600081359050613b0681615858565b92915050565b600081519050613b1b81615858565b92915050565b600082601f830112613b3257600080fd5b8135613b428482602086016139e8565b91505092915050565b600082601f830112613b5c57600080fd5b8135613b6c848260208601613a26565b91505092915050565b600081359050613b848161586f565b92915050565b600060208284031215613b9c57600080fd5b6000613baa84828501613a64565b91505092915050565b600060208284031215613bc557600080fd5b6000613bd384828501613a79565b91505092915050565b60008060408385031215613bef57600080fd5b6000613bfd85828601613a64565b9250506020613c0e85828601613a64565b9150509250929050565b600080600080600060a08688031215613c3057600080fd5b6000613c3e88828901613a64565b9550506020613c4f88828901613a64565b945050604086013567ffffffffffffffff811115613c6c57600080fd5b613c7888828901613ab8565b935050606086013567ffffffffffffffff811115613c9557600080fd5b613ca188828901613ab8565b925050608086013567ffffffffffffffff811115613cbe57600080fd5b613cca88828901613b21565b9150509295509295909350565b600080600080600060a08688031215613cef57600080fd5b6000613cfd88828901613a64565b9550506020613d0e88828901613a64565b9450506040613d1f88828901613b75565b9350506060613d3088828901613b75565b925050608086013567ffffffffffffffff811115613d4d57600080fd5b613d5988828901613b21565b9150509295509295909350565b60008060408385031215613d7957600080fd5b6000613d8785828601613a64565b9250506020613d9885828601613ae2565b9150509250929050565b600080600060608486031215613db757600080fd5b6000613dc586828701613a64565b935050602084013567ffffffffffffffff811115613de257600080fd5b613dee86828701613b4b565b9250506040613dff86828701613b75565b9150509250925092565b60008060408385031215613e1c57600080fd5b6000613e2a85828601613a64565b9250506020613e3b85828601613b75565b9150509250929050565b600080600060608486031215613e5a57600080fd5b6000613e6886828701613a64565b9350506020613e7986828701613b75565b9250506040613e8a86828701613b75565b9150509250925092565b60008060408385031215613ea757600080fd5b600083013567ffffffffffffffff811115613ec157600080fd5b613ecd85828601613a8e565b925050602083013567ffffffffffffffff811115613eea57600080fd5b613ef685828601613ab8565b9150509250929050565b600060208284031215613f1257600080fd5b6000613f2084828501613af7565b91505092915050565b600060208284031215613f3b57600080fd5b6000613f4984828501613b0c565b91505092915050565b600060208284031215613f6457600080fd5b6000613f7284828501613b75565b91505092915050565b60008060408385031215613f8e57600080fd5b6000613f9c85828601613b75565b9250506020613fad85828601613a64565b9150509250929050565b60008060408385031215613fca57600080fd5b6000613fd885828601613b75565b925050602083013567ffffffffffffffff811115613ff557600080fd5b61400185828601613b4b565b9150509250929050565b6000806040838503121561401e57600080fd5b600061402c85828601613b75565b925050602061403d85828601613b75565b9150509250929050565b6000614053838361445d565b60208301905092915050565b61406881614ea3565b82525050565b600061407982614bb1565b6140838185614bdf565b935061408e83614ba1565b8060005b838110156140bf5781516140a68882614047565b97506140b183614bd2565b925050600181019050614092565b5085935050505092915050565b6140d581614eb5565b82525050565b60006140e682614bbc565b6140f08185614bf0565b9350614100818560208601614f26565b61410981615114565b840191505092915050565b600061411f82614bc7565b6141298185614c01565b9350614139818560208601614f26565b61414281615114565b840191505092915050565b600061415882614bc7565b6141628185614c12565b9350614172818560208601614f26565b80840191505092915050565b600061418b603483614c01565b91506141968261513f565b604082019050919050565b60006141ae602883614c01565b91506141b98261518e565b604082019050919050565b60006141d1602b83614c01565b91506141dc826151dd565b604082019050919050565b60006141f4602683614c01565b91506141ff8261522c565b604082019050919050565b6000614217602483614c01565b91506142228261527b565b604082019050919050565b600061423a607283614c12565b9150614245826152ca565b607282019050919050565b600061425d600d83614c12565b915061426882615365565b600d82019050919050565b6000614280600d83614c12565b915061428b8261538e565b600d82019050919050565b60006142a3602583614c01565b91506142ae826153b7565b604082019050919050565b60006142c6603183614c01565b91506142d182615406565b604082019050919050565b60006142e9602383614c01565b91506142f482615455565b604082019050919050565b600061430c602a83614c01565b9150614317826154a4565b604082019050919050565b600061432f602083614c01565b915061433a826154f3565b602082019050919050565b6000614352605583614c01565b915061435d8261551c565b606082019050919050565b6000614375601d83614c12565b915061438082615591565b601d82019050919050565b6000614398606083614c12565b91506143a3826155ba565b606082019050919050565b60006143bb602983614c01565b91506143c68261562f565b604082019050919050565b60006143de602983614c01565b91506143e98261567e565b604082019050919050565b6000614401602883614c01565b915061440c826156cd565b604082019050919050565b6000614424602183614c01565b915061442f8261571c565b604082019050919050565b6000614447600483614c12565b91506144528261576b565b600482019050919050565b61446681614f0d565b82525050565b61447581614f0d565b82525050565b6000614487828461414d565b915081905092915050565b600061449e828561414d565b91506144aa828461414d565b91506144b582614273565b91508190509392505050565b60006144cc82614250565b91506144d8828661414d565b91506144e38261422d565b91506144ef828561414d565b91506144fa8261438b565b9150614506828461414d565b91506145118261443a565b9150819050949350505050565b600061452982614368565b9150614535828461414d565b915081905092915050565b6000602082019050614555600083018461405f565b92915050565b600060a082019050614570600083018861405f565b61457d602083018761405f565b818103604083015261458f818661406e565b905081810360608301526145a3818561406e565b905081810360808301526145b781846140db565b90509695505050505050565b600060a0820190506145d8600083018861405f565b6145e5602083018761405f565b6145f2604083018661446c565b6145ff606083018561446c565b818103608083015261461181846140db565b90509695505050505050565b6000608082019050614632600083018761405f565b8181036020830152614644818661406e565b90508181036040830152614658818561406e565b9050614667606083018461446c565b95945050505050565b6000608082019050614685600083018761405f565b614692602083018661446c565b61469f604083018561446c565b81810360608301526146b18184614114565b905095945050505050565b60006080820190506146d1600083018761405f565b6146de602083018661446c565b6146eb604083018561446c565b6146f8606083018461446c565b95945050505050565b6000602082019050818103600083015261471b818461406e565b905092915050565b6000604082019050818103600083015261473d818561406e565b90508181036020830152614751818461406e565b90509392505050565b600060208201905061476f60008301846140cc565b92915050565b6000602082019050818103600083015261478f8184614114565b905092915050565b600060208201905081810360008301526147b08161417e565b9050919050565b600060208201905081810360008301526147d0816141a1565b9050919050565b600060208201905081810360008301526147f0816141c4565b9050919050565b60006020820190508181036000830152614810816141e7565b9050919050565b600060208201905081810360008301526148308161420a565b9050919050565b6000602082019050818103600083015261485081614296565b9050919050565b60006020820190508181036000830152614870816142b9565b9050919050565b60006020820190508181036000830152614890816142dc565b9050919050565b600060208201905081810360008301526148b0816142ff565b9050919050565b600060208201905081810360008301526148d081614322565b9050919050565b600060208201905081810360008301526148f081614345565b9050919050565b60006020820190508181036000830152614910816143ae565b9050919050565b60006020820190508181036000830152614930816143d1565b9050919050565b60006020820190508181036000830152614950816143f4565b9050919050565b6000602082019050818103600083015261497081614417565b9050919050565b600060208201905061498c600083018461446c565b92915050565b600060c0820190506149a7600083018961446c565b81810360208301526149b98188614114565b90506149c8604083018761405f565b6149d5606083018661405f565b81810360808301526149e78185614114565b905081810360a08301526149fb8184614114565b9050979650505050505050565b6000604082019050614a1d600083018561446c565b614a2a602083018461446c565b9392505050565b600060a082019050614a46600083018861446c565b614a53602083018761446c565b8181036040830152614a658186614114565b9050614a74606083018561405f565b614a81608083018461446c565b9695505050505050565b6000606082019050614aa0600083018661446c565b614aad602083018561446c565b614aba604083018461446c565b949350505050565b6000614acc614add565b9050614ad88282614f8b565b919050565b6000604051905090565b600067ffffffffffffffff821115614b0257614b016150c3565b5b602082029050602081019050919050565b600067ffffffffffffffff821115614b2e57614b2d6150c3565b5b602082029050602081019050919050565b600067ffffffffffffffff821115614b5a57614b596150c3565b5b614b6382615114565b9050602081019050919050565b600067ffffffffffffffff821115614b8b57614b8a6150c3565b5b614b9482615114565b9050602081019050919050565b6000819050602082019050919050565b600081519050919050565b600081519050919050565b600081519050919050565b6000602082019050919050565b600082825260208201905092915050565b600082825260208201905092915050565b600082825260208201905092915050565b600081905092915050565b6000614c2882614f0d565b9150614c3383614f0d565b9250827fffffffffffffffffffffffffffffffffffffffffffffffffffffffffffffffff03821115614c6857614c67615036565b5b828201905092915050565b6000614c7e82614f0d565b9150614c8983614f0d565b925082614c9957614c98615065565b5b828204905092915050565b6000808291508390505b6001851115614cee57808604811115614cca57614cc9615036565b5b6001851615614cd95780820291505b8081029050614ce785615125565b9450614cae565b94509492505050565b6000614d0282614f0d565b9150614d0d83614f0d565b9250614d3a7fffffffffffffffffffffffffffffffffffffffffffffffffffffffffffffffff8484614d42565b905092915050565b600082614d525760019050614e0e565b81614d605760009050614e0e565b8160018114614d765760028114614d8057614daf565b6001915050614e0e565b60ff841115614d9257614d91615036565b5b8360020a915084821115614da957614da8615036565b5b50614e0e565b5060208310610133831016604e8410600b8410161715614de45782820a905083811115614ddf57614dde615036565b5b614e0e565b614df18484846001614ca4565b92509050818404811115614e0857614e07615036565b5b81810290505b9392505050565b6000614e2082614f0d565b9150614e2b83614f0d565b9250817fffffffffffffffffffffffffffffffffffffffffffffffffffffffffffffffff0483118215151615614e6457614e63615036565b5b828202905092915050565b6000614e7a82614f0d565b9150614e8583614f0d565b925082821015614e9857614e97615036565b5b828203905092915050565b6000614eae82614eed565b9050919050565b60008115159050919050565b60007fffffffff0000000000000000000000000000000000000000000000000000000082169050919050565b600073ffffffffffffffffffffffffffffffffffffffff82169050919050565b6000819050919050565b82818337600083830152505050565b60005b83811015614f44578082015181840152602081019050614f29565b83811115614f53576000848401525b50505050565b60006002820490506001821680614f7157607f821691505b60208210811415614f8557614f84615094565b5b50919050565b614f9482615114565b810181811067ffffffffffffffff82111715614fb357614fb26150c3565b5b80604052505050565b6000614fc782614f0d565b91507fffffffffffffffffffffffffffffffffffffffffffffffffffffffffffffffff821415614ffa57614ff9615036565b5b600182019050919050565b600061501082614f0d565b915061501b83614f0d565b92508261502b5761502a615065565b5b828206905092915050565b7f4e487b7100000000000000000000000000000000000000000000000000000000600052601160045260246000fd5b7f4e487b7100000000000000000000000000000000000000000000000000000000600052601260045260246000fd5b7f4e487b7100000000000000000000000000000000000000000000000000000000600052602260045260246000fd5b7f4e487b7100000000000000000000000000000000000000000000000000000000600052604160045260246000fd5b600060033d11156151115760046000803e61510e600051615132565b90505b90565b6000601f19601f8301169050919050565b60008160011c9050919050565b60008160e01c9050919050565b7f455243313135353a207472616e7366657220746f206e6f6e204552433131353560008201527f526563656976657220696d706c656d656e746572000000000000000000000000602082015250565b7f455243313135353a204552433131353552656365697665722072656a6563746560008201527f6420746f6b656e73000000000000000000000000000000000000000000000000602082015250565b7f455243313135353a2062616c616e636520717565727920666f7220746865207a60008201527f65726f2061646472657373000000000000000000000000000000000000000000602082015250565b7f4f776e61626c653a206e6577206f776e657220697320746865207a65726f206160008201527f6464726573730000000000000000000000000000000000000000000000000000602082015250565b7f455243313135353a206275726e20616d6f756e7420657863656564732062616c60008201527f616e636500000000000000000000000000000000000000000000000000000000602082015250565b7f222c20226465736372697074696f6e223a202252656c617965722d53656e646560008201527f7220746f6b656e7320666f722070726f6a656374732c2044414f7320616e642060208201527f636f6d6d756e6974696573222c2022696d616765223a2022646174613a696d6160408201527f67652f7376672b786d6c3b6261736536342c0000000000000000000000000000606082015250565b7f7b226b6579776f7264223a202200000000000000000000000000000000000000600082015250565b7f3c2f746578743e3c2f7376673e00000000000000000000000000000000000000600082015250565b7f455243313135353a207472616e7366657220746f20746865207a65726f20616460008201527f6472657373000000000000000000000000000000000000000000000000000000602082015250565b7f6d757374206265207665726966696564206f776e6572206f6620746f6b656e2060008201527f6f7220636f6e7472616374206f776e6572000000000000000000000000000000602082015250565b7f455243313135353a206275726e2066726f6d20746865207a65726f206164647260008201527f6573730000000000000000000000000000000000000000000000000000000000602082015250565b7f455243313135353a20696e73756666696369656e742062616c616e636520666f60008201527f72207472616e7366657200000000000000000000000000000000000000000000602082015250565b7f4f776e61626c653a2063616c6c6572206973206e6f7420746865206f776e6572600082015250565b7f6d757374206265206f776e6572206f6620746f6b656e206f722076657269666960008201527f6564206f776e65722028616b61206465706c6f7965722061646472657373292c60208201527f206f7220697320636f6e7472616374206f776e65720000000000000000000000604082015250565b7f646174613a6170706c69636174696f6e2f6a736f6e3b6261736536342c000000600082015250565b7f222c202261747472696275746573223a205b7b2274726169745f74797065223a60008201527f22526f6c65222c202276616c7565223a2253656e646572227d2c207b2274726160208201527f69745f74797065223a224261636b67726f756e64222c202276616c7565223a22604082015250565b7f455243313135353a2073657474696e6720617070726f76616c2073746174757360008201527f20666f722073656c660000000000000000000000000000000000000000000000602082015250565b7f455243313135353a206163636f756e747320616e6420696473206c656e67746860008201527f206d69736d617463680000000000000000000000000000000000000000000000602082015250565b7f455243313135353a2069647320616e6420616d6f756e7473206c656e6774682060008201527f6d69736d61746368000000000000000000000000000000000000000000000000602082015250565b7f455243313135353a206d696e7420746f20746865207a65726f2061646472657360008201527f7300000000000000000000000000000000000000000000000000000000000000602082015250565b7f227d5d7d00000000000000000000000000000000000000000000000000000000600082015250565b600060443d10156157a457615827565b6157ac614add565b60043d036004823e80513d602482011167ffffffffffffffff821117156157d4575050615827565b808201805167ffffffffffffffff8111156157f25750505050615827565b80602083010160043d03850181111561580f575050505050615827565b61581e82602001850186614f8b565b82955050505050505b90565b61583381614ea3565b811461583e57600080fd5b50565b61584a81614eb5565b811461585557600080fd5b50565b61586181614ec1565b811461586c57600080fd5b50565b61587881614f0d565b811461588357600080fd5b5056fe4142434445464748494a4b4c4d4e4f505152535455565758595a6162636465666768696a6b6c6d6e6f707172737475767778797a303132333435363738392b2fa26469706673582212208855904a5424b2683bf85f4e83fc11f0c2a3b301bde3d6f45e10ff5f637cc49164736f6c634300080100333c73766720786d6c6e733d27687474703a2f2f7777772e77332e6f72672f323030302f73766727207072657365727665417370656374526174696f3d27784d696e594d696e206d656574272076696577426f783d273020302033353020333530273e3c7374796c653e2e62617365207b2066696c6c3a2077686974653b20666f6e742d66616d696c793a206d6f6e6f73706163653b20666f6e742d73697a653a20323470783b207d3c2f7374796c653e3c726563742077696474683d273130302527206865696768743d2731303025272066696c6c3d27676f6c6427202f3e3c7465787420783d273530252720793d273530252720636c6173733d27626173652720646f6d696e616e742d626173656c696e653d276d6964646c652720746578742d616e63686f723d276d6964646c65273e",
  "linkReferences": {},
  "deployedLinkReferences": {}
}